:020000040800F2
:1000000000A00020A13D0008DD3A0008DF3A00080A
:10001000E13A0008E33A0008E53A00080000000071
:10002000000000000000000000000000E73A0008A7
:10003000E93A000800000000EB3A0008ED3A000839
:10004000F13D0008F13D0008F13D0008F13D0008D8
:10005000F13D0008F13D0008F13D0008F13D0008C8
:10006000F13D0008F13D0008F13D0008F13D0008B8
:10007000F13D0008F13D0008F13D0008F13D0008A8
:10008000F13D0008F13D0008F13D0008F13D000898
:10009000F13D0008F13D0008F13D0008F13D000888
:1000A000F13D0008F13D0008F13D0008F13D000878
:1000B000F13D0008F53A0008F13D0008F13D000867
:1000C000F13D0008F13D0008F13D0008F13D000858
:1000D000F13D0008F13D0008F13D0008F13D000848
:1000E000F13D0008F13D0008F13D0008F13D000838
:1000F000F13D0008F13D0008F13D0008F13D000828
:10010000000000000000000000000000F13D0008B9
:10011000F13D0008F13D0008F13D0008F13D000807
:10012000F13D0008F13D0008F13D0008F13D0008F7
:10013000F13D0008F13D0008000000000000000053
:10014000F13D0008F13D0008F13D0008000000000D
:10015000000000000000000000000000000000009F
:100160000000000000000000F13D0008F13D000823
:10017000F13D000800000000000000000000000049
:0801800000000000F13D000841
:1001900010B5054C237833B9044B13B10448AFF3C1
:1001A00000800123237010BD7400002000000000B7
:1001B000A84F000808B5034B1BB103490348AFF330
:1001C000008008BD0000000078000020A84F000853
:1001D00081F0004102E000BF83F0004330B54FEAF8
:1001E00041044FEA430594EA050F08BF90EA020F65
:1001F0001FBF54EA000C55EA020C7FEA645C7FEAF8
:10020000655C00F0E2804FEA5454D4EB5555B8BF1A
:100210006D420CDD2C4480EA020281EA030382EA8B
:10022000000083EA010180EA020281EA0303362D1D
:1002300088BF30BD11F0004F4FEA01314FF4801CF0
:100240004CEA113102D0404261EB410113F0004F02
:100250004FEA03334CEA133302D0524263EB4303B9
:1002600094EA050F00F0A780A4F10104D5F1200E57
:100270000DDB02FA0EFC22FA05F2801841F10001B2
:1002800003FA0EF2801843FA05F359410EE0A5F186
:1002900020050EF1200E012A03FA0EFC28BF4CF0B7
:1002A000020C43FA05F3C01851EBE37101F000456D
:1002B00007D54FF0000EDCF1000C7EEB00006EEB7A
:1002C0000101B1F5801F1BD3B1F5001F0CD3490804
:1002D0005FEA30004FEA3C0C04F101044FEA44525B
:1002E00012F5800F80F09A80BCF1004F08BF5FEAE2
:1002F000500C50F1000041EB045141EA050130BDC2
:100300005FEA4C0C404141EB010111F4801FA4F164
:100310000104E9D191F0000F04BF01460020B1FAB9
:1003200081F308BF2033A3F10B03B3F120020CDAF1
:100330000C3208DD02F1140CC2F10C0201FA0CF0CF
:1003400021FA02F10CE002F11402D8BFC2F1200C34
:1003500001FA02F120FA0CFCDCBF41EA0C019040EA
:10036000E41AA2BF01EB0451294330BD6FEA040433
:100370001F3C1CDA0C340EDC04F11404C4F120021E
:1003800020FA04F001FA02F340EA030021FA04F330
:1003900045EA030130BDC4F10C04C4F1200220FA87
:1003A00002F001FA04F340EA0300294630BD21FAC5
:1003B00004F0294630BD94F0000F83F4801306BF8B
:1003C00081F480110134013D4EE77FEA645C18BF7F
:1003D0007FEA655C29D094EA050F08BF90EA020F16
:1003E00005D054EA000C04BF1946104630BD91EA0E
:1003F000030F1EBF0021002030BD5FEA545C05D111
:100400004000494128BF41F0004130BD14F580044F
:100410003CBF01F5801130BD01F0004545F0FE41C3
:1004200041F470014FF0000030BD7FEA645C1ABFF8
:10043000194610467FEA655C1CBF0B46024650EA2F
:10044000013406BF52EA033591EA030F41F400215B
:1004500030BD00BF90F0000F04BF0021704730B5E1
:100460004FF4806404F132044FF000054FF00001B6
:1004700050E700BF90F0000F04BF0021704730B577
:100480004FF4806404F1320410F0004548BF40424C
:100490004FF000013EE700BF42004FEAE2014FEAA1
:1004A00031014FEA02701FBF12F07F4393F07F4F7C
:1004B00081F06051704732F07F4208BF704793F07F
:1004C0007F4F04BF41F40021704730B54FF4607492
:1004D00001F0004521F000411CE700BF50EA010295
:1004E00008BF704730B54FF000050AE050EA01023E
:1004F00008BF704730B511F0004502D5404261EBAE
:1005000041014FF4806404F132045FEA915C3FF4EE
:10051000D8AE4FF003025FEADC0C18BF03325FEA8B
:10052000DC0C18BF033202EBDC02C2F1200300FA3C
:1005300003FC20FA02F001FA03FE40EA0E0021FA61
:1005400002F11444BDE600BF70B54FF0FF0C4CF44F
:10055000E06C1CEA11541DBF1CEA135594EA0C0F01
:1005600095EA0C0F00F0DEF82C4481EA030621EA3C
:100570004C5123EA4C5350EA013518BF52EA033577
:1005800041F4801143F4801338D0A0FB02CE4FF029
:100590000005E1FB02E506F00042E0FB03E54FF059
:1005A0000006E1FB03569CF0000F18BF4EF0010E51
:1005B000A4F1FF04B6F5007F64F5407404D25FEA4D
:1005C0004E0E6D4146EB060642EAC62141EA555100
:1005D0004FEAC52040EA5E504FEACE2EB4F1FD0C42
:1005E00088BFBCF5E06F1ED8BEF1004F08BF5FEAC0
:1005F000500E50F1000041EB045170BD06F0004672
:1006000046EA010140EA020081EA0301B4EB5C041E
:10061000C2BFD4EB0C0541EA045170BD41F4801116
:100620004FF0000E013C00F3AB8014F1360FDEBF3B
:10063000002001F0004170BDC4F10004203C35DA17
:100640000C341BDC04F11404C4F1200500FA05F39A
:1006500020FA04F001FA05F240EA020001F000423B
:1006600021F0004110EBD37021FA04F642EB0601B1
:100670005EEA430E08BF20EAD37070BDC4F10C04DB
:10068000C4F1200500FA04F320FA05F001FA04F29F
:1006900040EA020001F0004110EBD37041F100018B
:1006A0005EEA430E08BF20EAD37070BDC4F1200596
:1006B00000FA05F24EEA020E20FA04F301FA05F2FE
:1006C00043EA020321FA04F001F0004121FA04F2A6
:1006D00020EA020000EBD3705EEA430E08BF20EA76
:1006E000D37070BD94F0000F0FD101F000464000B0
:1006F00041EB010111F4801F08BF013CF7D041EA32
:10070000060195F0000F18BF704703F00046520035
:1007100043EB030313F4801F08BF013DF7D043EA06
:100720000603704794EA0C0F0CEA135518BF95EABC
:100730000C0F0CD050EA410618BF52EA4306D1D143
:1007400081EA030101F000414FF0000070BD50EA62
:10075000410606BF1046194652EA430619D094EAEC
:100760000C0F02D150EA013613D195EA0C0F05D1D6
:1007700052EA03361CBF104619460AD181EA03012A
:1007800001F0004141F0FE4141F470014FF00000E2
:1007900070BD41F0FE4141F4780170BD70B54FF07D
:1007A000FF0C4CF4E06C1CEA11541DBF1CEA1355FD
:1007B00094EA0C0F95EA0C0F00F0A7F8A4EB0504DF
:1007C00081EA030E52EA03354FEA013100F08880D6
:1007D0004FEA03334FF0805545EA131343EA12639F
:1007E0004FEA022245EA111545EA10654FEA002654
:1007F0000EF000419D4208BF964244F1FD0404F50D
:10080000407402D25B084FEA3202B61A65EB030568
:100810005B084FEA32024FF480104FF4002CB6EB25
:10082000020E75EB030E22BFB61A754640EA0C00A5
:100830005B084FEA3202B6EB020E75EB030E22BFE5
:10084000B61A754640EA5C005B084FEA3202B6EB26
:10085000020E75EB030E22BFB61A754640EA9C00E5
:100860005B084FEA3202B6EB020E75EB030E22BFB5
:10087000B61A754640EADC0055EA060E18D04FEA73
:10088000051545EA16754FEA06164FEAC30343EA13
:1008900052734FEAC2025FEA1C1CC0D111F4801FE0
:1008A0000BD141EA00014FF000004FF0004CB6E7D9
:1008B00011F4801F04BF01430020B4F1FD0C88BF78
:1008C000BCF5E06F3FF6AFAEB5EB030C04BFB6EB83
:1008D000020C5FEA500C50F1000041EB045170BD76
:1008E0000EF0004E4EEA113114EB5C04C2BFD4EBA3
:1008F0000C0541EA045170BD41F480114FF0000E27
:10090000013C90E645EA060E8DE60CEA135594EAA2
:100910000C0F08BF95EA0C0F3FF43BAF94EA0C0FA5
:100920000AD150EA01347FF434AF95EA0C0F7FF41A
:1009300025AF104619462CE795EA0C0F06D152EA6E
:1009400003353FF4FDAE1046194622E750EA410652
:1009500018BF52EA43067FF4C5AE50EA41047FF463
:100960000DAF52EA43057FF4EBAE12E74FEA4102C6
:1009700012F5001215D211D56FF47873B3EB6252F1
:1009800012D94FEAC12343F0004343EA505311F018
:10099000004F23FA02F018BF404270474FF00000AA
:1009A000704750EA013005D111F0004008BF6FF0E8
:1009B000004070474FF00000704700BF000000008B
:1009C00001F0FF01102A2BDB10F0070F08D010F800
:1009D000013B013A8B422DD010F0070F42B3F6D104
:1009E000F0B441EA012141EA014122F007047FF01D
:1009F00000070023F0E80256083C85EA010586EA74
:100A0000010685FA47F5A3FA87F586FA47F6A5FAAF
:100A100087F68EB9EED1F0BC01F0FF0102F00702BB
:100A200032B110F8013B013A83EA010313B1F8D166
:100A30000020704701387047002D06BF3546033847
:100A4000073815F0010F07D1013015F4807F02BF80
:100A5000013015F4C03F0130F0BC0138704700BFD1
:100A600010B504460E4B18784FF47A73B3FBF0F3CD
:100A70000C4A1068B0FBF3F000F0A0F868B90F2C36
:100A800001D901200AE0002221464FF0FF3000F09A
:100A900055F8034B5C60002000E0012010BD00BF52
:100AA000000000200C00002008B5074A136843F03E
:100AB00010031360032000F02FF80020FFF7D0FF91
:100AC00002F0A0FF002008BD00200240034A116888
:100AD000034B1B780B441360704700BFDC00002001
:100AE00000000020014B1868704700BFDC000020A8
:100AF00038B50446FFF7F6FF0546B4F1FF3F02D0D4
:100B0000044B1B781C44FFF7EDFF401BA042FAD3B7
:100B100038BD00BF00000020074AD36823F4E0631B
:100B20001B041B0C000200F4E060184340F0BF609F
:100B300040F40030D060704700ED00E030B4174B57
:100B4000DB68C3F30223C3F10704042C28BF042489
:100B50001D1D062D18D9033B4FF0FF3505FA04F48F
:100B600021EA0401994005FA03F322EA0303194339
:100B700000280BDB0901C9B200F1604000F56140BB
:100B800080F8001330BC70470023E5E700F00F0049
:100B90000901C9B2024B1954F4E700BF00ED00E0AF
:100BA00014ED00E000F01F02400901239340024AC7
:100BB00042F82030704700BF00E100E00138B0F19A
:100BC000807F0AD2064B5860064AF02182F8231033
:100BD0000020986007221A6070470120704700BF0C
:100BE00010E000E000ED00E0F0B482B0002336E059
:100BF000042400E00024B4403C4302355B4E46F838
:100C000025405B4C2568D44304EA05064F6817F479
:100C1000803F01D042EA0506554D2E606D6804EA1A
:100C200005064F6817F4003F01D042EA0506504D13
:100C30006E60AD6804EA05064F6817F4801F01D0A6
:100C400042EA05064A4DAE60ED682C404E6816F447
:100C5000001F01D042EA0504454AD46001330A6806
:100C600032FA03F47ED001249C402240F6D04D6835
:100C7000022D01D0122D10D1DE08083650F826C002
:100C800003F00705AF000F25BD402CEA050C0D69E8
:100C9000BD4045EA0C0540F8265006685F00032574
:100CA000BD40ED4305EA060C4E6806F00306BE4063
:100CB00046EA0C0606604E6806F1FF3CBCF1010FE7
:100CC00003D9112E01D0122E10D1866805EA060C28
:100CD000CE68BE4046EA0C068660466826EA0404F2
:100CE0004E68C6F300169E4026434660C468254001
:100CF0008C68BC402C43C4604C6814F0805FADD05D
:100D00001C4CA56945F00105A561A46904F0010426
:100D10000194019C9D08AE1C144C54F8267003F0FD
:100D20000304A6000F24B44027EA0407B0F1904F53
:100D30003FF460AF104CA0420ED004F58064A04296
:100D40000CD004F58064A0420AD004F58064A0426F
:100D50003FF44EAF05244EE701244CE702244AE756
:100D6000032448E702B0F0BC704700BF0000014018
:100D70000004014000100240000400480AB98162EA
:100D80007047816170470000002800F0F58270B55F
:100D900082B00446036813F0010F3BD0B54B5B688B
:100DA00003F00C03042B1ED0B24B5B6803F00C0362
:100DB000082B13D06368B3F5803F68D0002B40F058
:100DC000928003F1804303F504331A6822F48032E1
:100DD0001A601A6822F480221A605DE0A54B5B68F5
:100DE00013F4803FE6D04FF4003393FAA3F3A14B02
:100DF00019684FF4003393FAA3F3B3FA83F303F0C3
:100E00001F03012202FA03F30B4203D06368002B95
:100E100000F0B482236813F0020F00F0C680954BF7
:100E20005B6813F00C0F00F09C80924B5B6803F042
:100E30000C03082B00F08F802369002B00F0F38057
:100E4000012292FAA2F3B3FA83F303F1845303F578
:100E500084139B001A60FFF745FE0546022393FAB0
:100E6000A3F3844B1968022393FAA3F3B3FA83F331
:100E700003F01F03012202FA03F30B4240F0C48087
:100E8000FFF730FE401B0228E8D9032083E2794AAD
:100E9000136843F480331360764AD36A23F00F0358
:100EA000A1680B43D3626368002B36D0FFF71AFEAC
:100EB00005464FF4003393FAA3F36E4B19684FF4D1
:100EC000003393FAA3F3B3FA83F303F01F03012271
:100ED00002FA03F30B429DD1FFF704FE401B642886
:100EE000E7D9032057E2B3F5A02F09D0614B1A6868
:100EF00022F480321A601A6822F480221A60CBE74A
:100F000003F18043A3F53C331A6842F480221A604F
:100F10001A6842F480321A60BEE7FFF7E3FD054627
:100F20004FF4003393FAA3F3524B19684FF4003394
:100F300093FAA3F3B3FA83F303F01F03012202FA37
:100F400003F30B423FF466AFFFF7CCFD401B642870
:100F5000E6D903201FE2474B5B6813F4803F7FF420
:100F60006BAF022393FAA3F3424B1968022393FA5F
:100F7000A3F3B3FA83F303F01F03012202FA03F38E
:100F80000B4204D02369934201D0012003E2394887
:100F9000036823F0F8036169F82292FAA2F2B2FA28
:100FA00082F201FA02F213430360236813F0080F80
:100FB00000F08C80A369002B60D0012191FAA1F28E
:100FC000B2FA82F22C4B13449B001960FFF78AFDA2
:100FD0000546022393FAA3F293FAA3F293FAA3F23B
:100FE000244A516A93FAA3F3B3FA83F303F01F037D
:100FF000012202FA03F30B4268D1FFF773FD401B95
:101000000228E6D90320C6E11A48036823F0F80352
:101010006169F82292FAA2F2B2FA82F201FA02F2BD
:1010200013430360C1E7012393FAA3F3B3FA83F3F5
:1010300003F1845303F584139B0000221A60FFF729
:1010400051FD0546022393FAA3F30A4B19680223C4
:1010500093FAA3F3B3FA83F303F01F03012202FA16
:1010600003F30B42A1D0FFF73DFD401B0228E9D955
:10107000032090E10010024020819010012292FA9A
:10108000A2F2B2FA82F2C04B13449B0000221A6013
:10109000FFF728FD0546022393FAA3F293FAA3F281
:1010A00093FAA3F2B94A516A93FAA3F3B3FA83F31A
:1010B00003F01F03012202FA03F30B4206D0FFF7ED
:1010C00011FD401B0228E6D9032064E1236813F0D8
:1010D000040F00F0B380AD4BDB6913F0805F20D1CB
:1010E000AA4BDA6942F08052DA61DB6903F080537F
:1010F0000193019B0125A64B1B6813F4807F12D03E
:10110000E368012B23D073BB03F1804303F5043361
:101110001A6A22F001021A621A6A22F004021A62A2
:101120001AE00025E7E79A4A136843F480731360D6
:10113000FFF7D8FC0646964B1B6813F4807FDFD17F
:10114000FFF7D0FC801B6428F5D9032023E18F4AE8
:10115000136A43F001031362E368002B41D0FFF7E9
:10116000C1FC06462BE0052B09D0884B1A6A22F0F9
:1011700001021A621A6A22F004021A62ECE7834B37
:101180001A6A42F004021A621A6A42F001021A62F2
:10119000E2E77E4B196A022393FAA3F3B3FA83F3CF
:1011A00003F01F03012202FA03F3194245D1FFF7AE
:1011B00099FC801B41F28833984200F2E1800223BF
:1011C00093FAA3F293FAA3F3B3FA83F35B0943F020
:1011D0000203022BDDD0022393FAA3F36B4B596A6F
:1011E000D9E7FFF77FFC064615E0684B196A022332
:1011F00093FAA3F3B3FA83F303F01F03012202FA75
:1012000003F3194219D0FFF76DFC801B41F28833BC
:10121000984200F2B780022393FAA3F293FAA3F361
:10122000B3FA83F35B0943F00203022BDDD0022300
:1012300093FAA3F3554B596AD9E7B5BBE369002B81
:1012400000F0A880514A526802F00C02082A00F00F
:10125000A480022B2FD04FF0807393FAA3F3B3FA3C
:1012600083F303F1845303F584139B0000221A6077
:10127000FFF738FC04464FF0007393FAA3F3434B97
:1012800019684FF0007393FAA3F3B3FA83F303F0F2
:101290001F03012202FA03F319426BD0FFF722FC6D
:1012A000001B0228E7D9032075E0384AD36923F0F0
:1012B0008053D361C2E74FF0807393FAA3F3B3FA7C
:1012C00083F303F1845303F584139B0000221A6017
:1012D000FFF708FC05464FF0007393FAA3F32B4B7E
:1012E00019684FF0007393FAA3F3B3FA83F303F092
:1012F0001F03012202FA03F3194206D0FFF7F2FBA3
:10130000401B0228E7D9032045E020494B6823F41D
:101310007413626A206A024313434B604FF0807378
:1013200093FAA3F3B3FA83F303F1845303F584131D
:101330009B0001221A60FFF7D5FB04464FF00073B3
:1013400093FAA3F3114B19684FF0007393FAA3F3C8
:10135000B3FA83F303F01F03012202FA03F31942E5
:1013600006D1FFF7BFFB001B0228E7D9032012E0DC
:10137000002010E000200EE00120704701200AE06C
:10138000032008E0032006E02081901000100240B6
:1013900000700040002002B070BD0120FBE700BFDC
:1013A00010B4174B5C6804F00C03082B26D104F42E
:1013B00070124FF4701393FAA3F3B3FA83F322FA83
:1013C00003F31049C85C0E4BDB6A03F00F030F22D6
:1013D00092FAA2F2B2FA82F2D3400B441A7C14F4CD
:1013E000803F05D1084B03FB00F05DF8044B7047CC
:1013F000064BB3FBF2F300FB03F0F6E70348F4E718
:1014000000100240C04F000800093D0000127A00A1
:10141000002800F0C08070B50446614B1B6803F0E3
:1014200007038B420CD25E4A136823F007030B4379
:101430001360136803F007038B4201D0012070BDD5
:10144000236813F0020F06D0564A536823F0F003C6
:10145000A068034353600D46236813F0010F5AD070
:101460006368012B2DD0022B40D0022292FAA2F207
:101470004C4A1068022292FAA2F2B2FA82F202F008
:101480001F02012101FA02F2104200F08680454954
:101490004A6822F0030213434B60FFF723FB064622
:1014A000404B5B6803F00C036268B3EB820F32D0F1
:1014B000FFF718FB801B41F288339842F0D90320D4
:1014C000BDE74FF4003292FAA2F2364A10684FF4A8
:1014D000003292FAA2F2B2FA82F202F01F02012165
:1014E00001FA02F20242D2D10120A8E74FF00072C5
:1014F00092FAA2F22B4A10684FF0007292FAA2F20E
:10150000B2FA82F202F01F02012101FA02F2104245
:10151000BDD1012093E7224B1B6803F00703AB42C8
:101520000CD91F4A136823F007032B431360136879
:1015300003F00703AB4201D0012080E7236813F0DA
:10154000040F06D0174A536823F4E063E1680B43A5
:101550005360236813F0080F07D0124A536823F42E
:101560006053216943EAC1035360FFF719FF0D4B34
:101570005B6803F0F003F02292FAA2F2B2FA82F270
:10158000D340094AD35CD840084B18600020FFF7CD
:1015900067FA002053E70120704701204FE700BFA2
:1015A000002002400010024020AA02080C00002087
:1015B000F8B505460F4616461C4639E02CB1FFF734
:1015C00091FA069BC01AA04232D32A68536823F0CE
:1015D000E00353606B68B3F5827F0BD0AB6AB3F561
:1015E000005F14D0012385F85D30002385F85C305E
:1015F000032025E0AB68B3F5004F02D0B3F5806F50
:10160000ECD12A68136823F040031360E6E72A68E8
:10161000136823F4005313602A68136843F40053DB
:101620001360DFE70123B34209D0B4F1FF3FC5D116
:101630002B689B6837EA0303F4D00023F3E700200C
:10164000F8BDF0B583B007460C4615461E4602E0CD
:10165000B6F1FF3F10D13A6893682340AB423FD0C8
:10166000B4F5C06FF4D1002DF2D1137BDBB28DF84D
:1016700007309DF80730EBE72EB1FFF733FA089BF0
:10168000C01AB042E7D33A68536823F0E0035360CE
:101690007B68B3F5827F0BD0BB6AB3F5005F14D0D3
:1016A000012387F85D30002387F85C30032018E0C1
:1016B000BB68B3F5004F02D0B3F5806FECD13A6848
:1016C000136823F040031360E6E73A68136823F4D5
:1016D000005313603A68136843F400531360DFE764
:1016E000002003B0F0BD70B582B004460D4616462A
:1016F00000920B4600224FF4C051FFF7A2FFB8B989
:1017000000962B46002280212046FFF751FFB8B9F2
:1017100000962B4600224FF4C0612046FFF791FF50
:10172000034650B1236E43F020032366032304E0F5
:10173000236E43F0200323660323184602B070BDD6
:10174000236E43F0200323660323F6E770B582B0CF
:1017500004460D4616464368B3F5827F0FD00096C7
:101760002B46002280212046FFF722FF034698B92E
:101770006268B2F5827F15D0184602B070BD8368EA
:10178000B3F5004F02D0B3F5806FE8D1226813683B
:1017900023F040031360E2E7236E43F02003236647
:1017A0000323E9E7A268B2F5004F02D0B2F5806FDB
:1017B000E2D100962B4600224FF4C0612046FFF78D
:1017C00040FF03460028D7D0236E43F02003236652
:1017D0000323D1E7002858D010B5044600238362C4
:1017E00090F85D30002B45D0022384F85D302268EC
:1017F000136823F040031360E368B3F5E06F3ED94C
:101800000022B3F5706F04D0B3F5E06F01D0002172
:10181000A162216B21B9B3F5E06F33D902232363B1
:101820006368A1680B4321690B4361690B43A1699C
:1018300001F400710B43E1690B43216A0B43A06A79
:10184000216803430B60638B03F00403616A0B435D
:10185000616B0B43E1680B43216813434B602268C3
:10186000D36923F40063D36100202066012384F848
:101870005D3010BD80F85C3002F0DCF8B4E74FF466
:101880008052BEE701232363CAE7012070472DE998
:10189000F04182B01E4690F85C30012B00F0D680FB
:1018A00004460D469046012380F85C30FFF71AF994
:1018B000074694F85D30DBB2012B09D002200123EA
:1018C00084F85D30002384F85C3002B0BDE8F0811C
:1018D000002D00F0B180B8F1000F00F0AF800323BD
:1018E00084F85D3000232366A563A4F83C80A4F847
:1018F0003E802364A4F84430A4F846302365E364B2
:10190000A368B3F5004F1BD023681A6812F0400F8C
:1019100003D11A6842F040021A60E368B3F5E06F41
:1019200031D963681BB1E38F9BB2012B13D12368BC
:1019300035F8022BDA60E38F013B9BB2E3870AE0C4
:101940002268136843F480431360DDE7002E77D0EC
:10195000B6F1FF3F10D1E38F9BB2002B57D0236825
:101960009A6812F0020FF1D035F8022BDA60E38F9B
:10197000013B9BB2E387EEE7FFF7B4F8C01BB04230
:10198000E9D303209BE763681BB1E38F9BB2012B74
:1019900022D1E38F9BB2012B08D9236835F8022BA3
:1019A000DA60E38F023B9BB2E38715E023682A7875
:1019B0001A73E38F013B9BB2E38701350CE02A7871
:1019C0001A73E38F013B9BB2E387013504E0002EDD
:1019D00038D0B6F1FF3F13D1E38F9BB2BBB1236880
:1019E0009A6812F0020FF2D0E28F92B2012AE6D981
:1019F00035F8022BDA60E38F023B9BB2E387EBE71B
:101A0000FFF770F8C01BB042E6D3032057E73A4611
:101A100031462046FFF767FE08B120232366A368FE
:101A200033B901932368DA6801929B680193019BA3
:101A3000236E4BB9002042E7012040E701203EE73A
:101A400003203CE703203AE7012038E702203CE787
:101A50002DE9F8439846089D90F85C30012B00F082
:101A60004F8104460F461646012380F85C30FFF78D
:101A700039F8814694F85D30DBB26268012B13D0EF
:101A8000B2F5827F08D00220012384F85D30002364
:101A900084F85C30BDE8F883A268002A40F0268113
:101AA000042B01D00220EFE7002F00F02181002E4F
:101AB00000F02081B8F1000F00F01E8194F85D3035
:101AC000DBB2042B02D0052384F85D3000232366AB
:101AD0002664A4F84680A4F84480A763A4F83E8056
:101AE000A4F83C80E3642365E368B3F5E06F04D8B1
:101AF000B4F846309BB2012B22D92268536823F4F4
:101B00008053536023681A6812F0400F03D11A689B
:101B100042F040021A60E368B3F5E06F54D963689D
:101B20001BB1E38F9BB2012B07D1236837F8022B3F
:101B3000DA60E38F013B9BB2E3874FF001081CE0C2
:101B40002268536843F480535360DBE7B4F84630AF
:101B50009BB27BB123689A6812F0010F0AD0DB6850
:101B600026F8023BB4F84630013B9BB2A4F846305D
:101B70004FF00108B5F1FF3F1ED1E38F9BB22BB9A7
:101B8000B4F846309BB2002B00F0A480B8F1000FEF
:101B9000DCD0E38F9BB2002BD8D023689A6812F078
:101BA000020FD3D037F8022BDA60E38F013B9BB2F0
:101BB000E3874FF00008C9E7FEF794FFA0EB0900A8
:101BC000A842DAD303205FE763681BB1E38F9BB2BF
:101BD000012B0BD1E38F9BB2012B0AD9236837F875
:101BE000022BDA60E38F023B9BB2E3874FF00108E0
:101BF00032E023683A781A73E38F013B9BB2E387A4
:101C00000137F3E73A781A73E38F013B9BB2E3871E
:101C100001374FF00008B4F846309BB2CBB12368CF
:101C20009A6812F0010F14D0B4F8462092B2012A3B
:101C30003CD9DB6826F8023BB4F84630023B9BB245
:101C4000A4F84630B4F846309BB2012B26D94FF0A9
:101C50000108B5F1FF3F35D1E38F9BB223B9B4F84A
:101C600046309BB2002B35D0B8F1000FD3D0E38FB4
:101C70009BB2002BCFD023689A6812F0020FCAD013
:101C8000E28F92B2012ABDD937F8022BDA60E38FD6
:101C9000023B9BB2E3874FF00008BCE72268536821
:101CA00043F4805353604FF00108D2E71B7B33703D
:101CB000B4F84630013B9BB2A4F8463001364FF0F1
:101CC0000108C6E7FEF70EFFA0EB0900A842C3D348
:101CD0000320D9E64A4629462046FFF704FD08B10D
:101CE00020232366236E4BB90020CDE60220CBE6ED
:101CF0000120C9E60120C7E60120C5E60120C3E6B0
:101D00000220C7E62DE9F04182B004460D46174691
:101D10001E464368B3F5827F19D094F85C30012BDE
:101D200000F0B280012384F85C30FEF7DBFE8046D1
:101D300094F85D30DBB2012B15D00220012384F82A
:101D40005D30002384F85C3002B0BDE8F081836828
:101D5000002BE2D1042380F85D30009613460A463A
:101D6000FFF776FEF0E7002D00F08480002F00F0F2
:101D70008380042384F85D30002323662564A4F85F
:101D80004470A4F84670A363A387E387E3642365E4
:101D9000E368B3F5E06F16D92268536823F48053E3
:101DA0005360A368B3F5004F13D023681A6812F08C
:101DB000400F03D11A6842F040021A60E368B3F59D
:101DC000E06F11D92FE02268536843F480535360C9
:101DD000E7E72268136823F480431360E5E7002EE9
:101DE0004CD0B6F1FF3F12D1B4F846309BB2ABB342
:101DF00023689A6812F0010FF1D01B7B05F8013BB4
:101E0000B4F84630013B9BB2A4F84630ECE7FEF74D
:101E100069FEA0EB0800B042E6D303208EE77EB354
:101E2000B6F1FF3F12D1B4F846309BB2B3B123688C
:101E30009A6812F0010FF2D0DB6825F8023BB4F883
:101E40004630013B9BB2A4F84630ECE7FEF74AFE71
:101E5000A0EB0800B042E6D303206FE742463146CC
:101E60002046FFF773FC08B120232366236E4BB98D
:101E7000002063E7012061E701205FE703205DE7C1
:101E800003205BE7012059E702205DE790F85D0041
:101E9000704710B4036A046A24F001040462846980
:101EA00024F0F00444EA021223F00A030B43826197
:101EB00003625DF8044B704710B4036A23F010030B
:101EC00003628469036A24F4704444EA023223F012
:101ED000A00343EA0113826103625DF8044B70477B
:101EE000836823F0700341F0070119438160704754
:101EF000022380F83D300268136843F00103136049
:101F0000012380F83D3000207047022380F83D30E7
:101F10000368196A41F21112114208D1196A40F29C
:101F20004442114203D11A6822F001021A600123CF
:101F300080F83D30002070470268D36843F0010309
:101F4000D3600268136843F00103136000207047F8
:101F50007047704770477047704710B50446036874
:101F60001A6912F0020F11D0DA6812F0020F0DD0C8
:101F70006FF002021A610123037703689B6913F073
:101F8000030F79D0FFF7E6FF0023237723681A6950
:101F900012F0040F12D0DA6812F0040F0ED06FF0B6
:101FA00004021A610223237723689B6913F4407F9C
:101FB00068D02046FFF7CEFF0023237723681A69F5
:101FC00012F0080F12D0DA6812F0080F0ED06FF07E
:101FD00008021A61042323772368DB6913F0030FD7
:101FE00057D02046FFF7B6FF0023237723681A69EE
:101FF00012F0100F12D0DA6812F0100F0ED06FF03E
:1020000010021A61082323772368DB6913F4407FE9
:1020100046D02046FFF79EFF0023237723681A69E6
:1020200012F0010F03D0DA6812F0010F3FD12368DC
:102030001A6912F0800F03D0DA6812F0800F3DD1D8
:1020400023681A6912F4807F03D0DA6812F0800FD7
:102050003BD123681A6912F0400F03D0DA6812F0FE
:10206000400F39D123681A6912F0200F03D0DA68C3
:1020700012F0200F37D110BDFFF76BFF2046FFF79E
:102080006AFF81E72046FFF764FF2046FFF763FF02
:1020900092E72046FFF75DFF2046FFF75CFFA3E7CE
:1020A0002046FFF756FF2046FFF755FFB4E76FF0D5
:1020B00001021A612046FFF74BFFB8E76FF080027C
:1020C0001A61204600F051F9BAE76FF480721A6184
:1020D000204600F04BF9BCE76FF040021A61204641
:1020E000FFF73AFFBEE76FF020021A61204600F0CA
:1020F0003BF9C0E703682C4A90420ED0B0F1804F04
:102100000BD0A2F59432904207D002F58062904243
:1021100003D002F59632904203D123F070034A684F
:102120001343214A90421AD0B0F1804F17D0A2F544
:102130009432904213D002F5806290420FD002F5A3
:10214000963290420BD002F54062904207D002F5E1
:102150008062904203D002F58062904203D123F462
:102160004073CA68134323F080034A691343036032
:102170008B68C3620B6883620B4B98420FD003F5E8
:10218000006398420BD003F54063984207D003F5F3
:102190008063984203D003F58063984201D10B69B4
:1021A0000363012343617047002C0140A8B110B5BF
:1021B000044690F83D305BB1022384F83D30211D88
:1021C0002068FFF797FF012384F83D30002010BD01
:1021D00080F83C3001F062FCEEE70120704710B45B
:1021E000846824F47F4442EA03230B43234383603F
:1021F0005DF8044B7047000090F83C30012B00F074
:10220000828010B50446012380F83C30022380F818
:102210003D30026890683D4B034093600B68402B53
:102220005DD010D9702B40D01FD8502B4DD0602BD3
:1022300034D1CA6849682068FFF73EFE60212068F3
:10224000FFF74EFE2AE0102B53D008D9202B55D093
:10225000302B23D130212068FFF742FE1EE0EBB97E
:1022600000212068FFF73CFE18E0B3F5805F0ED038
:10227000B3F5005F12D1CB684A6889682068FFF720
:10228000AEFF2268936843F48043936006E02268BF
:10229000936823F4803323F007039360012384F8C9
:1022A0003D30002084F83C0010BDCB684A68896846
:1022B0002068FFF794FF2268936823F4803323F0AB
:1022C000770343F077039360E8E7CA6849682068BA
:1022D000FFF7DFFD50212068FFF702FEDEE7CA6846
:1022E00049682068FFF7D5FD40212068FFF7F8FD19
:1022F000D4E710212068FFF7F3FDCFE72021206805
:10230000FFF7EEFDCAE70220704700BF8800FEFF1E
:1023100090F83C30012B22D030B4012380F83C30BF
:102320000268536895680F4CA24203D004F500641C
:10233000A24203D123F470034C68234323F07003BB
:102340000C68234325F080048968214353600368A7
:102350009960002380F83C30184630BC704702205A
:10236000704700BF002C014070477047704700B5B0
:1023700089B000238DF804308DF805308DF80630D3
:102380008DF807308DF800308DF801308DF802306F
:102390008DF803308DF81C308DF81D308DF81E300F
:1023A0008DF81F308DF8183008228DF819208DF81F
:1023B0001A308DF81B308DF814308DF815308DF8EB
:1023C00016308DF817308DF810308DF811308DF8EB
:1023D00012308DF813308DF80C308DF80D308DF8EB
:1023E0000E308DF80F308DF808308DF809208DF8FB
:1023F0000A308DF80B3000F059FD034618B9184625
:1024000009B05DF804FB00F0A1FD03460028F6D0FA
:1024100001AA2321202000F0C5FD6A46272124209F
:1024200000F0C0FD07AA0321002000F0BBFD06AAB2
:102430000721042000F0B6FD05AA0B21082000F0BA
:10244000B1FD04AA1321102000F0ACFD03AA17214E
:10245000142000F0A7FD02AA1B21182000F0A2FD05
:102460000421602000F053FD0121702000F04FFD99
:1024700000212A2000F04BFDD121292000F047FD4A
:102480008121282000F043FD00F078FD034600285C
:10249000B5D00123B3E72DE9F04F89B081468846D6
:1024A00000930792571E5200C2F1010601230693C2
:1024B000059300230193019B9F4260DBBDB205EBB6
:1024C00009039BB2BDF8044004EB080B1FFA8BFB19
:1024D000009A59460293184600F08EFB04EB09035C
:1024E0009BB205EB080A1FFA8AFA009A5146039339
:1024F000184600F081FBA9EB04039AB21346009A38
:1025000051460493184600F077FBA9EB050A1FFA21
:102510008AFA009A5946504600F06EFBA8EB040474
:10252000A4B2DDF800B05A462146504600F064FBE4
:10253000A8EB0505ADB25A462946049800F05CFBAD
:102540005A462946039800F057FB5A4621460298FE
:1025500000F052FB002E0ADD002EACDD013F059B92
:1025600002330593079AA3EB42031E44A3E7019BA2
:1025700001330193069B1E4402330693ECE709B036
:10258000BDE8F08F2DE9F04F85B002900E46009324
:1025900090465200C2F1010303934FF0000ACDF8B8
:1025A00004A057463AE01FFA85FBBCB2A119009A75
:1025B00089B2584600F020FB311B009A89B2584678
:1025C00000F01AFB013509EB0803AB42EBDA029B82
:1025D000DD1B10E01FFA85FB1FFA88F4A119009A91
:1025E00089B2584600F008FB311B009A89B2584660
:1025F00000F002FB013509EB0703AB42EADA0137D1
:10260000019B9A4402330193039A02EB4A03002B85
:1026100004DD08F1FF389244931C0393B84504DBB2
:10262000029B9946A3EB0805CDE705B0BDE8F08F06
:102630002DE9F04706460D4691469A46BDF82070B2
:10264000131A07EE903AF8EEE77AF5EEC07AF1EE5B
:1026500010FA3BD40023AAEB050207EE902AF8EE0D
:10266000E77AF5EEC07AF1EE10FA31D44FF00008B7
:102670008BBBA9EB0604A4B23B4622462946304652
:1026800000F09EFB3B4622465146304600F098FB48
:10269000B8F1000F23D1AAEB05081FFA88F83B46D2
:1026A00042462946304600F0B1FB3B4642462946A9
:1026B000484600F0ABFB14B9B8F1000F04D03A461D
:1026C0005146484600F098FABDE8F0870123C2E77A
:1026D0004FF00108CCE7A6EB0904A4B2CCE7A5EBC8
:1026E0000A081FFA88F8DAE730B583B00C461546B9
:1026F0001946131A002B11DB00220B1B002B0FDBDA
:1027000000237AB92D1AAAB283B1641AA3B2BDF814
:102710001840009400F01EFB03B030BD0122ECE72E
:102720000123EEE7401B82B22846EDE7091B8BB27E
:102730002146ECE72DE9F04385B09946BDF83060BD
:102740001F2801D92038C0B200230BE000EB400461
:102750006500254C2C44E55C04AC1C4404F8085C82
:102760000133DBB2052BF1D98FB21FFA82F8F300E7
:102770009BB206EB46014A0092B2BDF834100091BC
:102780004146384600F0E6FA002526E04A4608EBC6
:102790000401781900F030FA0134E4B2072C1AD899
:1027A00004AB2B4413F8083C234113F0010FF3D082
:1027B000012EEBD015FB06F014FB06F118FA81F19F
:1027C00017FA80F0CDF800903346324689B280B2D5
:1027D00000F0C0FAE0E70135EDB2052D01D8002484
:1027E000DCE705B0BDE8F083E04F00082DE9F043D9
:1027F00083B00446894690461F46BDF82850BDF870
:102800002C600DE00134019600953B464246494656
:10281000FFF790FF05EB4503590049445FFA81F942
:1028200020780028EED103B0BDE8F08370B5FEB08B
:102830000446012908D003293BD002296ED0002983
:1028400000F0A1807EB070BD012000F03DF9F023C2
:102850004FF4A0720021084600F00EF9644D0122E9
:1028600002212846FEF78AFA002208212846FEF7B0
:1028700085FA0026354611E0EA18A15C01AAD15478
:102880000133B3F5FA7FF7D30A234FF4FA7201A9A3
:102890005848FEF7FCFF05F5FA750136B6F5997F45
:1028A00001D80023EDE7012208215148FEF766FA1E
:1028B000C8E7032000F008F9F0234FF4A0720021CC
:1028C000084600F0D9F84A4D012202212846FEF7B9
:1028D00055FA002208212846FEF750FA0026354610
:1028E00011E0EA18A15C01AAD1540133B3F5FA7FD3
:1028F000F7D30A234FF4FA7201A93E48FEF7C7FF47
:1029000005F5FA750136B6F5997F01D80023EDE794
:10291000012208213648FEF731FA93E7022000F041
:10292000D3F84FF4A073F0220021084600F0A4F879
:102930002F4D012202212846FEF720FA002208210D
:102940002846FEF71BFA0026354611E0EA18A15C7E
:1029500001AAD1540133B3F5FA7FF7D30A234FF418
:10296000FA7201A92348FEF792FF05F5FA750136C0
:10297000B6F5997F01D80023EDE7012208211C4814
:10298000FEF7FCF95EE7002000F09EF84FF4A0731C
:10299000F0220021084600F06FF8154D01220221B7
:1029A0002846FEF7EBF9002208212846FEF7E6F953
:1029B0000026354611E0EA18A15C01AAD154013382
:1029C000B3F5FA7FF7D30A234FF4FA7201A9094845
:1029D000FEF75DFF05F5FA750136B6F5997F01D86A
:1029E0000023EDE7012208210148FEF7C7F929E796
:1029F00000080048E000002000B583B002A901F8FB
:102A0000010D01231A460348FEF741FF03B05DF8AC
:102A100004FB00BFE000002038B50546094C002249
:102A200008212046FEF7AAF9002202212046FEF7DF
:102A3000A5F92846FFF7E0FF012208212046FEF70E
:102A40009DF938BD0008004838B50546094C0122FB
:102A500002212046FEF792F9002208212046FEF7C7
:102A60008DF92846FFF7C8FF012208212046FEF70E
:102A700085F938BD00080048F8B507460D461646EA
:102A80001C462A20FFF7C8FF380AFFF7DDFFF8B21F
:102A9000FFF7DAFF300AFFF7D7FFF0B2FFF7D4FFF6
:102AA0002B20FFF7B9FF280AFFF7CEFFE8B2FFF7A8
:102AB000CBFF200AFFF7C8FFE0B2FFF7C5FF2C20CD
:102AC000FFF7AAFFF8BD000010B504463620FFF757
:102AD000A3FF0120FEF70CF8032C0CD8DFE804F06C
:102AE000020C16204820FFF7AFFF124BF0221A808D
:102AF0004FF4A0725A8010BD2820FFF7A5FF0D4BA0
:102B00004FF4A0721A80F0225A80F4E78820FFF771
:102B10009BFF084BF0221A804FF4A0725A80EAE71C
:102B2000E820FFF791FF034B4FF4A0721A80F022C8
:102B30005A80E0E7080000202DE9F84300AF064680
:102B40000D464FEA4108B8F5FA7F01D34FF4FA7504
:102B50001D4C012202212046FEF710F90022082117
:102B60002046FEF70BF9310AEB1D23F00703ADEB0E
:102B7000030D6C46002303E0E1545A1CA6540233B3
:102B8000AB42F9D3B8FBF5F905FB1988B9F1000F91
:102B90000AD0002606E00A23AAB221460B48FEF717
:102BA00076FE01364E45F6D30A231FFA88F22146F7
:102BB0000648FEF76CFE012208210348FEF7DEF806
:102BC000BD46BDE8F88300BF00080048E0000020D3
:102BD00038B50546074C2288638800210846FFF770
:102BE0004BFF2388618801FB03F12846FFF7A4FF10
:102BF00038BD00BF08000020534B1B889BB28342A6
:102C000004D9514B5B889BB28B4200D87047F0B51A
:102C100085B016460D4604464C4F00220221384628
:102C2000FEF7ACF8002208213846FEF7A7F82A2064
:102C3000FFF7E2FE012202213846FEF79FF801224B
:102C400008213846FEF79AF8002208213846FEF798
:102C500095F8230A8DF80C30E3B28DF80D30601C26
:102C600000128DF80E0001338DF80F30384C01231F
:102C7000042203A92046FEF70AFE01220821384655
:102C8000FEF77CF8002202213846FEF777F8002292
:102C900008213846FEF772F82B20FFF7ADFE01221F
:102CA00002213846FEF76AF8012208213846FEF76D
:102CB00065F8002208213846FEF760F82B0A8DF8E7
:102CC0000830EBB28DF80930691C09128DF80A1032
:102CD00001338DF80B300123042202A92046FEF7B0
:102CE000D6FD012208213846FEF748F800220221CD
:102CF0003846FEF743F8002208213846FEF73EF832
:102D00002C20FFF779FE012202213846FEF736F823
:102D1000012208213846FEF731F800220821384602
:102D2000FEF72CF8330A8DF804308DF80560012386
:102D3000022201A92046FEF7AAFD012208213846F9
:102D4000FEF71CF805B0F0BD0800002000080048A0
:102D5000E000002038B51C46184B1B889BB283420C
:102D60002BD91546154B5B889BB28B4225D982180F
:102D7000013A124B1B889BB29A4203DB0F4B1D8812
:102D80002D1AADB20A19013A0C4B5B889BB29A42DC
:102D900003DB0A4B5C88641AA4B22A1892B2631847
:102DA0009BB2013B013A9BB292B2FFF765FE05FB75
:102DB00004F1BDF81000FFF7BFFE38BD0800002089
:102DC00038B51D46104B1B889BB283421BD9144655
:102DD0000D4B5B889BB28B4215D98218013A0A4B86
:102DE0001B889BB29A4203DB074B1C88241AA4B2AF
:102DF000221892B2013A0B4692B2FFF73DFE2146ED
:102E00002846FFF799FE38BD0800002038B51D465A
:102E1000104B1B889BB283421BD914460D4B5B8819
:102E20009BB28B4215D98A18013A0A4B5B889BB238
:102E30009A4203DB074B5C88641AA4B263189BB206
:102E4000013B9BB20246FFF717FE21462846FFF7DB
:102E500073FE38BD0800002000B583B002A901F858
:102E6000010D0A2301220348FEF711FD03B05DF8AE
:102E700004FB00BFE000002008B50A230A46014613
:102E80000148FEF704FD08BDE000002000B583B056
:102E90000A2301220DF107010348FEF733FF9DF8D5
:102EA000070003B05DF804FBE000002010B501222C
:102EB00010214FF09040FDF761FF0A240648FEF70D
:102EC000E5FF012805D0631E13F0FF04F6D10020B2
:102ED00010BD0120FCE700BFE000002010B5044653
:102EE000002210214FF09040FDF748FF0320FFF72C
:102EF000B3FF2046FFF7B0FFFFF7C8FF04460122EB
:102F000010214FF09040FDF739FF204610BD38B535
:102F100005460C46002210214FF09040FDF72EFF91
:102F20000120FDF7E5FD0220FFF796FF2846FFF799
:102F300093FF2046FFF790FF0120FDF7D9FD012206
:102F400010214FF09040FDF719FF38BD10B58021DA
:102F50000F20FFF7DCFF64240E20FFF7BFFF00F017
:102F6000E000802808D00A20FDF7C2FD631E13F0A0
:102F7000FF04F1D1002000E0012010BD10B50021B8
:102F80000F20FFF7C4FF0A240E20FFF7A7FF10F061
:102F9000E00F05D0631E13F0FF04F5D1002010BD33
:102FA0000120FCE770B505460C46164600221021AC
:102FB0004FF09040FDF7E2FE0220FFF74DFF28465C
:102FC000FFF74AFF611BC9B20131C9B23046FFF7B2
:102FD00053FF012210214FF09040FDF7CFFE70BD4E
:102FE0002DE9F0418AB000240594069407940894D2
:102FF0000994384B5A6942F400225A615A6902F422
:1030000000220192019A5A6942F400325A615A69C7
:1030100002F400320292029A5A6942F400125A6192
:103020005A6902F400120392039A5A6942F4801218
:103030005A615B6903F480130493049BDFF8A0805A
:10304000224603214046FDF799FE22461A214FF001
:103050009040FDF793FE204F22464FF47F413846C3
:10306000FDF78CFE1D4E2246FF213046FDF786FE01
:1030700003230593012506950794089405A9404666
:10308000FDF7B2FD05950694079405A94FF0904011
:10309000FDF7AAFD1A23059306950794089405A940
:1030A0004FF09040FDF7A0FD4FF47F430593069548
:1030B0000794089405A93846FDF796FDFF2305936C
:1030C00006950794089405A93046FDF78DFD0AB0D2
:1030D000BDE8F0810010024000100048000C0048DC
:1030E0000008004808B50E480E4B03604FF4827389
:1030F0004360002383604FF4E062C2600361436178
:103100004FF4007282613822C261036243628362BB
:103110000722C262036308234363FEF75BFB08BD1B
:10312000E00000200030014030B589B00024049454
:103130000594069407940194029403940E4D0F4B4A
:103140002B604FF448736B60AC601423EB602C6110
:10315000AC612846FFF72AF84FF48053049304A982
:103160002846FFF749F80194039401A92846FFF780
:10317000CFF809B030BD00BF44010020000400407A
:1031800010B590B02422002107A800F05DFE0024B5
:10319000019402940394049405940223069301235A
:1031A0000A9310230B9306A8FDF7EEFD0F2301935E
:1031B0000294039404940594214601A8FEF728F98B
:1031C00010B010BD000000002DE9F0432DED028B82
:1031D00095B0FDF769FCFFF7D3FFFFF701FFFFF79D
:1031E00081FFFFF7A1FFFFF7C2F8A948FEF7A4FE91
:1031F000D5E34FF6FF70FFF7EBFC0020FFF7E8FC8C
:103200000134A4B2092CF4D9A14C2046FEF77DFE6E
:1032100023685A6A164400225A620135012D04D8E7
:103220009B48FEF765FE0024ECE775084FF6FF703B
:10323000FFF7CEFC0320FFF747FC26F0010295497B
:1032400002A800F021FE4FF6FF74019401260096BB
:1032500000230A22114602A8FFF7C8FA07EE905A87
:10326000F8EE677A9FED8C7A87EE878A78EE087A97
:1032700017EE900AFDF710F902460B46874902A89F
:1032800000F0EAFD01940225009500231E220A2188
:1032900002A8FFF7ABFAF3EE047AC7EE887A17EECE
:1032A000900AFDF7F9F88046894602460B467C49AC
:1032B00002A800F0D1FD01940095002332220A21DA
:1032C00002A8FFF793FA0022764B40464946FDF7E5
:1032D0003BF90022744BFDF737F902460B46FCF729
:1032E0007DFF69A3D3E90023FDF758FA804689469C
:1032F00002460B466D4902A800F0AEFD0194009510
:10330000002346220A2102A8FFF770FA0022684B28
:1033100040464946FDF742FA0022664BFDF714F994
:1033200002460B46644902A800F096FD0194009500
:1033300000235A220A2102A8FFF758FA42F210701D
:10334000FDF7D6FB2046FFF743FC0320FFF7BCFB4D
:103350000194009600230A2211465848FFF746FAC6
:103360004FF4FA60FDF7C4FB2046FFF731FC00265E
:1033700067E0324652490AA800F086FD4FF6FF7515
:1033800001950224009400230A2211460AA8FFF79F
:103390002DFA019500941F231E220A210AA8FFF787
:1033A00025FA019500944FF4784332220A210AA8A5
:1033B000FFF71CFA019500944FF4FC6346220A21A2
:1033C0000AA8FFF713FA0195009400235A220A2154
:1033D0000AA8FFF70BFA019500941F236E220A2119
:1033E0000AA8FFF703FA019500944FF4784382226C
:1033F0000A210AA8FFF7FAF9019500944FF4FC633B
:1034000096220A210AA8FFF7F1F9002701970094F4
:103410002B46AA220A210AA8FFF7E8F9019700948F
:103420001F23BE220A210AA8FFF7E0F901970094A2
:103430004FF47843D2220A210AA8FFF7D7F90136C0
:10344000B6B20A2E95D94FF47A70FDF751FB4FF6BC
:10345000FF70FFF7BDFB0320FFF736FB4FF6FF744D
:1034600001940123009300230A2211461548FFF717
:10347000BDF94FF4FA60FDF73BFB2046FFF7A8FBD0
:10348000002433E0AFF300800000000080842E4170
:103490004401002054AA020800409C466CAA02087D
:1034A0007CAA020800006E400000744088AA02084E
:1034B000000019400000594094AA0208A8AA020876
:1034C000CCAA0208DCAA02082246CD490AA800F0CC
:1034D000DBFC4FF6FF7301930323009300230A22C2
:1034E00011460AA8FFF782F90134A4B2642CEBD983
:1034F0004FF47A70FDF7FCFA4FF6FF70FFF768FBA8
:103500000320FFF7E1FA4FF6FF75019501260096BB
:1035100000230A221146BB48FFF768F94FF4FA600E
:10352000FDF7E6FA2846FFF753FB002400946423D6
:103530001A4632210846FFF77BF8009432231A46D8
:1035400014210846FFF7D0F8009413231A460A21E5
:103550000846FFF76DF84FF47A70FDF7C9FA284670
:10356000FFF736FB0320FFF7AFFA019500962346DD
:103570000A221146A448FFF739F90195009623461F
:1035800014220A21A148FFF731F94FF4FA60FDF740
:10359000AFFA2846FFF71CFB0EE07B23102240F217
:1035A00021111C20FFF70CFC7B23102240F221117B
:1035B0001C20FFF72BFC013447F22F539C42ECD91F
:1035C0004FF47A70FDF794FA4FF6FF70FFF700FBA7
:1035D0000320FFF779FA4FF6FF7401940125009557
:1035E00000230A2211468848FFF700F9019400954C
:1035F000002314220A218648FFF7F8F84FF4FA60F6
:10360000FDF776FA2046FFF7E3FA002408E04FF4CE
:10361000E56308224FF498711C20FEF73CFF01344B
:1036200040F6B7339C42F2D94FF47A70FDF760FA56
:103630004FF6FF70FFF7CCFA0320FFF745FA4FF67D
:10364000FF7401940125009500230A2211466E485B
:10365000FFF7CCF801940095002314220A216D484D
:10366000FFF7C4F84FF4FA60FDF742FA2046FFF77F
:10367000AFFA002408E04FF4E56302224FF498719A
:103680001C20FEF77FFF0134B4F57A7FF3D34FF4AB
:103690007A70FDF72DFA4FF6FF70FFF799FA0320C5
:1036A000FFF712FA4FF6FF740194012500950023ED
:1036B0000A2211465448FFF799F801940095002317
:1036C00014220A215448FFF791F84FF4FA60FDF7ED
:1036D0000FFA2046FFF77CFA00240BE04FF4E56375
:1036E00000934FF49A7320224FF498711C20FEF738
:1036F0009FFF013444F61F639C42EFD94FF47A7068
:10370000FDF7F6F94FF6FF70FFF762FA0320FFF7B7
:10371000DBF94FF6FF7401940125009500230A227E
:1037200011463948FFF762F80194009500231422EE
:103730000A213A48FFF75AF84FF4FA60FDF7D8F932
:103740002046FFF745FA00240AE04FF4E5630093B2
:1037500004231A464FF498711C20FFF7FBFA01343A
:1037600044F61F639C42F0D94FF47A70FDF7C0F91C
:103770004FF6FF70FFF72CFA0320FFF7A5F94FF67D
:10378000FF7401940125009500230A221146244864
:10379000FFF72CF801940095002314220A212148F8
:1037A000FFF724F84FF4FA60FDF7A2F92046FFF77F
:1037B0000FFA1D4B00221A805A8018E01A4A13880B
:1037C00001331380184B1888B0F5A07F09D25988AF
:1037D000EF2906D810F0010FF0D00022FFF70CFA05
:1037E000ECE7114B5A8801325A8000221A800E4BA6
:1037F0005B88EF2BE6D90C4B00221A805A802EE012
:10380000CCAA0208F4AA020810AB02082CAB0208EA
:103810004CAB020854AB020864AB020870AB020860
:1038200084AB02089CAB0208900000206A4A13880F
:1038300001331380684B1888B0F5A07F09D25988EE
:10384000EF2906D811F0010FF0D00022FFF7D4F9CC
:10385000ECE7614B5A8801325A8000221A805E4B95
:103860005B88EF2BE6D94FF4FA60FDF741F94FF68C
:10387000FF70FFF7ADF90320FFF726F94FF6FF744D
:1038800001940125009500230A2211465348FEF7B2
:10389000ADFF01940095002314220A215048FEF741
:1038A000A5FF4FF4FA60FDF723F92046FFF790F9E2
:1038B000002406E0E4224FF498711C20FFF79CF9E5
:1038C0000134484B9C42F5D94FF4FA60FDF710F9EA
:1038D0004FF6FF70FFF77CF90320FFF7F5F84FF67E
:1038E000FF7501950124009400230A2211463E48E9
:1038F000FEF77CFF01950094002314220A213B4827
:10390000FEF774FF4FF4FA60FDF7F2F8002416E0BA
:10391000374AA2FB0432D108CB029BB29208520173
:1039200092B213449BB20B449BB22B4A1188009372
:10393000F02301222046FFF70DFA0134A4B2B4F5BA
:10394000A07FE5D94FF4FA60FDF7D2F84FF6FF708B
:10395000FFF73EF90320FFF7B7F84FF6FF75019523
:103960000124009400230A2211462248FEF73EFF5C
:1039700001950094002314220A211F48FEF736FF08
:103980004FF4FA60FDF7B4F802211C48FEF74EFF31
:103990000020FFF799F842F21070FDF7A9F84FF6F2
:1039A000FF70FFF715F90320FFF78EF84FF6FF744D
:1039B00001940123009300230A2211461048FEF7C8
:1039C00015FF4FF4FA60FDF793F82046FFF700F972
:1039D00000252E4622E400BF90000020B4AB020870
:1039E000D0AB02081FA10700E0AB0208F0AB020851
:1039F000CDCCCCCCFCAB020808AC020820520008AD
:103A000038AA020882B00A4B9A6942F001029A6110
:103A10009A6902F001020092009ADA6942F080523B
:103A2000DA61DB6903F080530193019B02B07047B8
:103A30000010024000B589B000230393049305935E
:103A4000069307930268144B9A4202D009B05DF8BE
:103A500004FB03F560439A6942F480529A619A69C3
:103A600002F480520192019A5A6942F400325A617A
:103A70005B6903F400330293029BE0230393022368
:103A80000493032306930523079303A94FF0904063
:103A9000FDF7AAF8DAE700BF0030014002680E4BDC
:103AA0009A4200D0704700B583B003F50333DA695A
:103AB00042F00202DA61DB6903F002030193019B29
:103AC000002211461D20FDF739F81D20FDF76AF888
:103AD00003B05DF804FB00BF000400407047FEE740
:103AE000FEE7FEE7FEE770477047704708B5FCF752
:103AF000EDFF08BD08B50348FEF72FFA00F040F9C6
:103B000008BD00BF4401002070B50D4616460024D4
:103B100004E0AFF30080287001340135B442F8DBD3
:103B2000304670BD70B51646002405E04D1C08787F
:103B3000AFF3008001342946B442F7DB304670BD54
:103B400008B503460B4A126842B10A4A106803449A
:103B50006A46934206D8074A136008BD054A0649DB
:103B60001160F2E700F046F90C2303604FF0FF30DC
:103B7000F3E700BF94000020880100204FF0FF30E1
:103B800070474FF400534B6000207047012070478E
:103B9000002070471549D1F8883043F47003C1F80C
:103BA0008830134B1A6842F001021A605868114AB3
:103BB00002405A601A6822F0847222F480321A603D
:103BC0001A6822F480221A605A6822F4FE025A60AF
:103BD000DA6A22F00F02DA62186B074A02401A63AF
:103BE00000229A604FF000638B60704700ED00E0A8
:103BF000001002400CC07FF8CCFC00FF10B504465A
:103C0000002280F824200023436102828361FCF7B4
:103C100069FFA06201232380022363800423A38021
:103C20000823E38010232381202363814023A38181
:103C30008023E381204610BD012800D0704708B5DD
:103C40004FF6FF73994200D008BD0248FFF7D6FF38
:103C5000FAE700BF9C00002030EE600A32EE612AD5
:103C600020EE022A31EE601A82EE010A30EE210ABD
:103C70007047000010B50446037F00EE103ADFEDF8
:103C8000090A9FED092AF0EE601A9FED081AB8EEB6
:103C9000400AFFF7E1FFBDEEC00AB8EEC00A84EDAE
:103CA000060A10BD0000000000009B4300007A439C
:103CB00038B5044690F824300A2B40D094ED067AAB
:103CC000D4ED057A77EE677A17EE900AFCF7E4FBFD
:103CD00002460B46FCF782FAFCF748FE051E31DB74
:103CE000012211462448FDF749F8002D42D007EE85
:103CF000905AB8EEE77AF7EE006AC6EE877AFDEEE4
:103D0000E77A17EE903A4FF47A7202FB03F302332C
:103D10001A4A516B91FBF3F203FB12130BBB012206
:103D200002211548FDF72AF8002D11DDD4ED057AA2
:103D3000B6EE007A77EE877AC4ED057A16E0FFF7E3
:103D400099FFBBE7002201210B48FDF717F8CCE7EC
:103D5000D4ED057AB6EE007A77EEC77AC4ED057A2F
:103D600004E0002202210448FDF708F8034A536BDF
:103D70000133536338BD00BF000800489C00002099
:103D800008B50248FFF794FF08BD00BF9C00002063
:103D900008B54FF6FF710120FFF74EFF08BD000088
:103DA000DFF834D0002103E00C4B5B584350043162
:103DB0000B480C4B42189A42F6D30B4A02E0002300
:103DC00042F8043B094B9A42F9D3FFF7E3FE00F0B7
:103DD00017F8FFF7F9F9FEE700A00020B4AC0208DD
:103DE00000000020740000207400002088010020E2
:103DF000FEE70000014B1868704700BF100000206C
:103E000070B50D4E0D4CA41BA4100025A54209D180
:103E10000B4E0C4C01F0C8F8A41BA4100025A542C1
:103E200005D170BD56F8253098470135EEE756F8B4
:103E3000253098470135F2E7A8AC0208A8AC020883
:103E4000A8AC0208B0AC020802440346934200D179
:103E5000704703F8011BF9E70FB40A4B13B51C6850
:103E600024B1A36913B9204600F06EF805AB049A9B
:103E7000A1680193204600F0C7FA02B0BDE81040E7
:103E800004B07047100000200EB400B59CB01DAB0C
:103E9000029006906FF0004109480791049109498A
:103EA00053F8042B05910068019302A900F08AF9E8
:103EB000029B00221A701CB05DF804EB03B070473F
:103EC000100000200802FFFF002310B50446C0E9DF
:103ED0000033836081814366C281C0E9043383611A
:103EE000194608225C30FFF7AFFF054B6362054BB4
:103EF000A362054BE362054B2462236310BD00BF40
:103F00006549000887490008BF490008E3490008DF
:103F1000014900F085B800BFBD4C000870B54A1ECD
:103F2000682555430E4605F1740100F097F80446E4
:103F300040B10021C0E900160C30A06005F1680214
:103F4000FFF782FF204670BD836910B5044633BB7E
:103F5000C0E912330365124B124A1B688262984211
:103F600004BF0123836100F01FF86060204600F069
:103F70001BF8A060204600F017F80022E060042142
:103F80006068FFF7A1FF01220921A068FFF79CFFED
:103F900002221221E068FFF797FF0123A36110BD01
:103FA00010AC0208113F0008F8B51B4B1E68B3693E
:103FB000074613B93046FFF7C7FF4836D6E9013444
:103FC000013B03D5336833B13668F7E7B4F90C50D9
:103FD0006DB16834F4E704213846FFF79FFF306085
:103FE0000028F1D10C233B6004462046F8BD0B4B62
:103FF0006566C4E90055A560C4E90335C4E9055503
:104000000822294604F15C00FFF71EFFC4E90D55A4
:10401000C4E91255E9E700BF10AC02080100FFFF38
:104020002DE9F8438046894600F14804002614B97A
:104030003046BDE8F883D4E90175013F01D5246815
:10404000F5E7AB89012B07D9B5F90E30013303D061
:1040500029464046C84706436835EEE770B5CD1C93
:1040600025F0030508350C2D38BF0C25002D06461C
:1040700001DBA94203D90C233360002070BD00F09E
:10408000E1FE214A1468214691B9204C23681BB9EE
:10409000304600F057FC20602946304600F052FCC4
:1040A000431C24D10C233360304600F0CCFEE4E7FF
:1040B0000B685B1B18D40B2B0FD90B60CD50CC18A1
:1040C000304600F0C0FE04F10B00231D20F0070075
:1040D000C31AD3D05A42E250D0E78C424B6816BF85
:1040E000636013600C46EBE70C464968CCE7C41CE0
:1040F00024F00304A04205D0211A304600F022FC2F
:104100000130CFD02560DBE7D4000020D8000020AC
:104110002DE9F0478E689E4282460C4690469946AD
:1041200037D88A8912F4906F31D0256809696F1ADF
:104130006569022305EB450595FBF3F509F10103DC
:104140003B449D4238BF1D46530530D52946FFF7F5
:1041500085FF064650B90C23CAF80030A38943F006
:104160004003A3814FF0FF30BDE8F0873A46216954
:1041700000F044FEA38923F4906343F08003A381FD
:10418000266165613E44ED1B2660A5604E464E45A6
:1041900000D94E4632464146206800F03AFEA368F8
:1041A0009B1BA36023681E4426600020DCE72A4690
:1041B00000F098FE06460028E2D12169504600F042
:1041C00043FEC8E72DE9F04F1D468B891F069DB0C1
:1041D00080460C4616460FD50B696BB94021FFF798
:1041E0003DFF2060206128B90C23C8F800304FF053
:1041F000FF30C8E0402363610023099320238DF83A
:10420000293030238DF82A3003954FF0010B3746C3
:104210003D4615F8013B0BB1252B3ED1B7EB060A05
:104220000BD05346324621464046FFF771FF01301E
:1042300000F0A480099B534409933B78002B00F0C5
:104240009D8000234FF0FF32CDE9052304930793AF
:104250008DF853301A932F46052217F8011B50484A
:10426000FCF7AEFB049BD0B9D90644BF20228DF8E1
:1042700053201A0744BF2B228DF853202A782A2A6C
:1042800015D0079A2F4600200A25394611F8013B20
:10429000303B092B4DD9B8B10FE02F46B8E7404A63
:1042A000801A0BFA00F0184304903D46D3E7039AB6
:1042B000111D12680391002A01DB079204E05242AB
:1042C00043F00203079204933B782E2B0CD17B78AA
:1042D0002A2B33D1039B1A1D1B680392002BB8BFF6
:1042E0004FF0FF33023705932E4D397803222846CD
:1042F000FCF766FB38B14023401B03FA00F0049B37
:10430000034301370493397827488DF82810062293
:104310007E1CFCF755FB002838D0244B13BB039BB5
:10432000073323F0070308330393099B4B44099396
:104330006DE705FB023201200F46A6E70023013797
:10434000059319460A25384610F8012B303A092AF8
:1043500003D9002BC8D00591C6E705FB0121012335
:104360000746F0E703AB00932246114B04A94046F1
:10437000AFF30080B0F1FF3F8146D6D1A3895B0641
:104380003FF535AF09981DB0BDE8F08F03AB009342
:104390002246074B04A9404600F0C2F9EAE700BFF5
:1043A00074AC02087AAC02087EAC0208000000007F
:1043B000114100089368013B002B10B4936008DAA8
:1043C0009469A34201DB0A2903D15DF8044B00F094
:1043D0000DBB1368581C1060197008465DF8044B3B
:1043E0007047F8B506460F461446D518AC4201D1C1
:1043F000002007E03A4614F8011B3046FFF7DAFFC9
:10440000431CF3D1F8BD00002DE9F04F0C469DB0E0
:1044100017461D46064618B183690BB9FFF794FD90
:104420007C4B9C4258D17468A38918075ED52369D8
:10443000002B5BD00023099320238DF829303023F3
:104440008DF82A3003954FF0010BB846454615F814
:10445000013B0BB1252B54D1B8EB070A0BD05346C7
:104460003A4621463046FFF7BCFF013000F0C280DB
:10447000099B5344099398F80030002B00F0BA8050
:1044800000234FF0FF32CDE90523049307938DF805
:1044900053301A93A846052218F8011B5E48FCF712
:1044A0008FFA049B78BBD90644BF20228DF8532095
:1044B0001A0744BF2B228DF853202A782A2A2AD0A3
:1044C000079AA84600200A25414611F8013B303BD7
:1044D000092B69D960B324E0504B9C4201D1B468E8
:1044E000A2E74F4B9C4208BFF4689DE72146304647
:1044F00000F0E0FA00289DD04FF0FF301DB0BDE87D
:10450000F08FA846A2E7444A801A0BFA00F018433D
:1045100004904546BEE7039A111D12680391002AD4
:1045200001DB079204E0524243F002030792049336
:1045300098F800302E2B0ED198F801302A2B38D164
:10454000039B1A1D1B680392002BB8BF4FF0FF336B
:1045500008F102080593334D98F80010032228460D
:10456000FCF72EFA40B14023401B03FA00F0049BF5
:10457000034308F10108049398F800102A488DF8C5
:104580002810062208F10107FCF71AFA002837D094
:10459000264B1BBB039B073323F00703083303930E
:1045A000099B4B44099350E705FB023201208846E2
:1045B0008AE7002308F10108059319460A254046B9
:1045C00010F8012B303A092A03D9002BC3D00591EA
:1045D000C1E705FB012101238046F0E703AB00930F
:1045E0002246134B04A93046AFF30080B0F1FF3FE1
:1045F0008146D5D1A3895B063FF57EAF09987DE75B
:1046000003AB009322460A4B04A9304600F088F819
:10461000ECE700BF34AC020874AC020854AC0208EA
:1046200014AC02087AAC02087EAC0208000000005C
:10463000E34300082DE9F04791461F468A680B695D
:10464000DDF820809342B8BF1346C9F8003091F8D6
:10465000432006460C4612B10133C9F800302368E6
:10466000990642BFD9F800300233C9F800302568F6
:1046700015F0060507D104F1190AE368D9F80020FE
:104680009B1AAB4228DC94F843302268003318BFF1
:10469000012392062DD404F1430239463046C04727
:1046A000013020D02368E568D9F8002003F0060324
:1046B000042B08BFAD1AA36822690CBF25EAE57573
:1046C00000259342C4BF9B1AED184FF000091A341D
:1046D0004D451AD1002008E00123524639463046A4
:1046E000C047013003D14FF0FF30BDE8F0870135FE
:1046F000C3E7E1185A1C302081F84300224494F8A3
:10470000451082F843100233C5E70123224639469B
:104710003046C0470130E6D009F10109D8E7000072
:104720002DE9F04301F1430C0C46097E85B06E295A
:104730001746064698460C9A00F0B38022D86329A3
:1047400036D00AD8002900F0B980582900F08380BB
:1047500004F1420584F8421032E0642901D069294D
:10476000F6D120681368050603F104012AD51B68F9
:104770001160002B03DA2D225B4284F843206F483E
:104780000A2239E0732900F09D8008D86F2920D0D3
:104790007029DDD1236843F02003236003E07529ED
:1047A00017D07829D4D1782384F84530644855E06F
:1047B0001368191D1B68116004F1420584F842302A
:1047C00001238CE01B68116010F0400F18BF1BB272
:1047D000CFE713682568181D1060280601D51B68EF
:1047E00002E06806FBD51B8854486F2914BF0A22D3
:1047F0000822002184F843106568A560002DC0F2EE
:104800009580216821F004012160002B3DD1002D0D
:1048100040F08E806546082A0BD12368DB0708D557
:10482000236962689A42DEBF302305F8013C05F136
:10483000FF35ACEB05032361CDF800803B4603AAAE
:1048400021463046FFF7F6FE01304DD14FF0FF30E4
:1048500005B0BDE8F083394884F845101368216835
:104860001D1D1B6815600A060BD5CA0744BF41F021
:10487000200121601BB9226822F020022260102250
:10488000B7E74D0648BF9BB2EFE76546B3FBF2F1D1
:1048900002FB1133C35C05F8013D0B460029F5D13D
:1048A000B9E7136825686169181D106028061B6840
:1048B00001D5196002E06A06FBD519800023236147
:1048C0006546B9E71368191D11601D68626800210B
:1048D0002846FCF775F808B1401B606063682361E7
:1048E000002384F84330A7E723692A463946304637
:1048F000C0470130AAD023689B0713D4E068039B0C
:104900009842B8BF1846A3E701234A4639463046C5
:10491000C04701309AD00135E368039A9B1AAB4235
:10492000F2DCEBE7002504F11909F5E7002BACD127
:10493000037884F8423004F142056CE785AC020844
:1049400096AC020838B5064C00230546084623609D
:10495000FFF7F6F8431C02D1236803B12B6038BD82
:104960008401002010B50C46B1F90E1000F0E0FAF9
:104970000028ABBF636DA3891B1823F48053ACBF21
:104980006365A38110BD2DE9F0411F468B89DB05CE
:1049900005460C46164605D502230022B1F90E1035
:1049A00000F0B6F9A389B4F90E1023F48053A38163
:1049B00032463B462846BDE8F04100F069B810B5E4
:1049C0000C46B1F90E1000F0A3F9431CA38915BFE2
:1049D000606523F4805343F48053A38118BFA381FF
:1049E00010BDB1F90E1000F0D3B80000F8B50E46B6
:1049F0001446054618B183690BB9FFF7A5FA214B98
:104A00009C422AD16C68A369A360A3891A072ED59A
:104A1000236963B323692068C01A6369F6B28342CD
:104A2000374604DC2146284600F048F928BBA36835
:104A3000013BA36023685A1C22601E706369013029
:104A4000834204D0A389DB0719D50A2E17D121464A
:104A5000284600F033F990B10FE00B4B9C4201D196
:104A6000AC68D0E7094B9C4208BFEC68CBE7214615
:104A7000284600F01FF80028CCD04FF0FF3738460A
:104A8000F8BD00BF34AC020854AC020814AC0208F4
:104A900038B5074C054608461146002222601A46E2
:104AA000FFF740F8431C02D1236803B12B6038BDE7
:104AB00084010020324B70B51D6806460C4625B1B6
:104AC000AB6913B92846FFF73FFA2E4B9C420FD132
:104AD0006C68B4F90C309AB215072CD4D00611D4F6
:104AE0000922326043F04003A3814FF0FF303EE0E3
:104AF000254B9C4201D1AC68EBE7244B9C4208BF9C
:104B0000EC68E6E7510712D5616B41B104F144034B
:104B1000994202D0304600F097F900236363A389DD
:104B200023F02403A3810023636023692360A38906
:104B300043F00803A38123694BB9A38903F42073CD
:104B4000B3F5007F03D02146304600F017F9A28963
:104B500012F001030CD00023A36063695B42A361E0
:104B6000236953B9B4F90C3013F08000BAD170BD89
:104B7000920758BF6369A360F2E70020F7E700BF20
:104B80001000002034AC020854AC020814AC020837
:104B900038B5064C0023054608462360FEF7EEFFB5
:104BA000431C02D1236803B12B6038BD840100206F
:104BB0008A892DE9F041054610070C4658D44B6808
:104BC000002B05DC0B6C002B02DC0020BDE8F08123
:104BD000E66A002EF9D0002312F480522F68216A71
:104BE0002B6032D0606DA3895A0705D56368C01A5F
:104BF000636B0BB1236CC01A00230246E66A216A7C
:104C00002846B047431CA38906D129681D2948D8E6
:104C1000294ACA40D60744D500226260D9042269D5
:104C2000226004D5421C01D12B6803B96065616B19
:104C30002F600029C9D004F14403994202D02846CC
:104C400000F002F900206063C0E701232846B04766
:104C5000411CC8D12B68002BC5D01D2B01D0162BB1
:104C600001D12F60B1E7A38943F04003A381ADE7F1
:104C70000F69002FA9D093070E6808BF4B690F601A
:104C800018BF0023A6EB07088B60B8F1000F9CDD6E
:104C900043463A46216AA66A2846B047002806DC01
:104CA000A38943F04003A3814FF0FF308EE7074410
:104CB000A8EB0008E9E700BF0100402038B50B6908
:104CC00005460C46DBB118B183690BB9FFF73CF917
:104CD0000C4B9C4209D16C68B4F90C307BB1214675
:104CE0002846BDE83840FFF763BF074B9C4201D11F
:104CF000AC68F1E7054B9C4208BFEC68ECE700208C
:104D000038BD00BF34AC020854AC020814AC020831
:104D100038B5074C054608461146002222601A465F
:104D2000FEF736FF431C02D1236803B12B6038BD68
:104D30008401002070B50E46B1F90E10002996B01E
:104D400014461D4607DA00232B60B3891A0610D4D7
:104D50004FF480630EE06A4600F0FCF80028F2DBB6
:104D6000019A02F47042A2F500535A425A412A6055
:104D7000EEE740230020236016B070BD8B8973B529
:104D80009D0706460C4607D504F1470323602361BF
:104D90000123636102B070BD01AB6A46FFF7CAFF31
:104DA000009905463046FFF759F948B9B4F90C3077
:104DB0009A05EFD423F0030343F00203A381E3E752
:104DC0000D4BB362A389206043F08003A381009B55
:104DD0006361019B20615BB1B4F90E10304600F0B5
:104DE000CBF828B1A38923F0030343F00103A38187
:104DF000A3891D43A581CDE7113F000810B5431ECF
:104E00000A44914200D110BD11F8014B03F8014F43
:104E1000F7E7884210B501EB020307D8421E99421A
:104E20000AD011F8014B02F8014FF8E78342F5D997
:104E30008118D21AD34200D110BD13F8014D01F8E8
:104E4000014DF7E77047704738B50546002945D052
:104E500051F8043C0C1F002BB8BFE418FFF7F2FF19
:104E60001F4A1368104633B9636014602846BDE8D2
:104E70003840FFF7E8BFA3420CD92168621893427B
:104E800004BF1A685B68636004BF52182260046044
:104E9000ECE713465A680AB1A242FAD919685818C1
:104EA000A0420BD120680144581882421960DDD11C
:104EB000106852685A6001441960D7E702D90C2380
:104EC0002B60D3E7206821188A4204BF116852681A
:104ED000626004BF091821605C60C7E738BD00BF8D
:104EE000D4000020F8B5074614460E4621B91146F5
:104EF000BDE8F840FFF7B2B822B9FFF7A5FF254695
:104F00002846F8BD00F048F8A0420FD221463846A6
:104F1000FFF7A4F805460028F2D031462246FFF7F5
:104F20006DFF31463846FFF78FFFE9E73546E7E783
:104F300038B5074C054608461146002222601A463D
:104F4000FEF7E2FD431C02D1236803B12B6038BD9C
:104F50008401002038B5074C002305460846114659
:104F60002360FEF70EFE431C02D1236803B12B60C1
:104F700038BD00BF8401002038B5064C002305462B
:104F800008462360FEF702FE431C02D1236803B1EA
:104F90002B6038BD8401002051F8043C181F002B01
:104FA000BCBF0B58C0187047F8B500BFF8BC08BCB0
:104FB0009E467047F8B500BFF8BC08BC9E467047D7
:104FC00002030405060708090A0B0C0D0E0F10104A
:104FD0000102030405060708090A0B0C0D0E0F1049
:104FE0000000000000005C00000000000600060059
:104FF0000000287C287C28005C54FE547400442067
:1050000010084400285454205000060000000000FE
:10501000384400000000443800000000020702008D
:10502000000010107C101000C000000000001010E4
:105030001010100040000000000060100C00000084
:105040007C64544C7C00487C400000006454545400
:105050004800445454546C003C20702020005C54A0
:10506000545424007C5454547400040464140C00FC
:105070007C5454547C005C5454547C004400000024
:105080000000C40000000000102844000000282890
:1050900028282800442810000000080454080000B4
:1050A0007C4454545C007C2424247C007C54545460
:1050B0006C007C44444444007C44444438007C54A8
:1050C000545444007C14141404007C44445474006C
:1050D0007C1010107C0044447C44440060404044F8
:1050E0007C007C10102844007C40404040007C083C
:1050F00010087C007C0810207C00384444443800B0
:105100007C14141408003C2464243C007C14141403
:1051100068005C545454740004047C0404007C4013
:1051200040407C000C3040300C003C4030403C00A3
:105130004428102844000C1060100C004464544CA7
:1051400044007C44000000000C1060000000447C1F
:1051500000000000000100010000404040404040CD
:105160000001000000007C2424247C007C54545462
:105170006C007C44444444007C44444438007C54E7
:10518000545444007C14141404007C4444547400AB
:105190007C1010107C0044447C4444006040404437
:1051A0007C007C10102844007C40404040007C087B
:1051B00010087C007C0810207C00384444443800EF
:1051C0007C14141408003C2464243C007C14141443
:1051D00068005C545454740004047C0404007C4053
:1051E00040407C000C3040300C003C4030403C00E3
:1051F0004428102844000C1060100C004464544CE7
:105200004400107C440000006C0000000000447C5E
:105210001000000002010201000000000000000078
:1052200010C418C40883088321463A09296700225C
:105230000083008308A419051947218831EA424BED
:105240003A0939E819040041086210A3088210A342
:105250000862086218A3084210A3106210A3086233
:10526000108310A30842086210832966212510C408
:10527000006310E508A3006210C40083004210E53B
:10528000190621672147190510C410A318E42966DF
:1052900029251083088308A429A829C900A400C5CA
:1052A00000E600A5090719CA2A0B324D2A2C118ADB
:1052B00019EB00E709282A2B118863F2D75F95576D
:1052C000426B638FE77EEFDFEF9EF7DFEF9EFFFF1E
:1052D000CE99A555CE9AC679CE9AD6FCD71D8CD438
:1052E0007C73951695369D77AE1AA61AAE5BC73FAE
:1052F000AE7CA61A9DB89DB7A5F8B659C6BACEFC25
:10530000DF9FCF3EB65B9D988D368D168D369D986E
:105310009D989D98A5D9B65BBE7CB65BC6BDD75F90
:10532000C6DEAE1B9578955895789D78A5DAAE3B8C
:10533000AE1BA5DA95798D1784F68D17955895795A
:1053400085177CF67CF78D58959995BAA61BB69D66
:10535000CF5FCF7FC6FEA5FA95989DD9AE3AAE3AFB
:10536000C71EB69C9DD985177CB574947CB57CD638
:10537000957895999579851774B674957CB6851747
:105380008D99855874D664545BF35BF364346C7503
:1053900053D25BF35BF35C1364346C55749674D630
:1053A00074B6747574B68D3895998D38749563F2AA
:1053B0006C33749584F684F67CB57CD59598B65B91
:1053C0009DB97CB563F26C538516957895578D36EB
:1053D000A5F9AE1A9D988D3795788D1774746C3435
:1053E0005BF35C14641464156C566C7764164B9311
:1053F00053F55C155C1553F553F55C155C35541588
:1054000018E5190510C410A4212531A829A71925CC
:10541000190508A40042088329883A4B29A908A441
:105420001925212510A3086218C418E408821083E6
:105430000862086210A3084210A308621083086281
:10544000108310A3084208620862212518E510A302
:10545000088308A30863006208A408C4190529A8E2
:1054600029882167212618E510A3086210A3296660
:10547000318618C410C4190529C821A8008408C59C
:105480000927090719892A0B220B2A2C2A4D19CB27
:10549000118A220C21EB3ACE19CA2A0B8D37DF7FF5
:1054A00084935B2ECEBBFFFFEFBFEF9EDF1BF7BEEB
:1054B000EFBEBE38E79DC659B5D7C67AE75E8CD435
:1054C000849394F595369D57A5D9A5FAB67CCF5F00
:1054D000BEDDB67BA619A5F8A5F8AE39B679BEBB78
:1054E000C6FDCF1EB65B8D3684D585168D168D16FE
:1054F0008D368D169558A5FAAE1AA5FAB65BC6FE7E
:10550000C6FEADFA8D378D17955895789D99A5DA19
:10551000A5FA9D998D3784D684D684F684F78517AD
:105520007CB6749574B5851785388D588D999DDA3C
:10553000AE5CAE7CA63B9DB99598A5FAB65BB67CF1
:10554000AE5CA63B9DFA95B98D788D588D37853721
:105550008D78959995BA95998D5885177CF77CF734
:1055600095DA95BA85787D1774B66C95749574B68E
:105570007D178538853885387D177D1785388D7975
:105580008D5985177CF78D799DDA9DDA8D5884F6D3
:105590007CB57CB57CB57CD684D68D379DB9AE3BC9
:1055A000AE3B8D587CB57CB58D37957895989DB878
:1055B000AE3AB69CA61A95989DDAA5FA8D587CD677
:1055C0006C55645564356C767CF98D7A851A6C97C8
:1055D0005C36645664565C3653F553F453F55415F3
:1055E000190518E510A4088310A418E5216631C830
:1055F000216719250063004221874AAC31EA004344
:105600001905212510C308A318E410A3086210A3EC
:1056100008620862108308621082086210830862C0
:10562000106210A310821062086218C310A30883CE
:1056300010A30062088308A3088319263A09426A66
:105640002167190608A408830863002108832987B5
:10565000296610C410C411052188196700841147F8
:1056600021A919A92A0B324C21EA21EB2A2C220C60
:10567000328E3AAF21EB3AAE2A2C11485370C6DE77
:10568000B61A4ACCADB7F7FFE79EF7DFEF7DDF3CF8
:10569000FFFFE75DEFDEC659CEBBC65ACE9BB5F91C
:1056A0009D569D369D569D98A5B9A5FAB67CCF3FCF
:1056B000C71EBEDDB67BAE5AAE39AE39B639B65A64
:1056C000BE9BBEBCAE3A8D3684D584F584D57CB401
:1056D00084D584D58D169D989DB99DB9A5FABE7CBB
:1056E000C6DEA5DA8CF684F68D37955795589578F1
:1056F000A5FA95988D1784D684D684D67CB57C95EA
:1057000074956C74747574B57CF784F78517853857
:1057100095B995998D798D388D378D5895999DB915
:105720008D588D588D588D588538851785177CF77D
:105730007CF7851785588D798D79851874B76C75C8
:105740006C9674B674F77CF77D187D3885598D7921
:1057500095BA95DB9DFB95DB8D798D798D9A95BA00
:105760009DFB8D7985188D589DDBA61B9DDB95993A
:1057700095BA8D377CB67CB684F68D378D58957882
:10578000A5FB9599851785178D378D5795789DB908
:10579000A61AB6BDAE3B9598A61BB69DA5FB85384F
:1057A0007CF774B76C566C967D198D5A7CF96456EB
:1057B000643664576477645653F553B453F45C35D8
:1057C00018E50883086308630862086210E4298703
:1057D0002146194610C4004210E532093A2A29A888
:1057E0002987296618E4088208820021002118E42C
:1057F0000862086208820862086208621082106209
:10580000106210A310A31082084208620862088286
:1058100010C4004210A4190510C429874A6B3A2A03
:1058200010C40883004200420863006310C4298743
:10583000192608C408C400A41126194708C521A8C0
:1058400029C921A921EA21EB11691189220C2A2DEC
:105850004B523AAF2A4E326E220C198A42EF6C3309
:10586000A5D94ACC8473F7FFE79EF7FFF7FFDF1C4B
:10587000DEFBF7DEF7FFDF3DEFBECEBBB5D8C69B44
:10588000C69BA5779516A5B8ADF9A5FAAE5BBEDDAA
:10589000C6FDBEDDBEDDBEBCBE9BB65AB639AE3956
:1058A000B65BB65BA5FA9D98955784F57C947CB45D
:1058B00084D57CB584F69577957895789DB9AE1B9F
:1058C000B67C9D9984D684D585168D379558957864
:1058D000A5FAA5DA9D99955784F67CB57C957C95BB
:1058E0007CB5749574546C54747574B674D674B66F
:1058F0007D177CD774B674B674B674957495749528
:105900007CD774B66C756454643464546C556C758F
:105910006C756C766C9674B774D774B66C766435A7
:105920005BF45C1464556C766C966C966C966C9615
:105930007D188539855985397D187D1885388559B3
:1059400095BA85397CF77CF785598D7A95798D598B
:10595000A5FB8D597CD674B67CD67CD67CB6749566
:10596000851884F77CF785178517851785178D5758
:105970009599A61A9599851795BAA63C95997CF79D
:1059800074D76C96645564566C776C765C154B9343
:105990005C155C36645664565BF553B453D4643579
:1059A00018E40863004210A308A30042088218E428
:1059B00010E408C308830062088310E5298731E9F1
:1059C000298721460883004208830862004210C4E8
:1059D00008820882086208820862086208620882F7
:1059E000108210A218C3108208620841086208627F
:1059F00010A3086218E5296721473A09424B21673D
:105A0000086308830883088308A408C408C51946E6
:105A1000110608E508E5008408E5194708C521884E
:105A200019881127114819891148198A2A2D2A4ED7
:105A30003AD0328F5372328E220C19CB43104B1056
:105A400084957C736BF1C69BEFFFEFBFEF9EEFBEBB
:105A5000E75DF7DFFFFFE77DB5F7AD96A576C67A80
:105A6000E79FADD88CF59D77ADD9A5F9AE1AB67B79
:105A7000B67CBEBCC6DDC6FEC6FDBEBCB65AADF920
:105A8000AE1AB63BAE1AA5FAA5D9955784D57CB502
:105A90007CD57CB57CD585168D1785168D37959967
:105AA0009DB98D377CD57CB584D58D1695789DB9FB
:105AB000AE1AB65BB67CA5FA8D177C947CB584F6DD
:105AC0008D3785177CB56C5464136C546C756C758C
:105AD00064556434641464556C55643564356435B8
