:020000040800F2
:1000000000A00020652800083125000833250008DD
:1000100035250008372500083925000800000000B4
:100020000000000000000000000000003B25000868
:100030003D250008000000003F250008412500087C
:10004000B5280008B5280008B5280008B52800081C
:10005000B5280008B5280008B5280008B52800080C
:10006000B5280008B5280008B5280008B5280008FC
:10007000B5280008B5280008B5280008B5280008EC
:10008000B5280008B5280008B5280008B5280008DC
:10009000B5280008B5280008B5280008B5280008CC
:1000A000B5280008B5280008B5280008B5280008BC
:1000B000B528000849250008B5280008B52800081B
:1000C000B5280008B5280008B5280008B52800089C
:1000D000B5280008B5280008B5280008B52800088C
:1000E000B5280008B5280008B5280008B52800087C
:1000F000B5280008B5280008B5280008B52800086C
:10010000000000000000000000000000B52800080A
:10011000B5280008B5280008B5280008B52800084B
:10012000B5280008B5280008B5280008B52800083B
:10013000B5280008B52800080000000000000000F5
:10014000B5280008B5280008B52800080000000000
:10015000000000000000000000000000000000009F
:100160000000000000000000B5280008B5280008C5
:10017000B52800080000000000000000000000009A
:0801800000000000B528000892
:1001880010B5054C237833B9044B13B10448AFF3C9
:1001980000800123237010BD0C0000200000000027
:1001A8001029000808B5034B1BB103490348AFF3F6
:1001B800008008BD00000000100000201029000881
:1001C80081F0004102E000BF83F0004330B54FEA00
:1001D80041044FEA430594EA050F08BF90EA020F6D
:1001E8001FBF54EA000C55EA020C7FEA645C7FEA00
:1001F800655C00F0E2804FEA5454D4EB5555B8BF23
:100208006D420CDD2C4480EA020281EA030382EA93
:10021800000083EA010180EA020281EA0303362D25
:1002280088BF30BD11F0004F4FEA01314FF4801CF8
:100238004CEA113102D0404261EB410113F0004F0A
:100248004FEA03334CEA133302D0524263EB4303C1
:1002580094EA050F00F0A780A4F10104D5F1200E5F
:100268000DDB02FA0EFC22FA05F2801841F10001BA
:1002780003FA0EF2801843FA05F359410EE0A5F18E
:1002880020050EF1200E012A03FA0EFC28BF4CF0BF
:10029800020C43FA05F3C01851EBE37101F0004575
:1002A80007D54FF0000EDCF1000C7EEB00006EEB82
:1002B8000101B1F5801F1BD3B1F5001F0CD349080C
:1002C8005FEA30004FEA3C0C04F101044FEA445263
:1002D80012F5800F80F09A80BCF1004F08BF5FEAEA
:1002E800500C50F1000041EB045141EA050130BDCA
:1002F8005FEA4C0C404141EB010111F4801FA4F16D
:100308000104E9D191F0000F04BF01460020B1FAC1
:1003180081F308BF2033A3F10B03B3F120020CDAF9
:100328000C3208DD02F1140CC2F10C0201FA0CF0D7
:1003380021FA02F10CE002F11402D8BFC2F1200C3C
:1003480001FA02F120FA0CFCDCBF41EA0C019040F2
:10035800E41AA2BF01EB0451294330BD6FEA04043B
:100368001F3C1CDA0C340EDC04F11404C4F1200226
:1003780020FA04F001FA02F340EA030021FA04F338
:1003880045EA030130BDC4F10C04C4F1200220FA8F
:1003980002F001FA04F340EA0300294630BD21FACD
:1003A80004F0294630BD94F0000F83F4801306BF93
:1003B80081F480110134013D4EE77FEA645C18BF87
:1003C8007FEA655C29D094EA050F08BF90EA020F1E
:1003D80005D054EA000C04BF1946104630BD91EA16
:1003E800030F1EBF0021002030BD5FEA545C05D119
:1003F8004000494128BF41F0004130BD14F5800458
:100408003CBF01F5801130BD01F0004545F0FE41CB
:1004180041F470014FF0000030BD7FEA645C1ABF00
:10042800194610467FEA655C1CBF0B46024650EA37
:10043800013406BF52EA033591EA030F41F4002163
:1004480030BD00BF90F0000F04BF0021704730B5E9
:100458004FF4806404F132044FF000054FF00001BE
:1004680050E700BF90F0000F04BF0021704730B57F
:100478004FF4806404F1320410F0004548BF404254
:100488004FF000013EE700BF42004FEAE2014FEAA9
:1004980031014FEA02701FBF12F07F4393F07F4F84
:1004A80081F06051704732F07F4208BF704793F087
:1004B8007F4F04BF41F40021704730B54FF460749A
:1004C80001F0004521F000411CE700BF50EA01029D
:1004D80008BF704730B54FF000050AE050EA010246
:1004E80008BF704730B511F0004502D5404261EBB6
:1004F80041014FF4806404F132045FEA915C3FF4F7
:10050800D8AE4FF003025FEADC0C18BF03325FEA93
:10051800DC0C18BF033202EBDC02C2F1200300FA44
:1005280003FC20FA02F001FA03FE40EA0E0021FA69
:1005380002F11444BDE600BF4FEA410212F5001271
:1005480015D211D56FF47873B3EB625212D94FEA12
:10055800C12343F0004343EA505311F0004F23FAFC
:1005680002F018BF404270474FF00000704750EA51
:10057800013005D111F0004008BF6FF0004070470E
:100588004FF00000704700BF10B504460E4B1878B6
:100598004FF47A73B3FBF0F30C4A1068B0FBF3F036
:1005A80000F0A0F868B90F2C01D901200AE0002258
:1005B80021464FF0FF3000F055F8034B5C600020F7
:1005C80000E0012010BD00BF00000020080000204E
:1005D80008B5074A136843F010031360032000F0BE
:1005E8002FF80020FFF7D0FF01F032FF002008BDF0
:1005F80000200240034A1168034B1B780B44136028
:10060800704700BF6000002000000020014B186800
:10061800704700BF6000002038B50446FFF7F6FFBA
:100628000546B4F1FF3F02D0044B1B781C44FFF78A
:10063800EDFF401BA042FAD338BD00BF00000020E8
:10064800074AD36823F4E0631B041B0C000200F480
:10065800E060184340F0BF6040F40030D06070475D
:1006680000ED00E030B4174BDB68C3F30223C3F19D
:100678000704042C28BF04241D1D062D18D9033B8C
:100688004FF0FF3505FA04F421EA0401994005FA10
:1006980003F322EA0303194300280BDB0901C9B25B
:1006A80000F1604000F5614080F8001330BC7047ED
:1006B8000023E5E700F00F000901C9B2024B195405
:1006C800F4E700BF00ED00E014ED00E000F01F02C9
:1006D800400901239340024A42F82030704700BF86
:1006E80000E100E00138B0F1807F0AD2064B586083
:1006F800064AF02182F823100020986007221A6029
:1007080070470120704700BF10E000E000ED00E0F6
:10071800F0B482B0002336E0042400E00024B440A2
:100728003C4302355B4E46F825405B4C2568D44374
:1007380004EA05064F6817F4803F01D042EA05062F
:10074800554D2E606D6804EA05064F6817F4003FA2
:1007580001D042EA0506504D6E60AD6804EA050610
:100768004F6817F4801F01D042EA05064A4DAE6073
:10077800ED682C404E6816F4001F01D042EA0504CB
:10078800454AD46001330A6832FA03F47ED0012462
:100798009C402240F6D04D68022D01D0122D10D178
:1007A800DE08083650F826C003F00705AF000F250D
:1007B800BD402CEA050C0D69BD4045EA0C0540F822
:1007C800265006685F000325BD40ED4305EA060C88
:1007D8004E6806F00306BE4046EA0C0606604E6800
:1007E80006F1FF3CBCF1010F03D9112E01D0122EE6
:1007F80010D1866805EA060CCE68BE4046EA0C06AB
:100808008660466826EA04044E68C6F300169E40D1
:1008180026434660C46825408C68BC402C43C460AD
:100828004C6814F0805FADD01C4CA56945F00105FB
:10083800A561A46904F001040194019C9D08AE1C03
:10084800144C54F8267003F00304A6000F24B44097
:1008580027EA0407B0F1904F3FF460AF104CA04274
:100868000ED004F58064A0420CD004F58064A04248
:100878000AD004F58064A0423FF44EAF05244EE749
:1008880001244CE702244AE7032448E702B0F0BCFD
:10089800704700BF00000140000401400010024002
:1008A800000400480AB981627047816170470000FE
:1008B800002800F0F58270B582B00446036813F092
:1008C800010F3BD0B54B5B6803F00C03042B1ED023
:1008D800B24B5B6803F00C03082B13D06368B3F5C5
:1008E800803F68D0002B40F0928003F1804303F5ED
:1008F80004331A6822F480321A601A6822F48022BB
:100908001A605DE0A54B5B6813F4803FE6D04FF4B6
:10091800003393FAA3F3A14B19684FF4003393FA09
:10092800A3F3B3FA83F303F01F03012202FA03F3DC
:100938000B4203D06368002B00F0B482236813F0E5
:10094800020F00F0C680954B5B6813F00C0F00F0A7
:100958009C80924B5B6803F00C03082B00F08F809F
:100968002369002B00F0F380012292FAA2F3B3FA74
:1009780083F303F1845303F584139B001A60FFF794
:1009880045FE0546022393FAA3F3844B1968022314
:1009980093FAA3F3B3FA83F303F01F03012202FAD5
:1009A80003F30B4240F0C480FFF730FE401B0228DF
:1009B800E8D9032083E2794A136843F4803313604B
:1009C800764AD36A23F00F03A1680B43D3626368A6
:1009D800002B36D0FFF71AFE05464FF4003393FA82
:1009E800A3F36E4B19684FF4003393FAA3F3B3FAE9
:1009F80083F303F01F03012202FA03F30B429DD194
:100A0800FFF704FE401B6428E7D9032057E2B3F53B
:100A1800A02F09D0614B1A6822F480321A601A6834
:100A280022F480221A60CBE703F18043A3F53C331C
:100A38001A6842F480221A601A6842F480321A60F6
:100A4800BEE7FFF7E3FD05464FF4003393FAA3F33F
:100A5800524B19684FF4003393FAA3F3B3FA83F3B4
:100A680003F01F03012202FA03F30B423FF466AFBF
:100A7800FFF7CCFD401B6428E6D903201FE2474B53
:100A88005B6813F4803F7FF46BAF022393FAA3F300
:100A9800424B1968022393FAA3F3B3FA83F303F0E2
:100AA8001F03012202FA03F30B4204D02369934285
:100AB80001D0012003E23948036823F0F803616993
:100AC800F82292FAA2F2B2FA82F201FA02F213437F
:100AD8000360236813F0080F00F08C80A369002BD3
:100AE80060D0012191FAA1F2B2FA82F22C4B1344A0
:100AF8009B001960FFF78AFD0546022393FAA3F2CB
:100B080093FAA3F293FAA3F2244A516A93FAA3F34D
:100B1800B3FA83F303F01F03012202FA03F30B4233
:100B280068D1FFF773FD401B0228E6D90320C6E110
:100B38001A48036823F0F8036169F82292FAA2F2CE
:100B4800B2FA82F201FA02F213430360C1E7012309
:100B580093FAA3F3B3FA83F303F1845303F58413ED
:100B68009B0000221A60FFF751FD0546022393FA05
:100B7800A3F30A4B1968022393FAA3F3B3FA83F396
:100B880003F01F03012202FA03F30B42A1D0FFF77F
:100B98003DFD401B0228E9D9032090E100100240E6
:100BA80020819010012292FAA2F2B2FA82F2C04B8E
:100BB80013449B0000221A60FFF728FD0546022314
:100BC80093FAA3F293FAA3F293FAA3F2B94A516AF9
:100BD80093FAA3F3B3FA83F303F01F03012202FA93
:100BE80003F30B4206D0FFF711FD401B0228E6D99C
:100BF800032064E1236813F0040F00F0B380AD4BC9
:100C0800DB6913F0805F20D1AA4BDA6942F0805289
:100C1800DA61DB6903F080530193019B0125A64B40
:100C28001B6813F4807F12D0E368012B23D073BBB9
:100C380003F1804303F504331A6A22F001021A62B1
:100C48001A6A22F004021A621AE00025E7E79A4AB3
:100C5800136843F480731360FFF7D8FC0646964B7D
:100C68001B6813F4807FDFD1FFF7D0FC801B64285A
:100C7800F5D9032023E18F4A136A43F00103136275
:100C8800E368002B41D0FFF7C1FC06462BE0052B9B
:100C980009D0884B1A6A22F001021A621A6A22F0F5
:100CA80004021A62ECE7834B1A6A42F004021A62E1
:100CB8001A6A42F001021A62E2E77E4B196A0223BD
:100CC80093FAA3F3B3FA83F303F01F03012202FAA2
:100CD80003F3194245D1FFF799FC801B41F2883391
:100CE800984200F2E180022393FAA3F293FAA3F365
:100CF800B3FA83F35B0943F00203022BDDD002232E
:100D080093FAA3F36B4B596AD9E7FFF77FFC0646C2
:100D180015E0684B196A022393FAA3F3B3FA83F335
:100D280003F01F03012202FA03F3194219D0FFF757
:100D38006DFC801B41F28833984200F2B780022391
:100D480093FAA3F293FAA3F3B3FA83F35B0943F09C
:100D58000203022BDDD0022393FAA3F3554B596A01
:100D6800D9E7B5BBE369002B00F0A880514A526867
:100D780002F00C02082A00F0A480022B2FD04FF0BA
:100D8800807393FAA3F3B3FA83F303F1845303F55F
:100D980084139B0000221A60FFF738FC04464FF0CA
:100DA800007393FAA3F3434B19684FF0007393FA57
:100DB800A3F3B3FA83F303F01F03012202FA03F348
:100DC80019426BD0FFF722FC001B0228E7D9032049
:100DD80075E0384AD36923F08053D361C2E74FF0F6
:100DE800807393FAA3F3B3FA83F303F1845303F5FF
:100DF80084139B0000221A60FFF708FC05464FF099
:100E0800007393FAA3F32B4B19684FF0007393FA0E
:100E1800A3F3B3FA83F303F01F03012202FA03F3E7
:100E2800194206D0FFF7F2FB401B0228E7D903203E
:100E380045E020494B6823F47413626A206A024330
:100E480013434B604FF0807393FAA3F3B3FA83F321
:100E580003F1845303F584139B0001221A60FFF702
:100E6800D5FB04464FF0007393FAA3F3114B1968AE
:100E78004FF0007393FAA3F3B3FA83F303F01F035D
:100E8800012202FA03F3194206D1FFF7BFFB001B48
:100E98000228E7D9032012E0002010E000200EE02D
:100EA8000120704701200AE0032008E0032006E043
:100EB800208190100010024000700040002002B015
:100EC80070BD0120FBE700BF10B4174B5C6804F04D
:100ED8000C03082B26D104F470124FF4701393FA04
:100EE800A3F3B3FA83F322FA03F31049C85C0E4B59
:100EF800DB6A03F00F030F2292FAA2F2B2FA82F22F
:100F0800D3400B441A7C14F4803F05D1084B03FBF3
:100F180000F05DF8044B7047064BB3FBF2F300FB9F
:100F280003F0F6E70348F4E7001002402829000818
:100F380000093D0000127A00002800F0C08070B55A
:100F48000446614B1B6803F007038B420CD25E4AD0
:100F5800136823F007030B431360136803F00703B8
:100F68008B4201D0012070BD236813F0020F06D018
:100F7800564A536823F0F003A068034353600D46B4
:100F8800236813F0010F5AD06368012B2DD0022B70
:100F980040D0022292FAA2F24C4A1068022292FA37
:100FA800A2F2B2FA82F202F01F02012101FA02F261
:100FB800104200F0868045494A6822F00302134334
:100FC8004B60FFF723FB0646404B5B6803F00C03BE
:100FD8006268B3EB820F32D0FFF718FB801B41F237
:100FE80088339842F0D90320BDE74FF4003292FAD3
:100FF800A2F2364A10684FF4003292FAA2F2B2FA1C
:1010080082F202F01F02012101FA02F20242D2D159
:101018000120A8E74FF0007292FAA2F22B4A10685A
:101028004FF0007292FAA2F2B2FA82F202F01F02B4
:10103800012101FA02F21042BDD1012093E7224BAF
:101048001B6803F00703AB420CD91F4A136823F04F
:1010580007032B431360136803F00703AB4201D067
:10106800012080E7236813F0040F06D0174A53685D
:1010780023F4E063E1680B435360236813F0080F1F
:1010880007D0124A536823F46053216943EAC10325
:101098005360FFF719FF0D4B5B6803F0F003F02274
:1010A80092FAA2F2B2FA82F2D340094AD35CD8404B
:1010B800084B18600020FFF767FA002053E701206B
:1010C800704701204FE700BF002002400010024097
:1010D8004829000808000020F8B505460F461646BE
:1010E8001C4639E02CB1FFF791FA069BC01AA042C2
:1010F80032D32A68536823F0E00353606B68B3F572
:10110800827F0BD0AB6AB3F5005F14D0012385F85A
:101118005D30002385F85C30032025E0AB68B3F52B
:10112800004F02D0B3F5806FECD12A68136823F022
:1011380040031360E6E72A68136823F4005313603A
:101148002A68136843F400531360DFE70123B342AE
:1011580009D0B4F1FF3FC5D12B689B6837EA030378
:10116800F4D00023F3E70020F8BDF0B583B00746BC
:101178000C4615461E4602E0B6F1FF3F10D13A680C
:1011880093682340AB423FD0B4F5C06FF4D1002D33
:10119800F2D1137BDBB28DF807309DF80730EBE70F
:1011A8002EB1FFF733FA089BC01AB042E7D33A686A
:1011B800536823F0E00353607B68B3F5827F0BD05C
:1011C800BB6AB3F5005F14D0012387F85D300023B4
:1011D80087F85C30032018E0BB68B3F5004F02D0F5
:1011E800B3F5806FECD13A68136823F040031360BD
:1011F800E6E73A68136823F4005313603A68136803
:1012080043F400531360DFE7002003B0F0BD70B56E
:1012180082B004460D46164600920B4600224FF453
:10122800C051FFF7A2FFB8B900962B4600228021D3
:101238002046FFF751FFB8B900962B4600224FF41D
:10124800C0612046FFF791FF034650B1236E43F07B
:1012580020032366032304E0236E43F02003236660
:101268000323184602B070BD236E43F020032366A3
:101278000323F6E770B582B004460D461646436868
:10128800B3F5827F0FD000962B460022802120469E
:10129800FFF722FF034698B96268B2F5827F15D03E
:1012A800184602B070BD8368B3F5004F02D0B3F59D
:1012B800806FE8D12268136823F040031360E2E7E7
:1012C800236E43F0200323660323E9E7A268B2F5FF
:1012D800004F02D0B2F5806FE2D100962B46002273
:1012E8004FF4C0612046FFF740FF03460028D7D0DF
:1012F800236E43F0200323660323D1E7002858D048
:1013080010B504460023836290F85D30002B45D069
:10131800022384F85D302268136823F040031360C9
:10132800E368B3F5E06F3ED90022B3F5706F04D0DF
:10133800B3F5E06F01D00021A162216B21B9B3F5AB
:10134800E06F33D9022323636368A1680B432169E3
:101358000B4361690B43A16901F400710B43E16917
:101368000B43216A0B43A06A216803430B60638B1C
:1013780003F00403616A0B43616B0B43E1680B43A1
:10138800216813434B602268D36923F40063D36157
:1013980000202066012384F85D3010BD80F85C30A1
:1013A80001F06EF8B4E74FF48052BEE701232363DF
:1013B800CAE7012070472DE9F04182B01E4690F837
:1013C8005C30012B00F0D68004460D469046012380
:1013D80080F85C30FFF71AF9074694F85D30DBB205
:1013E800012B09D00220012384F85D30002384F802
:1013F8005C3002B0BDE8F081002D00F0B180B8F19A
:10140800000F00F0AF80032384F85D3000232366CB
:10141800A563A4F83C80A4F83E802364A4F8443073
:10142800A4F846302365E364A368B3F5004F1BD0E6
:1014380023681A6812F0400F03D11A6842F040027C
:101448001A60E368B3F5E06F31D963681BB1E38FC5
:101458009BB2012B13D1236835F8022BDA60E38F96
:10146800013B9BB2E3870AE02268136843F4804398
:101478001360DDE7002E77D0B6F1FF3F10D1E38F80
:101488009BB2002B57D023689A6812F0020FF1D054
:1014980035F8022BDA60E38F013B9BB2E387EEE776
:1014A800FFF7B4F8C01BB042E9D303209BE7636899
:1014B8001BB1E38F9BB2012B22D1E38F9BB2012B8F
:1014C80008D9236835F8022BDA60E38F023B9BB218
:1014D800E38715E023682A781A73E38F013B9BB2F0
:1014E800E38701350CE02A781A73E38F013B9BB23E
:1014F800E387013504E0002E38D0B6F1FF3F13D161
:10150800E38F9BB2BBB123689A6812F0020FF2D046
:10151800E28F92B2012AE6D935F8022BDA60E38F1E
:10152800023B9BB2E387EBE7FFF770F8C01BB042C2
:10153800E6D3032057E73A4631462046FFF767FED1
:1015480008B120232366A36833B901932368DA68B6
:1015580001929B680193019B236E4BB9002042E7DF
:10156800012040E701203EE703203CE703203AE75B
:10157800012038E702203CE72DE9F8439846089D0A
:1015880090F85C30012B00F04F8104460F46164658
:10159800012380F85C30FFF739F8814694F85D3014
:1015A800DBB26268012B13D0B2F5827F08D002202B
:1015B800012384F85D30002384F85C30BDE8F883AB
:1015C800A268002A40F02681042B01D00220EFE710
:1015D800002F00F02181002E00F02081B8F1000FCB
:1015E80000F01E8194F85D30DBB2042B02D0052395
:1015F80084F85D30002323662664A4F84680A4F8A6
:101608004480A763A4F83E80A4F83C80E364236583
:10161800E368B3F5E06F04D8B4F846309BB2012B09
:1016280022D92268536823F48053536023681A68C8
:1016380012F0400F03D11A6842F040021A60E368C2
:10164800B3F5E06F54D963681BB1E38F9BB2012BEC
:1016580007D1236837F8022BDA60E38F013B9BB28E
:10166800E3874FF001081CE02268536843F4805375
:101678005360DBE7B4F846309BB27BB123689A68C5
:1016880012F0010F0AD0DB6826F8023BB4F84630A6
:10169800013B9BB2A4F846304FF00108B5F1FF3F7B
:1016A8001ED1E38F9BB22BB9B4F846309BB2002B06
:1016B80000F0A480B8F1000FDCD0E38F9BB2002BC0
:1016C800D8D023689A6812F0020FD3D037F8022BCB
:1016D800DA60E38F013B9BB2E3874FF00008C9E76C
:1016E800FEF794FFA0EB0900A842DAD303205FE7D6
:1016F80063681BB1E38F9BB2012B0BD1E38F9BB2C5
:10170800012B0AD9236837F8022BDA60E38F023BF2
:101718009BB2E3874FF0010832E023683A781A73E6
:10172800E38F013B9BB2E3870137F3E73A781A73FB
:10173800E38F013B9BB2E38701374FF00008B4F811
:1017480046309BB2CBB123689A6812F0010F14D0CF
:10175800B4F8462092B2012A3CD9DB6826F8023B4D
:10176800B4F84630023B9BB2A4F84630B4F8463091
:101778009BB2012B26D94FF00108B5F1FF3F35D1B7
:10178800E38F9BB223B9B4F846309BB2002B35D017
:10179800B8F1000FD3D0E38F9BB2002BCFD02368D2
:1017A8009A6812F0020FCAD0E28F92B2012ABDD90C
:1017B80037F8022BDA60E38F023B9BB2E3874FF0E6
:1017C8000008BCE72268536843F4805353604FF025
:1017D8000108D2E71B7B3370B4F84630013B9BB25B
:1017E800A4F8463001364FF00108C6E7FEF70EFFB1
:1017F800A0EB0900A842C3D30320D9E64A462946EC
:101808002046FFF704FD08B120232366236E4BB959
:101818000020CDE60220CBE60120C9E60120C7E67C
:101828000120C5E60120C3E60220C7E62DE9F04104
:1018380082B004460D4617461E464368B3F5827FBC
:1018480019D094F85C30012B00F0B280012384F8A1
:101858005C30FEF7DBFE804694F85D30DBB2012B8E
:1018680015D00220012384F85D30002384F85C3011
:1018780002B0BDE8F0818368002BE2D1042380F830
:101888005D30009613460A46FFF776FEF0E7002D16
:1018980000F08480002F00F08380042384F85D30FA
:1018A800002323662564A4F84470A4F84670A36353
:1018B800A387E387E3642365E368B3F5E06F16D98C
:1018C8002268536823F480535360A368B3F5004F2C
:1018D80013D023681A6812F0400F03D11A6842F037
:1018E80040021A60E368B3F5E06F11D92FE022686F
:1018F800536843F480535360E7E72268136823F47E
:1019080080431360E5E7002E4CD0B6F1FF3F12D1BB
:10191800B4F846309BB2ABB323689A6812F0010F53
:10192800F1D01B7B05F8013BB4F84630013B9BB274
:10193800A4F84630ECE7FEF769FEA0EB0800B042D9
:10194800E6D303208EE77EB3B6F1FF3F12D1B4F899
:1019580046309BB2B3B123689A6812F0010FF2D0F7
:10196800DB6825F8023BB4F84630013B9BB2A4F88B
:101978004630ECE7FEF74AFEA0EB0800B042E6D39B
:1019880003206FE7424631462046FFF773FC08B153
:1019980020232366236E4BB9002063E7012061E70B
:1019A80001205FE703205DE703205BE7012059E79B
:1019B80002205DE790F85D00704710B4036A046A7E
:1019C80024F001040462846924F0F00444EA021259
:1019D80023F00A030B43826103625DF8044B7047EE
:1019E80010B4036A23F0100303628469036A24F4C1
:1019F800704444EA023223F0A00343EA01138261EF
:101A080003625DF8044B7047836823F0700341F06C
:101A180007011943816070470268D36843F00103E6
:101A2800D3600268136843F0010313600020704715
:101A38007047704770477047704710B50446036891
:101A48001A6912F0020F11D0DA6812F0020F0DD0E5
:101A58006FF002021A610123037703689B6913F090
:101A6800030F79D0FFF7E6FF0023237723681A696D
:101A780012F0040F12D0DA6812F0040F0ED06FF0D3
:101A880004021A610223237723689B6913F4407FB9
:101A980068D02046FFF7CEFF0023237723681A6912
:101AA80012F0080F12D0DA6812F0080F0ED06FF09B
:101AB80008021A61042323772368DB6913F0030FF4
:101AC80057D02046FFF7B6FF0023237723681A690B
:101AD80012F0100F12D0DA6812F0100F0ED06FF05B
:101AE80010021A61082323772368DB6913F4407F07
:101AF80046D02046FFF79EFF0023237723681A6904
:101B080012F0010F03D0DA6812F0010F3FD12368F9
:101B18001A6912F0800F03D0DA6812F0800F3DD1F5
:101B280023681A6912F4807F03D0DA6812F0800FF4
:101B38003BD123681A6912F0400F03D0DA6812F01B
:101B4800400F39D123681A6912F0200F03D0DA68E0
:101B580012F0200F37D110BDFFF76BFF2046FFF7BB
:101B68006AFF81E72046FFF764FF2046FFF763FF1F
:101B780092E72046FFF75DFF2046FFF75CFFA3E7EB
:101B88002046FFF756FF2046FFF755FFB4E76FF0F2
:101B980001021A612046FFF74BFFB8E76FF0800299
:101BA8001A61204600F051F9BAE76FF480721A61A1
:101BB800204600F04BF9BCE76FF040021A6120465E
:101BC800FFF73AFFBEE76FF020021A61204600F0E7
:101BD8003BF9C0E703682C4A90420ED0B0F1804F21
:101BE8000BD0A2F59432904207D002F58062904261
:101BF80003D002F59632904203D123F070034A686D
:101C08001343214A90421AD0B0F1804F17D0A2F561
:101C18009432904213D002F5806290420FD002F5C0
:101C2800963290420BD002F54062904207D002F5FE
:101C38008062904203D002F58062904203D123F47F
:101C48004073CA68134323F080034A69134303604F
:101C58008B68C3620B6883620B4B98420FD003F505
:101C6800006398420BD003F54063984207D003F510
:101C78008063984203D003F58063984201D10B69D1
:101C88000363012343617047002C0140A8B110B5DC
:101C9800044690F83D305BB1022384F83D30211DA5
:101CA8002068FFF797FF012384F83D30002010BD1E
:101CB80080F83C3000F018FCEEE70120704710B4C3
:101CC800846824F47F4442EA03230B43234383605C
:101CD8005DF8044B7047000090F83C30012B00F091
:101CE800828010B50446012380F83C30022380F836
:101CF8003D30026890683D4B034093600B68402B71
:101D08005DD010D9702B40D01FD8502B4DD0602BF0
:101D180034D1CA6849682068FFF762FE60212068EC
:101D2800FFF772FE2AE0102B53D008D9202B55D08C
:101D3800302B23D130212068FFF766FE1EE0EBB977
:101D480000212068FFF760FE18E0B3F5805F0ED031
:101D5800B3F5005F12D1CB684A6889682068FFF73D
:101D6800AEFF2268936843F48043936006E02268DC
:101D7800936823F4803323F007039360012384F8E6
:101D88003D30002084F83C0010BDCB684A68896863
:101D98002068FFF794FF2268936823F4803323F0C8
:101DA800770343F077039360E8E7CA6849682068D7
:101DB800FFF703FE50212068FFF726FEDEE7CA681A
:101DC80049682068FFF7F9FD40212068FFF71CFEED
:101DD800D4E710212068FFF717FECFE720212068FD
:101DE800FFF712FECAE70220704700BF8800FEFF17
:101DF80090F83C30012B22D030B4012380F83C30DD
:101E08000268536895680F4CA24203D004F5006439
:101E1800A24203D123F470034C68234323F07003D8
:101E28000C68234325F080048968214353600368C4
:101E38009960002380F83C30184630BC7047022077
:101E4800704700BF002C014070477047704710B4BE
:101E580003F00304D20002EB531304EB830400EBFA
:101E6800042001EB00205DF8044B7047490901EBA1
:101E7800C000704700B589B000238DF804308DF894
:101E880005308DF806308DF807308DF800308DF864
:101E980001308DF802308DF803308DF81C308DF844
:101EA8001D308DF81E308DF81F308DF8183008223F
:101EB8008DF819208DF81A308DF81B308DF81430F4
:101EC8008DF815308DF816308DF817308DF81030E4
:101ED8008DF811308DF812308DF813308DF80C30E4
:101EE8008DF80D308DF80E308DF80F308DF80830E4
:101EF8008DF809208DF80A308DF80B3000F0D8F8ED
:101F0800034618B9184609B05DF804FB00F038F923
:101F180003460028F6D001AA2321202000F05CF90E
:101F28006A462721242000F057F907AA0321002038
:101F380000F052F906AA0721042000F04DF905AA7D
:101F48000B21082000F048F904AA1321102000F002
:101F580043F903AA1721142000F03EF902AA1B2115
:101F6800182000F039F90421602000F0EAF8012176
:101F7800702000F0E6F800212A2000F0E2F8D121D4
:101F8800292000F0DEF88121282000F0DAF800F09E
:101F98000FF903460028B5D00123B3E730B585B063
:101FA800044600F037F910F0C0034BD00546C02BAB
:101FB80018BF402B2CD0802B30D005F01805102DE1
:101FC80032D0012323709DF801109DF80000FFF71F
:101FD8004DFF60609DF8043023729DF805306372F0
:101FE8009DF80630A3729DF80730E3729DF808301B
:101FF80023739DF8093063739DF80A30A3739DF825
:102008000B30E3739DF80C302374012005B030BD0C
:102018000D226946902000F07CF8CEE70D22694633
:10202800942000F076F8C8E7022323709DF8013069
:102038009DF800209DF803109DF80200FFF707FFA8
:102048006060C7E70020E1E700B583B002A901F8A6
:10205800010D0A2301220348FFF7ADF903B05DF82B
:1020680004FB00BFA400002008B50A230A46014665
:102078000148FFF7A0F908BDA400002000B583B00F
:102088000A2301220DF107010348FFF7CFFB9DF852
:10209800070003B05DF804FBA400002008B50A237C
:1020A8000A4601460148FFF7C1FB08BDA40000200D
:1020B80010B5012210214FF09040FEF7F3FB0A24DF
:1020C8000648FFF777FC012805D0631E13F0FF04CC
:1020D800F6D1002010BD0120FCE700BFA4000020BD
:1020E80010B50446002210214FF09040FEF7DAFBAD
:1020F8000320FFF7A9FF2046FFF7A6FFFFF7BEFF63
:102108000446012210214FF09040FEF7CBFB2046F9
:1021180010BD70B506460C461546002210214FF03A
:102128009040FEF7BFFB3046FFF78EFF294620465A
:10213800FFF7B4FF012210214FF09040FEF7B2FBE9
:1021480070BD38B505460C46002210214FF090406E
:10215800FEF7A8FB0120FEF75FFA0220FFF774FFE5
:102168002846FFF771FF2046FFF76EFF0120FEF7B4
:1021780053FA012210214FF09040FEF793FB38BD2F
:1021880010B580210F20FFF7DCFF64240E20FFF735
:10219800A7FF00F0E000802808D00A20FEF73CFAEC
:1021A800631E13F0FF04F1D1002000E0012010BDF0
:1021B80010B500210F20FFF7C4FF0A240E20FFF7F7
:1021C8008FFF10F0E00F05D0631E13F0FF04F5D168
:1021D800002010BD0120FCE770B505460C461646E8
:1021E800002210214FF09040FEF75CFB0220FFF721
:1021F8002BFF2846FFF728FF611BC9B20131C9B27E
:102208003046FFF731FF012210214FF09040FEF7D2
:1022180049FB70BD10B5002210214FF09040FEF729
:1022280041FBB020FFF710FFFFF728FF044601220B
:1022380010214FF09040FEF735FB204610BD0000FE
:102248002DE9F0418AB00024059406940794089477
:102258000994384B5A6942F400225A615A6902F4C7
:1022680000220192019A5A6942F400325A615A696D
:1022780002F400320292029A5A6942F400125A6138
:102288005A6902F400120392039A5A6942F48012BE
:102298005A615B6903F480130493049BDFF8A08000
:1022A800224603214046FEF7FDFA224610214FF050
:1022B8009040FEF7F7FA204F22464FF47F41384608
:1022C800FEF7F0FA1D4E2246FF213046FEF7EAFAE5
:1022D80003230593012506950794089405A940460C
:1022E800FEF716FA05950694079405A94FF0904055
:1022F800FEF70EFA1023059306950794089405A98E
:102308004FF09040FEF704FA4FF47F43059306958B
:102318000794089405A93846FEF7FAF9FF230593B0
:1023280006950794089405A93046FEF7F1F90AB016
:10233800BDE8F0810010024000100048000C004881
:102348000008004808B50E480E4B03604FF482732E
:102358004360002383604FF4E062C260036143611D
:102368004FF4007282613822C26103624362836261
:102378000722C262036308234363FEF7BFFF08BD59
:10238800A40000200030014030B589B00024049436
:102398000594069407940194029403940E4D0F4BF0
:1023A8002B604FF448736B60AC601423EB602C61B6
:1023B800AC612846FFF76AFC4FF48053049304A9E4
:1023C8002846FFF789FC0194039401A92846FFF7E2
:1023D8000FFD09B030BD00BF6400002000040040BC
:1023E80010B590B02422002107A800F085FA002437
:1023F8000194029403940494059402230693012300
:102408000A9310230B9306A8FEF752FA0F230193A1
:102418000294039404940594214601A8FEF78CFDC8
:1024280010B010BD08B5FEF7D3F8FFF7D9FFFFF7D6
:1024380007FFFFF787FFFFF7A7FFFFF71BFD03481D
:10244800FFF7EAFA00F05CF9FCE700BF640000203F
:1024580082B00A4B9A6942F001029A619A6902F0C5
:1024680001020092009ADA6942F08052DA61DB696F
:1024780003F080530193019B02B0704700100240A3
:1024880000B589B00023039304930593069307933B
:102498000268144B9A4202D009B05DF804FB03F5B8
:1024A80060439A6942F480529A619A6902F48052B0
:1024B8000192019A5A6942F400325A615B6903F445
:1024C80000330293029BE023039302230493032324
:1024D80006930523079303A94FF09040FEF718F9D8
:1024E800DAE700BF0030014002680E4B9A4200D084
:1024F800704700B583B003F50333DA6942F002028E
:10250800DA61DB6903F002030193019B00221146A3
:102518001D20FEF7A7F81D20FEF7D8F803B05DF8D8
:1025280004FB00BF000400407047FEE7FEE7FEE73B
:10253800FEE770477047704708B5FEF75BF808BDBF
:1025480008B50348FFF779FA00F078F908BD00BF2D
:10255800640000201549D1F8883043F47003C1F8AD
:102568008830134B1A6842F001021A605868114A01
:1025780002405A601A6822F0847222F480321A608B
:102588001A6822F480221A605A6822F4FE025A60FD
:10259800DA6A22F00F02DA62186B074A02401A63FD
:1025A80000229A604FF000638B60704700ED00E0F6
:1025B800001002400CC07FF8CCFC00FF10B50446A8
:1025C800002380F82430002343618361FEF71EF85E
:1025D800A06201232380022363800423A3800823AD
:1025E800E38010232381202363814023A381802358
:1025F800E381204610BD0000012800D0704708B5CF
:102608004FF6FF73994200D008BD0248FFF7D6FF86
:10261800FAE700BF2800002010B586B0044601A8DC
:10262800FFF7BCFC08B906B010BD01224FF4806169
:102638001748FEF737F99DF8083084F824300A2B3C
:1026480003D0142B01D01E2B1BD19DF80D302377FE
:102658009DF80E3063779DF80F30A3779DF8103002
:10266800E3779DF8113084F820309DF8123084F813
:1026780021309DF8133084F822309DF8143084F806
:10268800233000224FF480610148FEF70BF9CAE7B6
:1026980000100048027F0023072B0CDC10B402F066
:1026A8000104C11881F82C4052080133072BF6DDCC
:1026B8005DF8044B7047704738B5054690F82430EC
:1026C8001E2B01D0002409E0FFF7E4FFFAE70022FF
:1026D80035F814100948FEF7E5F80134072C0BDC2F
:1026E8002B1993F82C30002BF1D0012235F8141057
:1026F8000248FEF7D7F8F0E738BD00BF000C0048E5
:1027080010B5044C2046FFF787FF2046FFF7D4FF9B
:1027180010BD00BF2800002030EE600A32EE612AAA
:1027280020EE022A31EE601A82EE010A30EE210A0A
:102738007047000010B50446037F00EE103ADFED45
:10274800090A9FED092AF0EE601A9FED081AB8EE03
:10275800400AFFF7E1FFBDEEC00AB8EEC00A84EDFB
:10276800060A10BD0000000000009B4300007A43E9
:1027780038B5044690F824300A2B3FD094ED067AF9
:10278800D4ED057A77EE677A17EE900AFDF77CFEAE
:1027980002460B46FDF71AFDFDF7CEFE051E30DB9F
:1027A800012211462348FEF77DF8002D41D007EE9F
:1027B800905AB8EEE77AF7EE006AC6EE877AFDEE31
:1027C800E77A17EE903A642202FB03F303331A4ABE
:1027D800516B91FBF3F203FB12130BBB0122022195
:1027E8001448FEF75FF8002D11DDD4ED057AB6EE3A
:1027F800007A77EE877AC4ED057A16E0FFF79AFF3C
:10280800BCE7002201210B48FEF74CF8CDE7D4EDD8
:10281800057AB6EE007A77EEC77AC4ED057A04E059
:10282800002202210348FEF73DF8034A536B0133A7
:10283800536338BD000800482800002008B5024846
:10284800FFF796FF08BD00BF2800002008B54FF627
:10285800FF710120FFF7D0FE08BD0000DFF834D07B
:10286800002103E00C4B5B58435004310B480C4BE0
:1028780042189A42F6D30B4A02E0002342F8043B7E
:10288800094B9A42F9D3FFF765FE00F011F8FFF7FC
:10289800C9FDFEE700A000206C2900080000002008
:1028A8000C0000200C00002008010020FEE70000BA
:1028B80070B50D4E0D4CA41BA4100025A54209D1DE
:1028C8000B4E0C4C00F020F8A41BA4100025A542C8
:1028D80005D170BD56F8253098470135EEE756F812
:1028E800253098470135F2E760290008602900087B
:1028F800602900086829000802440346934200D171
:10290800704703F8011BF9E7F8B500BFF8BC08BC2D
:102918009E467047F8B500BFF8BC08BC9E46704795
:1029280002030405060708090A0B0C0D0E0F101008
:102938000102030405060708090A0B0C0D0E0F1007
:102948000000000000000000010203040607080957
:0829580000000000010203046D
:08296000AD0100085528000834
:0429680089010008D9
:0C296C00010000001000000000127A00C2
:040000050800286562
:00000001FF
