:020000040800F2
:1000000000A00020E5180008D1170008D317000849
:10001000D5170008D7170008D917000800000000FE
:10002000000000000000000000000000DB170008D6
:10003000DD17000800000000DF170008E1170008C6
:100040003519000835190008351900083519000858
:100050003519000835190008351900083519000848
:100060003519000835190008351900083519000838
:100070003519000835190008351900083519000828
:100080003519000835190008351900083519000818
:100090003519000835190008351900083519000808
:1000A00035190008351900083519000835190008F8
:1000B00035190008351900083519000835190008E8
:1000C00035190008351900083519000835190008D8
:1000D00035190008351900083519000835190008C8
:1000E00035190008351900083519000835190008B8
:1000F00035190008351900083519000835190008A8
:100100000000000000000000000000003519000899
:100110003519000835190008351900083519000887
:100120003519000835190008351900083519000877
:100130003519000835190008000000000000000013
:1001400035190008351900083519000800000000AD
:10015000000000000000000000000000000000009F
:1001600000000000000000003519000835190008E3
:100170003519000800000000000000000000000029
:08018000000000003519000821
:1001880010B5054C237833B9044B13B10448AFF3C9
:1001980000800123237010BD0C0000200000000027
:1001A800A819000808B5034B1BB103490348AFF36E
:1001B800008008BD0000000010000020A8190008F9
:1001C80010B504460E4B18784FF47A73B3FBF0F36E
:1001D8000C4A1068B0FBF3F000F094F868B90F2CE3
:1001E80001D901200AE0002221464FF0FF3000F03B
:1001F80055F8034B5C60002000E0012010BD00BFF3
:10020800000000200800002008B5074A136843F0E2
:1002180010031360032000F02FF80020FFF7D0FF31
:1002280001F086FA002008BD00200240034A116848
:10023800034B1B780B441360704700BF2800002055
:1002480000000020014B1868704700BF28000020FC
:1002580038B50446FFF7F6FF0546B4F1FF3F02D074
:10026800044B1B781C44FFF7EDFF401BA042FAD358
:1002780038BD00BF00000020074AD36823F4E063BC
:100288001B041B0C000200F4E060184340F0BF6040
:1002980040F40030D060704700ED00E030B4174BF8
:1002A800DB68C3F30223C3F10704042C28BF04242A
:1002B8001D1D062D18D9033B4FF0FF3505FA04F430
:1002C80021EA0401994005FA03F322EA03031943DA
:1002D80000280BDB0901C9B200F1604000F561405C
:1002E80080F8001330BC70470023E5E700F00F00EA
:1002F8000901C9B2024B1954F4E700BF00ED00E050
:1003080014ED00E00138B0F1807F0AD2064B586046
:10031800064AF02182F823100020986007221A600C
:1003280070470120704700BF10E000E000ED00E0DA
:10033800F0B482B0002336E0042400E00024B44086
:100348003C4302355B4E46F825405B4C2568D44358
:1003580004EA05064F6817F4803F01D042EA050613
:10036800554D2E606D6804EA05064F6817F4003F86
:1003780001D042EA0506504D6E60AD6804EA0506F4
:100388004F6817F4801F01D042EA05064A4DAE6057
:10039800ED682C404E6816F4001F01D042EA0504AF
:1003A800454AD46001330A6832FA03F47ED0012446
:1003B8009C402240F6D04D68022D01D0122D10D15C
:1003C800DE08083650F826C003F00705AF000F25F1
:1003D800BD402CEA050C0D69BD4045EA0C0540F806
:1003E800265006685F000325BD40ED4305EA060C6C
:1003F8004E6806F00306BE4046EA0C0606604E68E4
:1004080006F1FF3CBCF1010F03D9112E01D0122EC9
:1004180010D1866805EA060CCE68BE4046EA0C068E
:100428008660466826EA04044E68C6F300169E40B5
:1004380026434660C46825408C68BC402C43C46091
:100448004C6814F0805FADD01C4CA56945F00105DF
:10045800A561A46904F001040194019C9D08AE1CE7
:10046800144C54F8267003F00304A6000F24B4407B
:1004780027EA0407B0F1904F3FF460AF104CA04258
:100488000ED004F58064A0420CD004F58064A0422C
:100498000AD004F58064A0423FF44EAF05244EE72D
:1004A80001244CE702244AE7032448E702B0F0BCE1
:1004B800704700BF000001400004014000100240E6
:1004C800000400480369194201D100207047012047
:1004D80070470AB98162704781617047002800F04F
:1004E800F58270B582B00446036813F0010F3BD063
:1004F800B54B5B6803F00C03042B1ED0B24B5B6852
:1005080003F00C03082B13D06368B3F5803F68D061
:10051800002B40F0928003F1804303F504331A68FE
:1005280022F480321A601A6822F480221A605DE090
:10053800A54B5B6813F4803FE6D04FF4003393FA81
:10054800A3F3A14B19684FF4003393FAA3F3B3FA5A
:1005580083F303F01F03012202FA03F30B4203D0D3
:100568006368002B00F0B482236813F0020F00F0D8
:10057800C680954B5B6813F00C0F00F09C80924B83
:100588005B6803F00C03082B00F08F802369002BB5
:1005980000F0F380012292FAA2F3B3FA83F303F195
:1005A800845303F584139B001A60FFF74BFE05463E
:1005B800022393FAA3F3844B1968022393FAA3F353
:1005C800B3FA83F303F01F03012202FA03F30B4289
:1005D80040F0C480FFF736FE401B0228E8D903200C
:1005E80083E2794A136843F480331360764AD36A06
:1005F80023F00F03A1680B43D3626368002B36D046
:10060800FFF720FE05464FF4003393FAA3F36E4B31
:1006180019684FF4003393FAA3F3B3FA83F303F0A2
:100628001F03012202FA03F30B429DD1FFF70AFED2
:10063800401B6428E7D9032057E2B3F5A02F09D05F
:10064800614B1A6822F480321A601A6822F48022F8
:100658001A60CBE703F18043A3F53C331A6842F4F0
:1006680080221A601A6842F480321A60BEE7FFF7E7
:10067800E9FD05464FF4003393FAA3F3524B19688A
:100688004FF4003393FAA3F3B3FA83F303F01F0391
:10069800012202FA03F30B423FF466AFFFF7D2FDE3
:1006A800401B6428E6D903201FE2474B5B6813F41C
:1006B800803F7FF46BAF022393FAA3F3424B196890
:1006C800022393FAA3F3B3FA83F303F01F0301227F
:1006D80002FA03F30B4204D02369934201D00120AC
:1006E80003E23948036823F0F8036169F82292FAB3
:1006F800A2F2B2FA82F201FA02F21343036023680B
:1007080013F0080F00F08C80A369002B60D0012142
:1007180091FAA1F2B2FA82F22C4B13449B001960B1
:10072800FFF790FD0546022393FAA3F293FAA3F28A
:1007380093FAA3F2244A516A93FAA3F3B3FA83F320
:1007480003F01F03012202FA03F30B4268D1FFF7FB
:1007580079FD401B0228E6D90320C6E11A48036840
:1007680023F0F8036169F82292FAA2F2B2FA82F24F
:1007780001FA02F213430360C1E7012393FAA3F3DA
:10078800B3FA83F303F1845303F584139B00002227
:100798001A60FFF757FD0546022393FAA3F30A4BA5
:1007A8001968022393FAA3F3B3FA83F303F01F0340
:1007B800012202FA03F30B42A1D0FFF743FD401BCD
:1007C8000228E9D9032090E100100240208190100E
:1007D800012292FAA2F2B2FA82F2C04B13449B00B1
:1007E80000221A60FFF72EFD0546022393FAA3F2B2
:1007F80093FAA3F293FAA3F2B94A516A93FAA3F3CC
:10080800B3FA83F303F01F03012202FA03F30B4246
:1008180006D0FFF717FD401B0228E6D9032064E144
:10082800236813F0040F00F0B380AD4BDB6913F0BD
:10083800805F20D1AA4BDA6942F08052DA61DB6925
:1008480003F080530193019B0125A64B1B6813F409
:10085800807F12D0E368012B23D073BB03F1804360
:1008680003F504331A6A22F001021A621A6A22F0A6
:1008780004021A621AE00025E7E79A4A136843F46B
:1008880080731360FFF7DEFC0646964B1B6813F473
:10089800807FDFD1FFF7D6FC801B6428F5D90320C1
:1008A80023E18F4A136A43F001031362E368002BC4
:1008B80041D0FFF7C7FC06462BE0052B09D0884B33
:1008C8001A6A22F001021A621A6A22F004021A62F3
:1008D800ECE7834B1A6A42F004021A621A6A42F081
:1008E80001021A62E2E77E4B196A022393FAA3F324
:1008F800B3FA83F303F01F03012202FA03F3194248
:1009080045D1FFF79FFC801B41F28833984200F2E3
:10091800E180022393FAA3F293FAA3F3B3FA83F3E1
:100928005B0943F00203022BDDD0022393FAA3F301
:100938006B4B596AD9E7FFF785FC064615E0684B0B
:10094800196A022393FAA3F3B3FA83F303F01F039C
:10095800012202FA03F3194219D0FFF773FC801B36
:1009680041F28833984200F2B780022393FAA3F247
:1009780093FAA3F3B3FA83F35B0943F00203022B60
:10098800DDD0022393FAA3F3554B596AD9E7B5BBD7
:10099800E369002B00F0A880514A526802F00C026B
:1009A800082A00F0A480022B2FD04FF0807393FA0E
:1009B800A3F3B3FA83F303F1845303F584139B0081
:1009C80000221A60FFF73EFC04464FF0007393FACA
:1009D800A3F3434B19684FF0007393FAA3F3B3FAE8
:1009E80083F303F01F03012202FA03F319426BD0C9
:1009F800FFF728FC001B0228E7D9032075E0384AD6
:100A0800D36923F08053D361C2E74FF0807393FA20
:100A1800A3F3B3FA83F303F1845303F584139B0020
:100A280000221A60FFF70EFC05464FF0007393FA98
:100A3800A3F32B4B19684FF0007393FAA3F3B3FA9F
:100A480083F303F01F03012202FA03F3194206D0CD
:100A5800FFF7F8FB401B0228E7D9032045E02049AF
:100A68004B6823F47413626A206A024313434B6091
:100A78004FF0807393FAA3F3B3FA83F303F184532B
:100A880003F584139B0001221A60FFF7DBFB044681
:100A98004FF0007393FAA3F3114B19684FF00073EA
:100AA80093FAA3F3B3FA83F303F01F03012202FAC4
:100AB80003F3194206D1FFF7C5FB001B0228E7D94B
:100AC800032012E0002010E000200EE00120704713
:100AD80001200AE0032008E0032006E020819010AE
:100AE8000010024000700040002002B070BD0120DC
:100AF800FBE700BF10B4174B5C6804F00C03082B2D
:100B080026D104F470124FF4701393FAA3F3B3FAD6
:100B180083F322FA03F31049C85C0E4BDB6A03F037
:100B28000F030F2292FAA2F2B2FA82F2D3400B44D8
:100B38001A7C14F4803F05D1084B03FB00F05DF8E4
:100B4800044B7047064BB3FBF2F300FB03F0F6E7E8
:100B58000348F4E700100240C019000800093D00EE
:100B680000127A00002800F0C08070B50446614B7E
:100B78001B6803F007038B420CD25E4A136823F00C
:100B880007030B431360136803F007038B4201D07C
:100B9800012070BD236813F0020F06D0564A53682F
:100BA80023F0F003A068034353600D46236813F055
:100BB800010F5AD06368012B2DD0022B40D002229E
:100BC80092FAA2F24C4A1068022292FAA2F2B2FAFF
:100BD80082F202F01F02012101FA02F2104200F033
:100BE800868045494A6822F0030213434B60FFF7A9
:100BF80029FB0646404B5B6803F00C036268B3EBC5
:100C0800820F32D0FFF71EFB801B41F288339842D7
:100C1800F0D90320BDE74FF4003292FAA2F2364A27
:100C280010684FF4003292FAA2F2B2FA82F202F09D
:100C38001F02012101FA02F20242D2D10120A8E7E3
:100C48004FF0007292FAA2F22B4A10684FF000722D
:100C580092FAA2F2B2FA82F202F01F02012101FA1C
:100C680002F21042BDD1012093E7224B1B6803F02A
:100C78000703AB420CD91F4A136823F007032B4321
:100C88001360136803F00703AB4201D0012080E72B
:100C9800236813F0040F06D0174A536823F4E0635F
:100CA800E1680B435360236813F0080F07D0124A1A
:100CB800536823F46053216943EAC1035360FFF783
:100CC80019FF0D4B5B6803F0F003F02292FAA2F2D1
:100CD800B2FA82F2D340094AD35CD840084B186074
:100CE8000020FFF76DFA002053E70120704701202C
:100CF8004FE700BF0020024000100240E019000842
:100D080008000020F8B505460F4616461C4639E08F
:100D18002CB1FFF797FA069BC01AA04232D32A6873
:100D2800536823F0E00353606B68B3F5827F0BD000
:100D3800AB6AB3F5005F14D0012385F85D3000235A
:100D480085F85C30032025E0AB68B3F5004F02D08E
:100D5800B3F5806FECD12A68136823F04003136061
:100D6800E6E72A68136823F4005313602A681368B7
:100D780043F400531360DFE70123B34209D0B4F111
:100D8800FF3FC5D12B689B6837EA0303F4D00023E3
:100D9800F3E70020F8BDF0B583B007460C461546CA
:100DA8001E4602E0B6F1FF3F10D13A68936823402F
:100DB800AB423FD0B4F5C06FF4D1002DF2D1137B14
:100DC800DBB28DF807309DF80730EBE72EB1FFF75F
:100DD80039FA089BC01AB042E7D33A68536823F03F
:100DE800E00353607B68B3F5827F0BD0BB6AB3F531
:100DF800005F14D0012387F85D30002387F85C304A
:100E0800032018E0BB68B3F5004F02D0B3F5806F3C
:100E1800ECD13A68136823F040031360E6E73A68B8
:100E2800136823F4005313603A68136843F40053BB
:100E38001360DFE7002003B0F0BD70B582B0044650
:100E48000D46164600920B4600224FF4C051FFF79C
:100E5800A2FFB8B900962B46002280212046FFF752
:100E680051FFB8B900962B4600224FF4C0612046C6
:100E7800FFF791FF034650B1236E43F0200323662A
:100E8800032304E0236E43F020032366032318465C
:100E980002B070BD236E43F0200323660323F6E7F8
:100EA80070B582B004460D4616464368B3F5827F96
:100EB8000FD000962B46002280212046FFF722FF04
:100EC800034698B96268B2F5827F15D0184602B019
:100ED80070BD8368B3F5004F02D0B3F5806FE8D1D9
:100EE8002268136823F040031360E2E7236E43F09F
:100EF800200323660323E9E7A268B2F5004F02D076
:100F0800B2F5806FE2D100962B4600224FF4C06103
:100F18002046FFF740FF03460028D7D0236E43F052
:100F2800200323660323D1E7002858D010B50446D0
:100F38000023836290F85D30002B45D0022384F8AB
:100F48005D302268136823F040031360E368B3F54B
:100F5800E06F3ED90022B3F5706F04D0B3F5E06FAF
:100F680001D00021A162216B21B9B3F5E06F33D91B
:100F7800022323636368A1680B4321690B436169FA
:100F88000B43A16901F400710B43E1690B43216A2A
:100F98000B43A06A216803430B60638B03F00403CF
:100FA800616A0B43616B0B43E1680B432168134390
:100FB8004B602268D36923F40063D3610020206664
:100FC800012384F85D3010BD80F85C3000F0C8FB68
:100FD800B4E74FF48052BEE701232363CAE7012038
:100FE80070472DE9F04182B01E4690F85C30012B25
:100FF80000F0D68004460D469046012380F85C3008
:10100800FFF720F9074694F85D30DBB2012B09D0D1
:101018000220012384F85D30002384F85C3002B09C
:10102800BDE8F081002D00F0B180B8F1000F00F0AC
:10103800AF80032384F85D3000232366A563A4F8FA
:101048003C80A4F83E802364A4F84430A4F84630D9
:101058002365E364A368B3F5004F1BD023681A68BF
:1010680012F0400F03D11A6842F040021A60E36898
:10107800B3F5E06F31D963681BB1E38F9BB2012BE5
:1010880013D1236835F8022BDA60E38F013B9BB25A
:10109800E3870AE02268136843F480431360DDE7BE
:1010A800002E77D0B6F1FF3F10D1E38F9BB2002B13
:1010B80057D023689A6812F0020FF1D035F8022B46
:1010C800DA60E38F013B9BB2E387EEE7FFF7BAF8FC
:1010D800C01BB042E9D303209BE763681BB1E38FD1
:1010E8009BB2012B22D1E38F9BB2012B08D9236835
:1010F80035F8022BDA60E38F023B9BB2E38715E0F9
:1011080023682A781A73E38F013B9BB2E387013582
:101118000CE02A781A73E38F013B9BB2E387013511
:1011280004E0002E38D0B6F1FF3F13D1E38F9BB215
:10113800BBB123689A6812F0020FF2D0E28F92B224
:10114800012AE6D935F8022BDA60E38F023B9BB21D
:10115800E387EBE7FFF776F8C01BB042E6D303203E
:1011680057E73A4631462046FFF767FE08B1202385
:101178002366A36833B901932368DA6801929B68F0
:101188000193019B236E4BB9002042E7012040E701
:1011980001203EE703203CE703203AE7012038E737
:1011A80002203CE72DE9F8439846089D90F85C300A
:1011B800012B00F04F8104460F461646012380F8A4
:1011C8005C30FFF73FF8814694F85D30DBB2626827
:1011D800012B13D0B2F5827F08D00220012384F8B6
:1011E8005D30002384F85C30BDE8F883A268002AEB
:1011F80040F02681042B01D00220EFE7002F00F0F9
:101208002181002E00F02081B8F1000F00F01E812E
:1012180094F85D30DBB2042B02D0052384F85D30EE
:10122800002323662664A4F84680A4F84480A763B4
:10123800A4F83E80A4F83C80E3642365E368B3F532
:10124800E06F04D8B4F846309BB2012B22D922684B
:10125800536823F48053536023681A6812F0400FD0
:1012680003D11A6842F040021A60E368B3F5E06FF0
:1012780054D963681BB1E38F9BB2012B07D1236854
:1012880037F8022BDA60E38F013B9BB2E3874FF01C
:1012980001081CE02268536843F480535360DBE77D
:1012A800B4F846309BB27BB123689A6812F0010FFC
:1012B8000AD0DB6826F8023BB4F84630013B9BB203
:1012C800A4F846304FF00108B5F1FF3F1ED1E38F77
:1012D8009BB22BB9B4F846309BB2002B00F0A48027
:1012E800B8F1000FDCD0E38F9BB2002BD8D0236875
:1012F8009A6812F0020FD3D037F8022BDA60E38F26
:10130800013B9BB2E3874FF00008C9E7FEF79AFF5D
:10131800A0EB0900A842DAD303205FE763681BB19A
:10132800E38F9BB2012B0BD1E38F9BB2012B0AD920
:10133800236837F8022BDA60E38F023B9BB2E3871E
:101348004FF0010832E023683A781A73E38F013BC3
:101358009BB2E3870137F3E73A781A73E38F013BCF
:101368009BB2E38701374FF00008B4F846309BB2D0
:10137800CBB123689A6812F0010F14D0B4F8462054
:1013880092B2012A3CD9DB6826F8023BB4F8463011
:10139800023B9BB2A4F84630B4F846309BB2012B0E
:1013A80026D94FF00108B5F1FF3F35D1E38F9BB245
:1013B80023B9B4F846309BB2002B35D0B8F1000FF2
:1013C800D3D0E38F9BB2002BCFD023689A6812F05A
:1013D800020FCAD0E28F92B2012ABDD937F8022B88
:1013E800DA60E38F023B9BB2E3874FF00008BCE76B
:1013F8002268536843F4805353604FF00108D2E7E2
:101408001B7B3370B4F84630013B9BB2A4F84630DE
:1014180001364FF00108C6E7FEF714FFA0EB0900FC
:10142800A842C3D30320D9E64A4629462046FFF7F7
:1014380004FD08B120232366236E4BB90020CDE6B6
:101448000220CBE60120C9E60120C7E60120C5E657
:101458000120C3E60220C7E62DE9F04182B0044628
:101468000D4617461E464368B3F5827F19D094F897
:101478005C30012B00F0B280012384F85C30FEF769
:10148800E1FE804694F85D30DBB2012B15D00220D6
:10149800012384F85D30002384F85C3002B0BDE895
:1014A800F0818368002BE2D1042380F85D30009638
:1014B80013460A46FFF776FEF0E7002D00F0848019
:1014C800002F00F08380042384F85D300023236616
:1014D8002564A4F84470A4F84670A363A387E3873F
:1014E800E3642365E368B3F5E06F16D922685368AF
:1014F80023F480535360A368B3F5004F13D02368D7
:101508001A6812F0400F03D11A6842F040021A60BC
:10151800E368B3F5E06F11D92FE02268536843F40C
:1015280080535360E7E72268136823F4804313600D
:10153800E5E7002E4CD0B6F1FF3F12D1B4F84630A3
:101548009BB2ABB323689A6812F0010FF1D01B7BF2
:1015580005F8013BB4F84630013B9BB2A4F846308D
:10156800ECE7FEF76FFEA0EB0800B042E6D30320DD
:101578008EE77EB3B6F1FF3F12D1B4F846309BB286
:10158800B3B123689A6812F0010FF2D0DB6825F82E
:10159800023BB4F84630013B9BB2A4F84630ECE776
:1015A800FEF750FEA0EB0800B042E6D303206FE739
:1015B800424631462046FFF773FC08B120232366D4
:1015C800236E4BB9002063E7012061E701205FE744
:1015D80003205DE703205BE7012059E702205DE770
:1015E80070B588B000240394049405940694079475
:1015F8001F4B5A6942F400325A615A6902F40032A8
:101608000192019A5A6942F400125A615B6903F423
:1016180000130293029B224610214FF09040FEF7E0
:1016280058FF144E22464FF47F413046FEF751FFD3
:10163800012503950494059403A94FF09040FEF703
:1016480077FE1023039304950594069403A94FF09D
:101658009040FEF76DFE4FF47F4303930495059485
:10166800069403A93046FEF763FE08B070BD00BFBC
:10167800001002400010004808B50E480E4B0360E9
:101688004FF482734360002383604FF44072C2605A
:10169800036143614FF4007282613022C2610362C8
:1016A800436283620722C262036308234363FFF72E
:1016B8003BFC08BD2C0000200030014010B590B064
:1016C8002422002107A800F062F900240194029462
:1016D8000394049405940223069301230A93102388
:1016E8000B9306A8FEF7FAFE0F23019302940394C6
:1016F80004940594214601A8FFF734FA10B010BDF0
:1017080000B597B0FEF780FDFFF7D8FFFFF768FF39
:10171800FFF7B2FF054C542204F11001684600F0AF
:101728002BF994E80F0000F08FF8F3E72C00002065
:1017380082B00A4B9A6942F001029A619A6902F0F2
:1017480001020092009ADA6942F08052DA61DB699C
:1017580003F080530193019B02B0704700100240D0
:1017680000B589B000230393049305930693079368
:101778000268144B9A4202D009B05DF804FB03F5E5
:1017880060439A6942F480529A619A6902F48052DD
:101798000192019A5A6942F400325A615B6903F472
:1017A80000330293029BE023039302230493032351
:1017B80006930523079303A94FF09040FEF7B8FD61
:1017C800DAE700BF003001407047FEE7FEE7FEE7BA
:1017D800FEE770477047704708B5FEF727FD08BD5C
:1017E8001549D1F8883043F47003C1F88830134B99
:1017F8001A6842F001021A605868114A02405A6099
:101808001A6822F0847222F480321A601A6822F46C
:1018180080221A605A6822F4FE025A60DA6A22F0BC
:101828000F02DA62186B074A02401A6300229A60B4
:101838004FF000638B60704700ED00E0001002403D
:101848000CC07FF8CCFC00FF10B582B029238DF8BE
:10185800073001218DF806104FF09040FEF732FE58
:1018680018B30A20FEF7F4FC002210214FF0904034
:10187800FEF72FFE174C0A2301220DF1070120461F
:10188800FFF7AFFB0A2301220DF106012046FFF7FF
:10189800E3FD9DF80630012B14D000224FF480712F
:1018A8000D48FEF716FE02B010BD012210214FF0C0
:1018B8009040FEF70EFE01224FF480710648FEF7B5
:1018C80008FEF0E701224FF400710348FEF701FE1D
:1018D800E3E700BF2C00002000100048DFF834D0F8
:1018E800002103E00C4B5B58435004310B480C4B70
:1018F80042189A42F6D30B4A02E0002342F8043B0E
:10190800094B9A42F9D3FFF76BFF00F011F8FFF784
:10191800F7FEFEE700A00020001A000800000020E3
:101928000C0000200C00002090000020FEE70000C2
:1019380070B50D4E0D4CA41BA4100025A54209D16D
:101948000B4E0C4C00F02CF8A41BA4100025A5424B
:1019580005D170BD56F8253098470135EEE756F8A1
:10196800253098470135F2E7F8190008F8190008FA
:10197800F8190008FC19000810B5431E0A449142E2
:1019880000D110BD11F8014B03F8014FF7E70244ED
:101998000346934200D1704703F8011BF9E70000A2
:1019A800F8B500BFF8BC08BC9E467047F8B500BF44
:0819B800F8BC08BC9E46704714
:1019C00002030405060708090A0B0C0D0E0F101080
:1019D0000102030405060708090A0B0C0D0E0F107F
:1019E00000000000000000000102030406070809CF
:0819F0000000000001020304E5
:0419F800AD01000835
:0419FC008901000855
:0C1A0000010000001000000000127A003D
:04000005080018E5F2
:00000001FF
