:020000040800F2
:1000000000A00020B13A00087D3500087F350008C7
:1000100081350008833500088535000800000000A0
:10002000000000000000000000000000873500080C
:1000300089350008000000008B3500088D35000868
:10004000013B0008013B0008013B0008013B0008A0
:10005000013B0008013B0008013B0008013B000890
:10006000013B0008013B0008013B0008013B000880
:10007000013B0008013B0008013B0008013B000870
:10008000013B0008013B0008013B0008013B000860
:10009000013B0008013B0008013B0008013B000850
:1000A000013B0008013B0008013B0008013B000840
:1000B00095350008A9350008BD350008013B00084A
:1000C000013B0008013B0008013B0008013B000820
:1000D000013B0008013B0008013B0008013B000810
:1000E000013B0008013B0008013B0008013B000800
:1000F000013B0008013B0008013B0008013B0008F0
:10010000000000000000000000000000013B0008AB
:10011000013B0008013B0008013B0008CD35000809
:10012000013B0008013B0008013B0008013B0008BF
:10013000013B0008013B0008000000000000000037
:10014000013B0008013B0008013B000800000000E3
:10015000000000000000000000000000000000009F
:100160000000000000000000013B0008013B000807
:10017000013B00080000000000000000000000003B
:0801800000000000013B000833
:1001900010B5054C237833B9044B13B10448AFF3C1
:1001A00000800123237010BD7800002000000000B3
:1001B0007443000808B5034B1BB103490348AFF370
:1001C000008008BD000000007C000020744300088F
:1001D00081F0004102E000BF83F0004330B54FEAF8
:1001E00041044FEA430594EA050F08BF90EA020F65
:1001F0001FBF54EA000C55EA020C7FEA645C7FEAF8
:10020000655C00F0E2804FEA5454D4EB5555B8BF1A
:100210006D420CDD2C4480EA020281EA030382EA8B
:10022000000083EA010180EA020281EA0303362D1D
:1002300088BF30BD11F0004F4FEA01314FF4801CF0
:100240004CEA113102D0404261EB410113F0004F02
:100250004FEA03334CEA133302D0524263EB4303B9
:1002600094EA050F00F0A780A4F10104D5F1200E57
:100270000DDB02FA0EFC22FA05F2801841F10001B2
:1002800003FA0EF2801843FA05F359410EE0A5F186
:1002900020050EF1200E012A03FA0EFC28BF4CF0B7
:1002A000020C43FA05F3C01851EBE37101F000456D
:1002B00007D54FF0000EDCF1000C7EEB00006EEB7A
:1002C0000101B1F5801F1BD3B1F5001F0CD3490804
:1002D0005FEA30004FEA3C0C04F101044FEA44525B
:1002E00012F5800F80F09A80BCF1004F08BF5FEAE2
:1002F000500C50F1000041EB045141EA050130BDC2
:100300005FEA4C0C404141EB010111F4801FA4F164
:100310000104E9D191F0000F04BF01460020B1FAB9
:1003200081F308BF2033A3F10B03B3F120020CDAF1
:100330000C3208DD02F1140CC2F10C0201FA0CF0CF
:1003400021FA02F10CE002F11402D8BFC2F1200C34
:1003500001FA02F120FA0CFCDCBF41EA0C019040EA
:10036000E41AA2BF01EB0451294330BD6FEA040433
:100370001F3C1CDA0C340EDC04F11404C4F120021E
:1003800020FA04F001FA02F340EA030021FA04F330
:1003900045EA030130BDC4F10C04C4F1200220FA87
:1003A00002F001FA04F340EA0300294630BD21FAC5
:1003B00004F0294630BD94F0000F83F4801306BF8B
:1003C00081F480110134013D4EE77FEA645C18BF7F
:1003D0007FEA655C29D094EA050F08BF90EA020F16
:1003E00005D054EA000C04BF1946104630BD91EA0E
:1003F000030F1EBF0021002030BD5FEA545C05D111
:100400004000494128BF41F0004130BD14F580044F
:100410003CBF01F5801130BD01F0004545F0FE41C3
:1004200041F470014FF0000030BD7FEA645C1ABFF8
:10043000194610467FEA655C1CBF0B46024650EA2F
:10044000013406BF52EA033591EA030F41F400215B
:1004500030BD00BF90F0000F04BF0021704730B5E1
:100460004FF4806404F132044FF000054FF00001B6
:1004700050E700BF90F0000F04BF0021704730B577
:100480004FF4806404F1320410F0004548BF40424C
:100490004FF000013EE700BF42004FEAE2014FEAA1
:1004A00031014FEA02701FBF12F07F4393F07F4F7C
:1004B00081F06051704732F07F4208BF704793F07F
:1004C0007F4F04BF41F40021704730B54FF4607492
:1004D00001F0004521F000411CE700BF50EA010295
:1004E00008BF704730B54FF000050AE050EA01023E
:1004F00008BF704730B511F0004502D5404261EBAE
:1005000041014FF4806404F132045FEA915C3FF4EE
:10051000D8AE4FF003025FEADC0C18BF03325FEA8B
:10052000DC0C18BF033202EBDC02C2F1200300FA3C
:1005300003FC20FA02F001FA03FE40EA0E0021FA61
:1005400002F11444BDE600BF4FEA410212F5001269
:1005500015D211D56FF47873B3EB625212D94FEA0A
:10056000C12343F0004343EA505311F0004F23FAF4
:1005700002F018BF404270474FF00000704750EA49
:10058000013005D111F0004008BF6FF00040704706
:100590004FF00000704700BF0000000000000000A6
:1005A00001F0FF01102A2BDB10F0070F08D010F824
:1005B000013B013A8B422DD010F0070F42B3F6D128
:1005C000F0B441EA012141EA014122F007047FF041
:1005D00000070023F0E80256083C85EA010586EA98
:1005E000010685FA47F5A3FA87F586FA47F6A5FAD4
:1005F00087F68EB9EED1F0BC01F0FF0102F00702E0
:1006000032B110F8013B013A83EA010313B1F8D18A
:100610000020704701387047002D06BF354603386B
:10062000073815F0010F07D1013015F4807F02BFA4
:10063000013015F4C03F0130F0BC0138704700BFF5
:1006400010B504460E4B18784FF47A73B3FBF0F3F1
:100650000C4A1068B0FBF3F000F0A0F868B90F2C5A
:1006600001D901200AE0002221464FF0FF3000F0BE
:1006700055F8034B5C60002000E0012010BD00BF76
:10068000000000201000002008B5074A136843F05E
:1006900010031360032000F02FF80020FFF7D0FFB5
:1006A00002F050FE002008BD00200240034A1168FD
:1006B000034B1B780B441360704700BFF800002009
:1006C00000000020014B1868704700BFF8000020B0
:1006D00038B50446FFF7F6FF0546B4F1FF3F02D0F8
:1006E000044B1B781C44FFF7EDFF401BA042FAD3DC
:1006F00038BD00BF00000020074AD36823F4E06340
:100700001B041B0C000200F4E060184340F0BF60C3
:1007100040F40030D060704700ED00E030B4174B7B
:10072000DB68C3F30223C3F10704042C28BF0424AD
:100730001D1D062D18D9033B4FF0FF3505FA04F4B3
:1007400021EA0401994005FA03F322EA030319435D
:1007500000280BDB0901C9B200F1604000F56140DF
:1007600080F8001330BC70470023E5E700F00F006D
:100770000901C9B2024B1954F4E700BF00ED00E0D3
:1007800014ED00E000F01F02400901239340024AEB
:1007900042F82030704700BF00E100E00138B0F1BE
:1007A000807F0AD2064B5860064AF02182F8231057
:1007B0000020986007221A6070470120704700BF30
:1007C00010E000E000ED00E0F0B482B0002336E07D
:1007D000042400E00024B4403C4302355B4E46F85C
:1007E00025405B4C2568D44304EA05064F6817F49E
:1007F000803F01D042EA0506554D2E606D6804EA3F
:1008000005064F6817F4003F01D042EA0506504D37
:100810006E60AD6804EA05064F6817F4801F01D0CA
:1008200042EA05064A4DAE60ED682C404E6816F46B
:10083000001F01D042EA0504454AD46001330A682A
:1008400032FA03F47ED001249C402240F6D04D6859
:10085000022D01D0122D10D1DE08083650F826C026
:1008600003F00705AF000F25BD402CEA050C0D690C
:10087000BD4045EA0C0540F8265006685F00032598
:10088000BD40ED4305EA060C4E6806F00306BE4087
:1008900046EA0C0606604E6806F1FF3CBCF1010F0B
:1008A00003D9112E01D0122E10D1866805EA060C4C
:1008B000CE68BE4046EA0C068660466826EA040416
:1008C0004E68C6F300169E4026434660C468254025
:1008D0008C68BC402C43C4604C6814F0805FADD081
:1008E0001C4CA56945F00105A561A46904F001044B
:1008F0000194019C9D08AE1C144C54F8267003F022
:100900000304A6000F24B44027EA0407B0F1904F77
:100910003FF460AF104CA0420ED004F58064A042BA
:100920000CD004F58064A0420AD004F58064A04293
:100930003FF44EAF05244EE701244CE702244AE77A
:10094000032448E702B0F0BC704700BF000001403C
:100950000004014000100240000400480AB981620E
:100960007047816170470000002800F0F58270B583
:1009700082B00446036813F0010F3BD0B54B5B68AF
:1009800003F00C03042B1ED0B24B5B6803F00C0386
:10099000082B13D06368B3F5803F68D0002B40F07C
:1009A000928003F1804303F504331A6822F4803205
:1009B0001A601A6822F480221A605DE0A54B5B6819
:1009C00013F4803FE6D04FF4003393FAA3F3A14B26
:1009D00019684FF4003393FAA3F3B3FA83F303F0E7
:1009E0001F03012202FA03F30B4203D06368002BBA
:1009F00000F0B482236813F0020F00F0C680954B1C
:100A00005B6813F00C0F00F09C80924B5B6803F066
:100A10000C03082B00F08F802369002B00F0F3807B
:100A2000012292FAA2F3B3FA83F303F1845303F59C
:100A300084139B001A60FFF745FE0546022393FAD4
:100A4000A3F3844B1968022393FAA3F3B3FA83F355
:100A500003F01F03012202FA03F30B4240F0C480AB
:100A6000FFF730FE401B0228E8D9032083E2794AD1
:100A7000136843F480331360764AD36A23F00F037C
:100A8000A1680B43D3626368002B36D0FFF71AFED0
:100A900005464FF4003393FAA3F36E4B19684FF4F5
:100AA000003393FAA3F3B3FA83F303F01F03012295
:100AB00002FA03F30B429DD1FFF704FE401B6428AA
:100AC000E7D9032057E2B3F5A02F09D0614B1A688C
:100AD00022F480321A601A6822F480221A60CBE76E
:100AE00003F18043A3F53C331A6842F480221A6074
:100AF0001A6842F480321A60BEE7FFF7E3FD05464C
:100B00004FF4003393FAA3F3524B19684FF40033B8
:100B100093FAA3F3B3FA83F303F01F03012202FA5B
:100B200003F30B423FF466AFFFF7CCFD401B642894
:100B3000E6D903201FE2474B5B6813F4803F7FF444
:100B40006BAF022393FAA3F3424B1968022393FA83
:100B5000A3F3B3FA83F303F01F03012202FA03F3B2
:100B60000B4204D02369934201D0012003E23948AB
:100B7000036823F0F8036169F82292FAA2F2B2FA4C
:100B800082F201FA02F213430360236813F0080FA4
:100B900000F08C80A369002B60D0012191FAA1F2B2
:100BA000B2FA82F22C4B13449B001960FFF78AFDC6
:100BB0000546022393FAA3F293FAA3F293FAA3F25F
:100BC000244A516A93FAA3F3B3FA83F303F01F03A1
:100BD000012202FA03F30B4268D1FFF773FD401BB9
:100BE0000228E6D90320C6E11A48036823F0F80377
:100BF0006169F82292FAA2F2B2FA82F201FA02F2E2
:100C000013430360C1E7012393FAA3F3B3FA83F319
:100C100003F1845303F584139B0000221A60FFF74D
:100C200051FD0546022393FAA3F30A4B19680223E8
:100C300093FAA3F3B3FA83F303F01F03012202FA3A
:100C400003F30B42A1D0FFF73DFD401B0228E9D979
:100C5000032090E10010024020819010012292FABE
:100C6000A2F2B2FA82F2C04B13449B0000221A6037
:100C7000FFF728FD0546022393FAA3F293FAA3F2A5
:100C800093FAA3F2B94A516A93FAA3F3B3FA83F33E
:100C900003F01F03012202FA03F30B4206D0FFF711
:100CA00011FD401B0228E6D9032064E1236813F0FC
:100CB000040F00F0B380AD4BDB6913F0805F20D1EF
:100CC000AA4BDA6942F08052DA61DB6903F08053A3
:100CD0000193019B0125A64B1B6813F4807F12D062
:100CE000E368012B23D073BB03F1804303F5043386
:100CF0001A6A22F001021A621A6A22F004021A62C7
:100D00001AE00025E7E79A4A136843F480731360FA
:100D1000FFF7D8FC0646964B1B6813F4807FDFD1A3
:100D2000FFF7D0FC801B6428F5D9032023E18F4A0C
:100D3000136A43F001031362E368002B41D0FFF70D
:100D4000C1FC06462BE0052B09D0884B1A6A22F01D
:100D500001021A621A6A22F004021A62ECE7834B5B
:100D60001A6A42F004021A621A6A42F001021A6216
:100D7000E2E77E4B196A022393FAA3F3B3FA83F3F3
:100D800003F01F03012202FA03F3194245D1FFF7D2
:100D900099FC801B41F28833984200F2E1800223E3
:100DA00093FAA3F293FAA3F3B3FA83F35B0943F044
:100DB0000203022BDDD0022393FAA3F36B4B596A93
:100DC000D9E7FFF77FFC064615E0684B196A022356
:100DD00093FAA3F3B3FA83F303F01F03012202FA99
:100DE00003F3194219D0FFF76DFC801B41F28833E1
:100DF000984200F2B780022393FAA3F293FAA3F386
:100E0000B3FA83F35B0943F00203022BDDD0022324
:100E100093FAA3F3554B596AD9E7B5BBE369002BA5
:100E200000F0A880514A526802F00C02082A00F033
:100E3000A480022B2FD04FF0807393FAA3F3B3FA60
:100E400083F303F1845303F584139B0000221A609B
:100E5000FFF738FC04464FF0007393FAA3F3434BBB
:100E600019684FF0007393FAA3F3B3FA83F303F016
:100E70001F03012202FA03F319426BD0FFF722FC91
:100E8000001B0228E7D9032075E0384AD36923F014
:100E90008053D361C2E74FF0807393FAA3F3B3FAA0
:100EA00083F303F1845303F584139B0000221A603B
:100EB000FFF708FC05464FF0007393FAA3F32B4BA2
:100EC00019684FF0007393FAA3F3B3FA83F303F0B6
:100ED0001F03012202FA03F3194206D0FFF7F2FBC7
:100EE000401B0228E7D9032045E020494B6823F442
:100EF0007413626A206A024313434B604FF080739D
:100F000093FAA3F3B3FA83F303F1845303F5841341
:100F10009B0001221A60FFF7D5FB04464FF00073D7
:100F200093FAA3F3114B19684FF0007393FAA3F3EC
:100F3000B3FA83F303F01F03012202FA03F3194209
:100F400006D1FFF7BFFB001B0228E7D9032012E000
:100F5000002010E000200EE00120704701200AE090
:100F6000032008E0032006E02081901000100240DA
:100F700000700040002002B070BD0120FBE700BF00
:100F800010B4174B5C6804F00C03082B26D104F452
:100F900070124FF4701393FAA3F3B3FA83F322FAA7
:100FA00003F31049C85C0E4BDB6A03F00F030F22FA
:100FB00092FAA2F2B2FA82F2D3400B441A7C14F4F1
:100FC000803F05D1084B03FB00F05DF8044B7047F0
:100FD000064BB3FBF2F300FB03F0F6E70348F4E73C
:100FE000001002408C43000800093D0000127A0006
:100FF000002800F0C08070B50446614B1B6803F008
:1010000007038B420CD25E4A136823F007030B439D
:101010001360136803F007038B4201D0012070BDF9
:10102000236813F0020F06D0564A536823F0F003EA
:10103000A068034353600D46236813F0010F5AD094
:101040006368012B2DD0022B40D0022292FAA2F22B
:101050004C4A1068022292FAA2F2B2FA82F202F02C
:101060001F02012101FA02F2104200F08680454978
:101070004A6822F0030213434B60FFF723FB064646
:10108000404B5B6803F00C036268B3EB820F32D015
:10109000FFF718FB801B41F288339842F0D90320F8
:1010A000BDE74FF4003292FAA2F2364A10684FF4CC
:1010B000003292FAA2F2B2FA82F202F01F02012189
:1010C00001FA02F20242D2D10120A8E74FF00072E9
:1010D00092FAA2F22B4A10684FF0007292FAA2F232
:1010E000B2FA82F202F01F02012101FA02F210426A
:1010F000BDD1012093E7224B1B6803F00703AB42ED
:101100000CD91F4A136823F007032B43136013689D
:1011100003F00703AB4201D0012080E7236813F0FE
:10112000040F06D0174A536823F4E063E1680B43C9
:101130005360236813F0080F07D0124A536823F452
:101140006053216943EAC1035360FFF719FF0D4B58
:101150005B6803F0F003F02292FAA2F2B2FA82F294
:10116000D340094AD35CD840084B18600020FFF7F1
:1011700067FA002053E70120704701204FE700BFC6
:1011800000200240001002400C490008100000201E
:10119000F8B505460F4616461C4639E02CB1FFF758
:1011A00091FA069BC01AA04232D32A68536823F0F2
:1011B000E00353606B68B3F5827F0BD0AB6AB3F585
:1011C000005F14D0012385F85D30002385F85C3082
:1011D000032025E0AB68B3F5004F02D0B3F5806F74
:1011E000ECD12A68136823F040031360E6E72A680D
:1011F000136823F4005313602A68136843F4005300
:101200001360DFE70123B34209D0B4F1FF3FC5D13A
:101210002B689B6837EA0303F4D00023F3E7002030
:10122000F8BDF0B583B007460C4615461E4602E0F1
:10123000B6F1FF3F10D13A6893682340AB423FD0EC
:10124000B4F5C06FF4D1002DF2D1137BDBB28DF871
:1012500007309DF80730EBE72EB1FFF733FA089B14
:10126000C01AB042E7D33A68536823F0E0035360F2
:101270007B68B3F5827F0BD0BB6AB3F5005F14D0F7
:10128000012387F85D30002387F85C30032018E0E5
:10129000BB68B3F5004F02D0B3F5806FECD13A686C
:1012A000136823F040031360E6E73A68136823F4F9
:1012B000005313603A68136843F400531360DFE788
:1012C000002003B0F0BD70B582B004460D4616464E
:1012D00000920B4600224FF4C051FFF7A2FFB8B9AD
:1012E00000962B46002280212046FFF751FFB8B917
:1012F00000962B4600224FF4C0612046FFF791FF75
:10130000034650B1236E43F020032366032304E019
:10131000236E43F0200323660323184602B070BDFA
:10132000236E43F0200323660323F6E770B582B0F3
:1013300004460D4616464368B3F5827F0FD00096EB
:101340002B46002280212046FFF722FF034698B952
:101350006268B2F5827F15D0184602B070BD83680E
:10136000B3F5004F02D0B3F5806FE8D1226813685F
:1013700023F040031360E2E7236E43F0200323666B
:101380000323E9E7A268B2F5004F02D0B2F5806FFF
:10139000E2D100962B4600224FF4C0612046FFF7B1
:1013A00040FF03460028D7D0236E43F02003236676
:1013B0000323D1E7002858D010B5044600238362E8
:1013C00090F85D30002B45D0022384F85D30226810
:1013D000136823F040031360E368B3F5E06F3ED970
:1013E0000022B3F5706F04D0B3F5E06F01D0002197
:1013F000A162216B21B9B3F5E06F33D902232363D6
:101400006368A1680B4321690B4361690B43A169C0
:1014100001F400710B43E1690B43216A0B43A06A9D
:10142000216803430B60638B03F00403616A0B4381
:10143000616B0B43E1680B43216813434B602268E7
:10144000D36923F40063D36100202066012384F86C
:101450005D3010BD80F85C3001F08CFFB4E74FF4D4
:101460008052BEE701232363CAE7012070472DE9BC
:10147000F04182B01E4690F85C30012B00F0D6801F
:1014800004460D469046012380F85C30FFF71AF9B8
:10149000074694F85D30DBB2012B09D0022001230E
:1014A00084F85D30002384F85C3002B0BDE8F08140
:1014B000002D00F0B180B8F1000F00F0AF800323E1
:1014C00084F85D3000232366A563A4F83C80A4F86B
:1014D0003E802364A4F84430A4F846302365E364D6
:1014E000A368B3F5004F1BD023681A6812F0400FB1
:1014F00003D11A6842F040021A60E368B3F5E06F66
:1015000031D963681BB1E38F9BB2012B13D12368E0
:1015100035F8022BDA60E38F013B9BB2E3870AE0E8
:101520002268136843F480431360DDE7002E77D010
:10153000B6F1FF3F10D1E38F9BB2002B57D0236849
:101540009A6812F0020FF1D035F8022BDA60E38FBF
:10155000013B9BB2E387EEE7FFF7B4F8C01BB04254
:10156000E9D303209BE763681BB1E38F9BB2012B98
:1015700022D1E38F9BB2012B08D9236835F8022BC7
:10158000DA60E38F023B9BB2E38715E023682A7899
:101590001A73E38F013B9BB2E38701350CE02A7895
:1015A0001A73E38F013B9BB2E387013504E0002E01
:1015B00038D0B6F1FF3F13D1E38F9BB2BBB12368A4
:1015C0009A6812F0020FF2D0E28F92B2012AE6D9A5
:1015D00035F8022BDA60E38F023B9BB2E387EBE73F
:1015E000FFF770F8C01BB042E6D3032057E73A4636
:1015F00031462046FFF767FE08B120232366A36823
:1016000033B901932368DA6801929B680193019BC7
:10161000236E4BB9002042E7012040E701203EE75E
:1016200003203CE703203AE7012038E702203CE7AB
:101630002DE9F8439846089D90F85C30012B00F0A6
:101640004F8104460F461646012380F85C30FFF7B1
:1016500039F8814694F85D30DBB26268012B13D013
:10166000B2F5827F08D00220012384F85D30002388
:1016700084F85C30BDE8F883A268002A40F0268137
:10168000042B01D00220EFE7002F00F02181002E73
:1016900000F02081B8F1000F00F01E8194F85D3059
:1016A000DBB2042B02D0052384F85D3000232366CF
:1016B0002664A4F84680A4F84480A763A4F83E807A
:1016C000A4F83C80E3642365E368B3F5E06F04D8D5
:1016D000B4F846309BB2012B22D92268536823F418
:1016E0008053536023681A6812F0400F03D11A68C0
:1016F00042F040021A60E368B3F5E06F54D96368C2
:101700001BB1E38F9BB2012B07D1236837F8022B63
:10171000DA60E38F013B9BB2E3874FF001081CE0E6
:101720002268536843F480535360DBE7B4F84630D3
:101730009BB27BB123689A6812F0010F0AD0DB6874
:1017400026F8023BB4F84630013B9BB2A4F8463081
:101750004FF00108B5F1FF3F1ED1E38F9BB22BB9CB
:10176000B4F846309BB2002B00F0A480B8F1000F13
:10177000DCD0E38F9BB2002BD8D023689A6812F09C
:10178000020FD3D037F8022BDA60E38F013B9BB214
:10179000E3874FF00008C9E7FEF794FFA0EB0900CC
:1017A000A842DAD303205FE763681BB1E38F9BB2E3
:1017B000012B0BD1E38F9BB2012B0AD9236837F899
:1017C000022BDA60E38F023B9BB2E3874FF0010804
:1017D00032E023683A781A73E38F013B9BB2E387C8
:1017E0000137F3E73A781A73E38F013B9BB2E38743
:1017F00001374FF00008B4F846309BB2CBB12368F4
:101800009A6812F0010F14D0B4F8462092B2012A5F
:101810003CD9DB6826F8023BB4F84630023B9BB269
:10182000A4F84630B4F846309BB2012B26D94FF0CD
:101830000108B5F1FF3F35D1E38F9BB223B9B4F86E
:1018400046309BB2002B35D0B8F1000FD3D0E38FD8
:101850009BB2002BCFD023689A6812F0020FCAD037
:10186000E28F92B2012ABDD937F8022BDA60E38FFA
:10187000023B9BB2E3874FF00008BCE72268536845
:1018800043F4805353604FF00108D2E71B7B337061
:10189000B4F84630013B9BB2A4F8463001364FF015
:1018A0000108C6E7FEF70EFFA0EB0900A842C3D36C
:1018B0000320D9E64A4629462046FFF704FD08B131
:1018C00020232366236E4BB90020CDE60220CBE611
:1018D0000120C9E60120C7E60120C5E60120C3E6D4
:1018E0000220C7E62DE9F04182B004460D461746B6
:1018F0001E464368B3F5827F19D094F85C30012B03
:1019000000F0B280012384F85C30FEF7DBFE8046F5
:1019100094F85D30DBB2012B15D00220012384F84E
:101920005D30002384F85C3002B0BDE8F08183684C
:10193000002BE2D1042380F85D30009613460A465E
:10194000FFF776FEF0E7002D00F08480002F00F016
:101950008380042384F85D30002323662564A4F883
:101960004470A4F84670A363A387E387E364236508
:10197000E368B3F5E06F16D92268536823F4805307
:101980005360A368B3F5004F13D023681A6812F0B0
:10199000400F03D11A6842F040021A60E368B3F5C1
:1019A000E06F11D92FE02268536843F480535360ED
:1019B000E7E72268136823F480431360E5E7002E0D
:1019C0004CD0B6F1FF3F12D1B4F846309BB2ABB366
:1019D00023689A6812F0010FF1D01B7B05F8013BD8
:1019E000B4F84630013B9BB2A4F84630ECE7FEF772
:1019F00069FEA0EB0800B042E6D303208EE77EB379
:101A0000B6F1FF3F12D1B4F846309BB2B3B12368B0
:101A10009A6812F0010FF2D0DB6825F8023BB4F8A7
:101A20004630013B9BB2A4F84630ECE7FEF74AFE95
:101A3000A0EB0800B042E6D303206FE742463146F0
:101A40002046FFF773FC08B120232366236E4BB9B1
:101A5000002063E7012061E701205FE703205DE7E5
:101A600003205BE7012059E702205DE790F85D0065
:101A7000704710B4036A046A24F0010404628469A4
:101A800024F0F00444EA021223F00A030B438261BB
:101A900003625DF8044B704710B4036A23F010032F
:101AA00003628469036A24F4704444EA023223F036
:101AB000A00343EA0113826103625DF8044B70479F
:101AC000836823F0700341F0070119438160704778
:101AD0000268D36843F00103D3600268136843F0DF
:101AE00001031360002070477047704770477047CC
:101AF0007047704710B5044603681A6912F0020F68
:101B000011D0DA6812F0020F0DD06FF002021A61E4
:101B10000123037703689B6913F0030F79D0FFF764
:101B2000E6FF0023237723681A6912F0040F12D00E
:101B3000DA6812F0040F0ED06FF004021A6102236B
:101B4000237723689B6913F4407F68D02046FFF712
:101B5000CEFF0023237723681A6912F0080F12D0F2
:101B6000DA6812F0080F0ED06FF008021A61042331
:101B700023772368DB6913F0030F57D02046FFF764
:101B8000B6FF0023237723681A6912F0100F12D0D2
:101B9000DA6812F0100F0ED06FF010021A610823ED
:101BA00023772368DB6913F4407F46D02046FFF794
:101BB0009EFF0023237723681A6912F0010F03D0D8
:101BC000DA6812F0010F3FD123681A6912F0800F12
:101BD00003D0DA6812F0800F3DD123681A6912F43D
:101BE000807F03D0DA6812F0800F3BD123681A6936
:101BF00012F0400F03D0DA6812F0400F39D1236899
:101C00001A6912F0200F03D0DA6812F0200F37D1D2
:101C100010BDFFF76BFF2046FFF76AFF81E7204604
:101C2000FFF764FF2046FFF763FF92E72046FFF7C8
:101C30005DFF2046FFF75CFFA3E72046FFF756FF56
:101C40002046FFF755FFB4E76FF001021A61204606
:101C5000FFF74BFFB8E76FF080021A61204600F0F3
:101C6000B6FBBAE76FF480721A61204600F0B0FB51
:101C7000BCE76FF040021A612046FFF73AFFBEE76B
:101C80006FF020021A61204600F0A0FBC0E70000C0
:101C900003682C4A90420ED0B0F1804F0BD0A2F5D1
:101CA0009432904207D002F58062904203D002F550
:101CB0009632904203D123F070034A681343214ABD
:101CC00090421AD0B0F1804F17D0A2F594329042D2
:101CD00013D002F5806290420FD002F59632904206
:101CE0000BD002F54062904207D002F5806290422C
:101CF00003D002F58062904203D123F44073CA6896
:101D0000134323F080034A69134303608B68C36263
:101D10000B6883620B4B98420FD003F50063984227
:101D20000BD003F54063984207D003F580639842D7
:101D300003D003F58063984201D10B69036301234B
:101D400043617047002C0140A8B110B5044690F8DB
:101D50003D305BB1022384F83D30211D2068FFF740
:101D600097FF012384F83D30002010BD80F83C30FF
:101D700001F072FBEEE701207047A8B110B50446F0
:101D800090F83D305BB1022384F83D30211D20687E
:101D9000FFF77EFF012384F83D30002010BD80F85E
:101DA0003C30FFF7A1FEEEE70120704730B4036A34
:101DB00023F001030362036A4468826922F48032DB
:101DC00022F073020D682A4323F002038D682B432F
:101DD0001C4DA8420FD005F50065A8420BD005F5B3
:101DE0004065A84207D005F58065A84203D005F5F7
:101DF0008065A84205D123F00803CD682B4323F06A
:101E00000403104DA8420FD005F50065A8420BD081
:101E100005F54065A84207D005F58065A84203D0C6
:101E200005F58065A84205D124F440754C692C4322
:101E30008D692C43446082614A684263036230BC0E
:101E4000704700BF002C014030B4036A23F0100338
:101E50000362036A4468826922F0807222F4E642D7
:101E60000D6842EA052223F020038D6843EA05133A
:101E7000174DA84203D005F50065A84206D123F00E
:101E80008003CD6843EA051323F04003104DA842B8
:101E90000FD005F50065A8420BD005F54065A842B6
:101EA00007D005F58065A84203D005F58065A842F6
:101EB00007D124F440644D6944EA85048D6944EAFD
:101EC0008504446082614A688263036230BC704763
:101ED000002C014030B4036A23F480730362036A68
:101EE0004468C26922F4803222F073020D682A43EA
:101EF00023F400738D6843EA0523184DA84203D0EC
:101F000005F50065A84206D123F40063CD6843EAD5
:101F1000052323F48063114DA8420FD005F5006519
:101F2000A8420BD005F54065A84207D005F58065AD
:101F3000A84203D005F58065A84207D124F4405497
:101F40004D6944EA05148D6944EA05144460C26190
:101F50004A68C263036230BC704700BF002C014076
:101F600030B4036A23F480530362036A4468C2698D
:101F700022F0807222F4E6420D6842EA052223F440
:101F800000538D6843EA05330F4DA8420FD005F585
:101F90000065A8420BD005F54065A84207D005F5BD
:101FA0008065A84203D005F58065A84204D124F4D9
:101FB00080444D6944EA85144460C2614A68026401
:101FC000036230BC704700BF002C014010B484682D
:101FD00024F47F4442EA03230B43234383605DF8E8
:101FE000044B704790F83C30012B00F0828010B514
:101FF0000446012380F83C30022380F83D3002681B
:1020000090683D4B034093600B68402B5DD010D926
:10201000702B40D01FD8502B4DD0602B34D1CA68C4
:1020200049682068FFF738FD60212068FFF748FD08
:102030002AE0102B53D008D9202B55D0302B23D198
:1020400030212068FFF73CFD1EE0EBB9002120683D
:10205000FFF736FD18E0B3F5805F0ED0B3F5005FF3
:1020600012D1CB684A6889682068FFF7AFFF226801
:10207000936843F48043936006E02268936823F4F6
:10208000803323F007039360012384F83D30002060
:1020900084F83C0010BDCB684A6889682068FFF767
:1020A00095FF2268936823F4803323F0770343F08D
:1020B00077039360E8E7CA6849682068FFF7D9FCAE
:1020C00050212068FFF7FCFCDEE7CA6849682068F9
:1020D000FFF7CFFC40212068FFF7F2FCD4E7102186
:1020E0002068FFF7EDFCCFE720212068FFF7E8FC30
:1020F000CAE70220704700BF8800FEFF10B401232A
:1021000003FA01F4036A23EA04030362036A8A40C0
:10211000134303625DF8044B7047000010B504469A
:1021200001220068FFF7EAFF23680F4A93420FD0AD
:1021300002F5006293420BD002F54062934207D051
:1021400002F58062934203D002F58062934203D18C
:102150005A6C42F400425A642268136843F0010347
:102160001360002010BD00BF002C014030B4036A92
:1021700023F480330362036A4468426D22F48032A0
:1021800022F070020D682A4323F400338D6843EA7D
:1021900005430F4DA8420FD005F50065A8420BD0AE
:1021A00005F54065A84207D005F58065A84203D033
:1021B00005F58065A84204D124F480344D6944EAD1
:1021C0000524446042654A688265036230BC7047FA
:1021D000002C014030B4036A23F480130362036AC5
:1021E0004468426D22F0807222F4E0420D6842EAB7
:1021F000052223F400138D6843EA05530F4DA842CE
:102200000FD005F50065A8420BD005F54065A84242
:1022100007D005F58065A84203D005F58065A84282
:1022200004D124F480244D6944EA85244460426545
:102230004A68C265036230BC704700BF002C014091
:1022400038B590F83C30012B00F092800D460446E2
:10225000012380F83C30022380F83D30142A1ED838
:10226000DFE802F00B1D1D1D241D1D1D381D1D1D49
:102270004B1D1D1D5F1D1D1D72000068FFF796FDA3
:102280002268936943F0080393612268936923F0FD
:10229000040393612268936929690B4393610123C5
:1022A00084F83D30002084F83C0038BD0068FFF71A
:1022B000CBFD2268936943F40063936122689369BC
:1022C00023F48063936122689369296943EA0123B7
:1022D0009361E4E70068FFF7FDFD2268D36943F0EE
:1022E0000803D3612268D36923F00403D361226811
:1022F000D36929690B43D361D1E70068FFF730FE4A
:102300002268D36943F40063D3612268D36923F45C
:102310008063D3612268D369296943EA0123D361C9
:10232000BDE70068FFF722FF2268536D43F0080302
:1023300053652268536D23F0040353652268536D7F
:1023400029690B435365AAE70068FFF743FF22683A
:10235000536D43F4006353652268536D23F4806327
:1023600053652268536D296943EA0123536596E753
:1023700002209AE790F83C30012B22D030B40123A0
:1023800080F83C300268536895680F4CA24203D035
:1023900004F50064A24203D123F470034C68234384
:1023A00023F070030C68234325F0800489682143DF
:1023B000536003689960002380F83C30184630BCB5
:1023C00070470220704700BF002C014070477047E3
:1023D000704710B403F00304D20002EB531304EB74
:1023E000830400EB042001EB00205DF8044B7047F0
:1023F000490901EBC000704700B589B000238DF892
:1024000004308DF805308DF806308DF807308DF8E2
:1024100000308DF801308DF802308DF803308DF8E2
:102420001C308DF81D308DF81E308DF81F308DF862
:10243000183008228DF819208DF81A308DF81B30CD
:102440008DF814308DF815308DF816308DF8173062
:102450008DF810308DF811308DF812308DF8133062
:102460008DF80C308DF80D308DF80E308DF80F3062
:102470008DF808308DF809208DF80A308DF80B3072
:1024800000F082FC034618B9184609B05DF804FB59
:1024900000F0E2FC03460028F6D001AA2321202008
:1024A00000F006FD6A462721242000F001FD07AA5E
:1024B0000321002000F0FCFC06AA0721042000F004
:1024C000F7FC05AA0B21082000F0F2FC04AA132156
:1024D000102000F0EDFC03AA1721142000F0E8FC06
:1024E00002AA1B21182000F0E3FC0421602000F068
:1024F00094FC0121702000F090FC00212A2000F0C3
:102500008CFCD121292000F088FC8121282000F0BA
:1025100084FC00F0B9FC03460028B5D00123B3E7E2
:1025200030B585B0044600F0E1FC10F0C0034BD09C
:102530000546C02B18BF402B2CD0802B30D005F087
:102540001805102D32D0012323709DF801109DF83D
:102550000000FFF74DFF60609DF8043023729DF886
:10256000053063729DF80630A3729DF80730E37260
:102570009DF8083023739DF8093063739DF80A3085
:10258000A3739DF80B30E3739DF80C302374012086
:1025900005B030BD0D226946902000F026FCCEE744
:1025A0000D226946942000F020FCC8E70223237026
:1025B0009DF801309DF800209DF803109DF8020061
:1025C000FFF707FF6060C7E70020E1E72DE9F04370
:1025D00085B09946BDF830601F2801D92038C0B2B7
:1025E00000230BE000EB40046500254C2C44E55C27
:1025F00004AC1C4404F8085C0133DBB2052BF1D9B0
:102600008FB21FFA82F8F3009BB206EB46014A0034
:1026100092B2BDF8341000914146384600F04AFBB2
:10262000002526E04A4608EB0401781900F084FAF8
:102630000134E4B2072C1AD804AB2B4413F8083C3D
:10264000234113F0010FF3D0012EEBD015FB06F060
:1026500014FB06F118FA81F117FA80F0CDF800901A
:102660003346324689B280B200F024FBE0E7013500
:10267000EDB2052D01D80024DCE705B0BDE8F083FC
:10268000AC4300082DE9F04383B0044689469046E8
:102690001F46BDF82850BDF82C600DE001340196AE
:1026A00000953B4642464946FFF790FF05EB450340
:1026B000590049445FFA81F920780028EED103B02F
:1026C000BDE8F08308B5002208214FF09040FEF7E6
:1026D00045F908BD00B583B002A901F8010D012339
:1026E0001A460348FEF7C3FE03B05DF804FB00BFC3
:1026F000FC00002010B50446002208214FF0904055
:10270000FEF72CF9002202214FF09040FEF726F947
:102710002046FFF7DFFF012208214FF09040FEF72F
:102720001DF910BD10B50446012202214FF0904062
:10273000FEF714F9002208214FF09040FEF70EF941
:102740002046FFF7C7FF012208214FF09040FEF717
:1027500005F910BDF8B507460D4616461C462A2059
:10276000FFF7C8FF380AFFF7DDFFF8B2FFF7DAFF1F
:10277000300AFFF7D7FFF0B2FFF7D4FF2B20FFF7A7
:10278000B9FF280AFFF7CEFFE8B2FFF7CBFF200A18
:10279000FFF7C8FFE0B2FFF7C5FF2C20FFF7AAFF45
:1027A000F8BD000010B50C4C002220212046FEF799
:1027B000D5F8C820FDF78CFF002208214FF090408B
:1027C000FEF7CCF8C820FDF783FF01222021204628
:1027D000FEF7C4F810BD00BF0008004810B504465D
:1027E0003620FFF787FF0120FDF772FF032C0CD87E
:1027F000DFE804F0020C16204820FFF793FF124B8D
:10280000F0221A804FF4A0725A8010BD2820FFF7E2
:1028100089FF0D4B4FF4A0721A80F0225A80F4E722
:102820008820FFF77FFF084BF0221A804FF4A07238
:102830005A80EAE7E820FFF775FF034B4FF4A072D8
:102840001A80F0225A80E0E70800002008B5012233
:1028500020210248FEF782F808BD00BF00080048AA
:1028600008B5FFF7F3FFFFF72DFFFFF79BFF0120F0
:10287000FFF740FF4FF47A70FDF72AFFCB20FFF7F8
:1028800039FF3920FFF74EFF2C20FFF74BFF0020C8
:10289000FFF748FF3420FFF745FF0220FFF742FF14
:1028A000CF20FFF727FF0020FFF73CFFC120FFF7F5
:1028B00039FF3020FFF736FFE820FFF71BFF8520A8
:1028C000FFF730FF0020FFF72DFF7820FFF72AFFEA
:1028D000EA20FFF70FFF0020FFF724FF0020FFF79B
:1028E00021FFED20FFF706FF6420FFF71BFF032009
:1028F000FFF718FF1220FFF715FF8120FFF712FFE7
:10290000F720FFF7F7FE2020FFF70CFFC020FFF7AE
:10291000F1FE2320FFF706FFC120FFF7EBFE10209A
:10292000FFF700FFC520FFF7E5FE3E20FFF7FAFEA8
:102930002820FFF7F7FEC720FFF7DCFE8620FFF711
:10294000F1FE3620FFF7D6FE4820FFF7EBFE3A20D7
:10295000FFF7D0FE5520FFF7E5FEB120FFF7CAFED6
:102960000020FFF7DFFE1820FFF7DCFEB620FFF7A0
:10297000C1FE0820FFF7D6FE8220FFF7D3FE2720F6
:10298000FFF7D0FEF220FFF7B5FE0020FFF7CAFEEA
:102990002620FFF7AFFE0120FFF7C4FEE020FFF77F
:1029A000A9FE0F20FFF7BEFE3120FFF7BBFE2B2054
:1029B000FFF7B8FE0C20FFF7B5FE0E20FFF7B2FEC2
:1029C0000820FFF7AFFE4E20FFF7ACFEF120FFF727
:1029D000A9FE3720FFF7A6FE0720FFF7A3FE102071
:1029E000FFF7A0FE0320FFF79DFE0E20FFF79AFEE3
:1029F0000920FFF797FE0020FFF794FEE120FFF784
:102A000079FE0020FFF78EFE0E20FFF78BFE1420CC
:102A1000FFF788FE0320FFF785FE1120FFF782FEF7
:102A20000720FFF77FFE3120FFF77CFEC120FFF774
:102A300079FE4820FFF776FE0820FFF773FE0F208F
:102A4000FFF770FE0C20FFF76DFE3120FFF76AFEE6
:102A50003620FFF767FE0F20FFF764FE1120FFF717
:102A600049FE7820FDF734FE2920FFF743FE0020C1
:102A7000FFF7B4FE08BD00002DE9F84300AF06469D
:102A80000D464FEA4108B8F5FA7F01D34FF4FA75C5
:102A9000012202214FF09040FDF760FF0022082143
:102AA0004FF09040FDF75AFF310AEB1D23F007036A
:102AB000ADEB030D6C46002303E0E1545A1CA65411
:102AC0000233AB42F9D3B8FBF5F905FB1988B9F12C
:102AD000000F0AD0002606E00A23AAB221460B48BE
:102AE000FEF7C5FC01364E45F6D30A231FFA88F2DD
:102AF00021460648FEF7BBFC012208214FF090401A
:102B0000FDF72CFFBD46BDE8F88300BFFC000020A8
:102B100038B50546074C2288638800210846FFF730
:102B200019FE2388618801FB03F12846FFF7A4FF03
:102B300038BD00BF080000205C4B1B889BB283425D
:102B400004D95A4B5B889BB28B4200D8704770B552
:102B500084B016460D460446002202214FF09040F4
:102B6000FDF7FCFE002208214FF09040FDF7F6FE35
:102B70002A20FFF7AFFD012202214FF09040FDF720
:102B8000EDFE012208214FF09040FDF7E7FE002204
:102B900008214FF09040FDF7E1FE230A8DF80C303C
:102BA000E3B28DF80D30601C00128DF80E00013379
:102BB0008DF80F303E4C0123042203A92046FEF776
:102BC00056FC012208214FF09040FDF7C7FE00227D
:102BD00002214FF09040FDF7C1FE002208214FF086
:102BE0009040FDF7BBFE2B20FFF774FD0122022170
:102BF0004FF09040FDF7B2FE012208214FF09040C7
:102C0000FDF7ACFE002208214FF09040FDF7A6FE34
:102C10002B0A8DF80830EBB28DF80930691C0912C7
:102C20008DF80A1001338DF80B300123042202A91C
:102C30002046FEF71CFC012208214FF09040FDF7D2
:102C40008DFE002202214FF09040FDF787FE00220A
:102C500008214FF09040FDF781FE2C20FFF73AFD50
:102C6000012202214FF09040FDF778FE0122082159
:102C70004FF09040FDF772FE002208214FF0904087
:102C8000FDF76CFE330A8DF804308DF805600123E2
:102C9000022201A92046FEF7EAFB012208214FF09B
:102CA0009040FDF75BFE04B070BD00BF080000203F
:102CB000FC00002038B51C46184B1B889BB2834291
:102CC0002BD91546154B5B889BB28B4225D98218B0
:102CD000013A124B1B889BB29A4203DB0F4B1D88B3
:102CE0002D1AADB20A19013A0C4B5B889BB29A427D
:102CF00003DB0A4B5C88641AA4B22A1892B26318E8
:102D00009BB2013B013A9BB292B2FFF723FD05FB58
:102D100004F1BDF81000FFF7AFFE38BD0800002039
:102D200000B583B002A901F8010D0A23012203486E
:102D3000FEF79DFB03B05DF804FB00BFE00100203F
:102D400008B50A230A4601460148FEF790FB08BD74
:102D5000E001002000B583B00A2301220DF1070134
:102D60000348FEF7BFFD9DF8070003B05DF804FBC4
:102D7000E001002008B50A230A4601460148FEF793
:102D8000B1FD08BDE001002010B5012210214FF077
:102D90009040FDF7E3FD0A240648FEF767FE012890
:102DA00005D0631E13F0FF04F6D1002010BD0120F2
:102DB000FCE700BFE001002010B50446002210210E
:102DC0004FF09040FDF7CAFD0320FFF7A9FF204612
:102DD000FFF7A6FFFFF7BEFF0446012210214FF0C8
:102DE0009040FDF7BBFD204610BD70B506460C4671
:102DF0001546002210214FF09040FDF7AFFD304600
:102E0000FFF78EFF29462046FFF7B4FF012210216D
:102E10004FF09040FDF7A2FD70BD38B505460C4659
:102E2000002210214FF09040FDF798FD0120FDF7A2
:102E30004FFC0220FFF774FF2846FFF771FF204682
:102E4000FFF76EFF0120FDF743FC012210214FF038
:102E50009040FDF783FD38BD10B580210F20FFF7AE
:102E6000DCFF64240E20FFF7A7FF00F0E0008028BD
:102E700008D00A20FDF72CFC631E13F0FF04F1D1EB
:102E8000002000E0012010BD10B500210F20FFF749
:102E9000C4FF0A240E20FFF78FFF10F0E00F05D0CB
:102EA000631E13F0FF04F5D1002010BD0120FCE7E4
:102EB00070B505460C461646002210214FF0904092
:102EC000FDF74CFD0220FFF72BFF2846FFF728FFF8
:102ED000611BC9B20131C9B23046FFF731FF01228F
:102EE00010214FF09040FDF739FD70BD10B5002264
:102EF00010214FF09040FDF731FDB020FFF710FF9B
:102F0000FFF728FF0446012210214FF09040FDF703
:102F100025FD204610BD0000024B00221A605A60B9
:102F2000704700BF9400002008B5034B01221A60CF
:102F3000FFF7F2FF08BD00BF0C00002008B5034BEF
:102F400002221A60FFF7E8FF08BD00BF0C00002056
:102F50000F4B5B680F4A116893FBF1F201FB1232D1
:102F60003AB90B4A1268C82A07DD0B4A12683221A7
:102F700051630133064A536070470749096807489F
:102F800050F822004863013201490A60F1E700BFAE
:102F9000940000200C00002060010020EC45000897
:102FA0002DE9F0438DB000240794089409940A9405
:102FB0000B94474B5A6942F480025A615A6902F4F1
:102FC00080020192019A5A6942F400225A615A69B8
:102FD00002F400220292029A5A6942F400325A61C3
:102FE0005A6902F400320392039A5A6942F40012B9
:102FF0005A615A6902F400120492049A5A6942F41E
:1030000080225A615A6902F480220592059A5A690F
:1030100042F480125A615B6903F480130693069BA5
:103020002C4E224625213046FDF798FC22461A21D7
:103030004FF09040FDF792FCDFF8A08022468021FF
:103040004046FDF78BFC244F2246FE213846FDF713
:1030500085FC052307930125089509940A9407A97F
:103060003046FDF7B1FB07950894099407A94FF086
:103070009040FDF7A9FB1A230793089509944FF098
:103080000309CDF8289007A94FF09040FDF79CFB6D
:103090002023079308950994CDF8289007A9304676
:1030A000FDF792FB80230793089509940A9407A9DA
:1030B0004046FDF789FBFE230793089509940A947F
:1030C00007A93846FDF780FB0DB0BDE8F08300BFCF
:1030D0000010024000080048000C004800100048A2
:1030E00008B50D480D4B03604FF482734360002315
:1030F00083604FF4E062C260036143614FF4007289
:103100008261C3610362436283620722C262036316
:103110004363FEF74FF908BDE00100200030014095
:1031200008B50D480D4B03604FF4827343600023D4
:1031300083604FF4E062C260036143614FF4007248
:103140008261C3610362436283620722C2620363D6
:103150004363FEF72FF908BDFC0000200038004053
:1031600030B589B000240494059406940794019422
:10317000029403940E4D0F4B2B604FF448736B6019
:10318000AC601423EB602C61AC612846FEF7DCFDDB
:103190004FF48053049304A92846FEF723FF0194BB
:1031A000039401A92846FFF7E5F809B030BD00BF38
:1031B000A00100200004004030B589B00024049430
:1031C0000594069407940194029403940E4D4FF0D5
:1031D00080432B6050236B60AC600523EB602C6157
:1031E000AC612846FEF7B0FD4FF48053049304A968
:1031F0002846FEF7F7FE0194039401A92846FFF73D
:10320000B9F809B030BD00BF4402002030B585B028
:1032100000250195029503950A4C0B4B23604FF452
:10322000FA536360A5604FF47A73E360A5612046AA
:10323000FEF78AFD0195039501A92046FFF79AF84C
:1032400005B030BD840200200014004030B58FB0BE
:1032500000240A940B940C940D94079408940994F8
:103260000094019402940394049405940694164DDA
:10327000164B2B6001236B60AC606423EB602C6108
:10328000AC612846FEF760FD4FF480530A930AA90B
:103290002846FEF7A7FE2846FEF76FFD079409941F
:1032A00007A92846FFF766F860230093019402946B
:1032B0000494224669462846FEF7C2FF284600F0DD
:1032C00033F90FB030BD00BF60010020000800409E
:1032D00010B590B02422002107A800F03DFC002486
:1032E0000194029403940494059402230693012309
:1032F0000A9310230B9306A8FDF736FB0F230193C7
:103300000294039404940594214601A8FDF770FEED
:1033100010B010BD08B5FDF7B7F9FFF7D9FFFFF7FB
:103320003FFEFFF7DDFEFFF71BFFFFF78FFFFFF705
:1033300043FFFFF76BFFFFF7F3FE00F0A3F900F088
:1033400005FBFCE782B00A4B9A6942F001029A61E0
:103350009A6902F001020092009ADA6942F0805202
:10336000DA61DB6903F080530193019B02B070477F
:103370000010024070B58AB00023059306930793AE
:103380000893099303682F4A934204D02E4A93422C
:1033900022D00AB070BD2D4B9A6942F480529A61D6
:1033A0009A6902F480520092009A5A6942F40032FB
:1033B0005A615B6903F400330193019BE023059399
:1033C00002230693032308930523099305A94FF0CD
:1033D0009040FDF7F9F9DCE71C4BDA6942F48042D2
:1033E000DA61DA6902F480420292029A5A6942F47E
:1033F00080025A615A6902F480020392039A5A6960
:1034000042F480225A615B6903F480230493049B95
:103410004FF40073059302260696032508950524AC
:10342000099405A90A48FDF7CFF94FF440430593E5
:103430000696002307930895099405A90548FDF70A
:10344000C3F9A6E7003001400038004000100240F8
:10345000001400480004004800B585B00368B3F1CB
:10346000804F0BD02C4A93421CD02C4A93422CD034
:103470002B4A93423CD005B05DF804FB03F50433BE
:10348000DA6942F00102DA61DB6903F001030093BB
:10349000009B002211461C20FDF740F91C20FDF77F
:1034A00071F9E8E71F4BDA6942F00202DA61DB6981
:1034B00003F002030193019B002211461D20FDF73A
:1034C0002DF91D20FDF75EF9D5E7164BDA6942F0BC
:1034D0000402DA61DB6903F004030293029B002219
:1034E00011461E20FDF71AF91E20FDF74BF9C2E721
:1034F0000C4BDA6942F02002DA61DB6903F0200349
:103500000393039B002211463720FDF707F937206C
:10351000FDF738F9AFE700BF0004004000080040A5
:10352000001400400010024000B587B00023019352
:10353000029303930493059302680E4B9A4202D0C0
:1035400007B05DF804FB03F502335A6942F48012B8
:103550005A615B6903F480130093009B4FF480531E
:10356000019302230293059301A90348FDF72CF967
:10357000E6E700BF00080040000C00487047FEE787
:10358000FEE7FEE7FEE770477047704708B5FDF7B6
:103590008DF808BD08B50348FEF7ACFA00F0A9F8AD
:1035A00008BD00BF4402002008B50348FEF7A2FA98
:1035B00000F06EFA08BD00BFA001002008B5024867
:1035C000FEF798FA08BD00BF6001002008B5034867
:1035D000FEF790FA00F08CF808BD00BF84020020CE
:1035E00008B503460B4A126842B10A4A1068034400
:1035F0006A46934206D8074A136008BD054A064941
:103600001160F2E700F07EFA0C2303604FF0FF3008
:10361000F3E700BF9C000020C80200201549D1F844
:10362000883043F47003C1F88830134B1A6842F0B5
:1036300001021A605868114A02405A601A6822F062
:10364000847222F480321A601A6822F480221A608E
:103650005A6822F4FE025A60DA6A22F00F02DA6235
:10366000186B074A02401A6300229A604FF0006309
:103670008B60704700ED00E0001002400CC07FF846
:10368000CCFC00FF70B5154C4FF40005C4F8845015
:103690006420FDF71DF8FEF7AFFE1148FEF718FA9B
:1036A0001048FEF715FA104E3046FEF711FA0F4893
:1036B000FEF70EFA00213046FEF730FDFFF7D0F896
:1036C0004FF6FF70FFF724FA0320FFF787F84FF457
:1036D0007A70FCF7FDFF656070BD00BF00E100E09F
:1036E00044020020A001002060010020840200208C
:1036F000704708B5FFF72CFC08BD10B50446002341
:1037000080F8343000224262038282628360C360A8
:10371000FCF7D8FFA063012363820223A382042362
:10372000E38208232383102363832023A38340237E
:10373000E38380232384204610BD0000012800D0AD
:1037400070474FF6FF739942FAD110B5054C201D12
:10375000FFF7D3FFA37A84F84030E37A84F841304E
:1037600010BD00BFA400002000B587B08268092A00
:1037700002DCC368092B1CDD092A02DCC368092BA3
:103780001CDC092A02DDC368092B1CDDC368104953
:1037900003A800F0A1FA4FF6FF73019308230093EA
:1037A00000235022282103A8FEF76CFF07B05DF824
:1037B00004FB084903A800F08FFAECE7064903A8C8
:1037C00000F08AFAE7E7054903A800F085FAE2E786
:1037D0003C490008244900082C49000834490008E5
:1037E00010B586B0044601A8FEF79AFEE8B93A4B38
:1037F0009A7A93F840309A4200D03BB13649C87A61
:1038000091F84110884249D0002947D1FFF78CFB3D
:10381000314B9A7A83F84020DA7A83F8412094F881
:103820003430282B4BD006B010BD01224FF48061FC
:103830002A48FDF793F89DF8083084F834300A2BB5
:1038400005D0142B03D01E2B01D0282B1FD19DF89F
:103850000D3084F82C309DF80E3084F82D309DF812
:103860000F3084F82E309DF8103084F82F309DF8FA
:10387000113084F830309DF8123084F831309DF8E2
:10388000133084F832309DF8143084F8333000223D
:103890004FF480611148FDF761F8A8E79A4200D023
:1038A0001BB98842BBD00029B9D0FFF747FB0A4BB0
:1038B0009A7A83F84020DA7A83F84120AFE794F8C7
:1038C0002D30E2689342AED094F82C20A260E360E1
:1038D0000348FFF749FFA6E7A400002000100048B6
:1038E000A800002090F82C200023072B05DC02F014
:1038F0000101C15452080133F7E7704738B5054656
:1039000090F834301E2B01D000240CE0FFF7EAFFC2
:10391000FAE704F1080305EB4303002259880A483B
:10392000FDF71CF80134072C0CDC2B5D002BF0D0CC
:1039300004F1080305EB4303012259880248FDF70F
:103940000DF8EFE738BD00BF000C004810B5044C7F
:103950002046FFF745FF2046FFF7D0FF10BD00BF10
:10396000A800002030EE600A32EE612A20EE022A22
:1039700031EE601A82EE010A30EE210A7047000033
:1039800010B5044690F82C3000EE103ADFED090A2D
:103990009FED092AF0EE601A9FED081AB8EE400A72
:1039A000FFF7E0FFBDEEC00AB8EEC00A84ED0A0AD8
:1039B00010BD00BF0000000000009B4300007A43E0
:1039C00038B5044690F834300A2B40D094ED0A7A8A
:1039D000D4ED097A77EE677A17EE900AFCF75CFD72
:1039E00002460B46FCF7FAFBFCF7AEFD051E31DB89
:1039F000012211462448FCF7B1FF002D42D007EE0A
:103A0000905AB8EEE77AF7EE006AC6EE877AFDEED6
:103A1000E77A17EE903A4FF47A7202FB03F302331F
:103A20001A4A516C91FBF3F203FB12130BBB0122F8
:103A300004211548FCF792FF002D11DDD4ED097A21
:103A4000B6EE007A77EE877AC4ED097A16E0FFF7D2
:103A500097FFBBE7002201210B48FCF77FFFCCE773
:103A6000D4ED097AB6EE007A77EEC77AC4ED097A1A
:103A700004E0002204210448FCF770FF034A536C61
:103A80000133536438BD00BF00080048A400002083
:103A900008B50248FFF794FF08BD00BFA80000204A
:103AA00008B54FF6FF710120FFF748FE08BD000082
:103AB000DFF834D0002103E00C4B5B584350043155
:103AC0000B480C4B42189A42F6D30B4A02E00023F3
:103AD00042F8043B094B9A42F9D3FFF79FFD00F0EF
:103AE00017F8FFF717FCFEE700A000208449000844
:103AF000000000207800002078000020C80200208C
:103B0000FEE70000014B1868704700BF140000205A
:103B100070B50D4E0D4CA41BA4100025A54209D173
:103B20000B4E0C4C00F026FCA41BA4100025A54253
:103B300005D170BD56F8253098470135EEE756F8A7
:103B4000253098470135F2E77849000878490008A0
:103B5000784900088049000802440346934200D196
:103B6000704703F8011BF9E738B50546002945D031
:103B700051F8043C0C1F002BB8BFE41800F0CCF83F
:103B80001F4A1368104633B9636014602846BDE8C5
:103B9000384000F0C2B8A3420CD9216862189342A1
:103BA00004BF1A685B68636004BF52182260046037
:103BB000ECE713465A680AB1A242FAD919685818B4
:103BC000A0420BD120680144581882421960DDD10F
:103BD000106852685A6001441960D7E702D90C2373
:103BE0002B60D3E7206821188A4204BF116852680D
:103BF000626004BF091821605C60C7E738BD00BF80
:103C0000F000002070B5CD1C25F0030508350C2D03
:103C100038BF0C25002D064601DBA94203D90C2331
:103C20003360002070BD00F077F8214A1468214607
:103C300091B9204C23681BB9304600F03DF8206054
:103C40002946304600F038F8431C24D10C23336059
:103C5000304600F062F8E4E70B685B1B18D40B2BCE
:103C60000FD90B60CD50CC18304600F056F804F157
:103C70000B00231D20F00700C31AD3D05A42E25094
:103C8000D0E78C424B6816BF636013600C46EBE7CD
:103C90000C464968CCE7C41C24F00304A04205D0BC
:103CA000211A304600F008F80130CFD02560DBE75C
:103CB000F0000020F400002038B5064C0023054633
:103CC00008462360FFF78CFC431C02D1236803B134
:103CD0002B6038BDC40200200EB400B59CB01DABF3
:103CE000029006906FF0004109480791049109493C
:103CF00053F8042B05910068019302A900F068F8BD
:103D0000029B00221A701CB05DF804EB03B07047F0
:103D1000140000200802FFFF704770472DE9F047AC
:103D20008E689E4282460C469046994637D88A89CC
:103D300012F4906F31D0256809696F1A6569022302
:103D400005EB450595FBF3F509F101033B449D4265
:103D500038BF1D46530530D52946FFF753FF0646A9
:103D600050B90C23CAF80030A38943F04003A38163
:103D70004FF0FF30BDE8F0873A46216900F0A8FA1D
:103D8000A38923F4906343F08003A38126616561D6
:103D90003E44ED1B2660A5604E464E4500D94E467A
:103DA00032464146206800F09EFAA3689B1BA36040
:103DB00023681E4426600020DCE72A4600F0ACFAA7
:103DC00006460028E2D121695046FFF7CDFEC8E73C
:103DD0002DE9F04F1D468B891F069DB080460C468D
:103DE00016460FD50B696BB94021FFF70BFF20601A
:103DF000206128B90C23C8F800304FF0FF30C8E02C
:103E0000402363610023099320238DF82930302358
:103E10008DF82A3003954FF0010B37463D4615F8D3
:103E2000013B0BB1252B3ED1B7EB060A0BD0534615
:103E3000324621464046FFF771FF013000F0A48072
:103E4000099B534409933B78002B00F09D8000238D
:103E50004FF0FF32CDE90523049307938DF85330DB
:103E60001A932F46052217F8011B5048FCF798FBC0
:103E7000049BD0B9D90644BF20228DF853201A07DD
:103E800044BF2B228DF853202A782A2A15D0079A6E
:103E90002F4600200A25394611F8013B303B092BFB
:103EA0004DD9B8B10FE02F46B8E7404A801A0BFA57
:103EB00000F0184304903D46D3E7039A111D1268A1
:103EC0000391002A01DB079204E0524243F002030F
:103ED000079204933B782E2B0CD17B782A2B33D17D
:103EE000039B1A1D1B680392002BB8BF4FF0FF33D2
:103EF000023705932E4D397803222846FCF750FBF4
:103F000038B14023401B03FA00F0049B0343013700
:103F10000493397827488DF8281006227E1CFCF778
:103F20003FFB002838D0244B13BB039B073323F0FF
:103F3000070308330393099B4B4409936DE705FB83
:103F4000023201200F46A6E70023013705931946E8
:103F50000A25384610F8012B303A092A03D9002BDC
:103F6000C8D00591C6E705FB012101230746F0E70C
:103F700003AB00932246114B04A94046AFF30080E7
:103F8000B0F1FF3F8146D6D1A3895B063FF535AF3F
:103F900009981DB0BDE8F08F03AB00932246074B94
:103FA00004A9404600F082F8EAE700BF444900084F
:103FB0004A4900084E490008000000001D3D000865
:103FC0002DE9F04791461F468A680B69DDF820808D
:103FD0009342B8BF1346C9F8003091F84320064613
:103FE0000C4612B10133C9F800302368990642BF6C
:103FF000D9F800300233C9F80030256815F00605FD
:1040000007D104F1190AE368D9F800209B1AAB42E2
:1040100028DC94F843302268003318BF012392064D
:104020002DD404F1430239463046C047013020D038
:104030002368E568D9F8002003F00603042B08BFC5
:10404000AD1AA36822690CBF25EAE57500259342E5
:10405000C4BF9B1AED184FF000091A344D451AD110
:10406000002008E00123524639463046C04701305F
:1040700003D14FF0FF30BDE8F0870135C3E7E11809
:104080005A1C302081F84300224494F8451082F8ED
:1040900043100233C5E70123224639463046C04764
:1040A0000130E6D009F10109D8E700002DE9F0431D
:1040B00001F1430C0C46097E85B06E291746064671
:1040C00098460C9A00F0B38022D8632936D00AD8DB
:1040D000002900F0B980582900F0838004F14205DE
:1040E00084F8421032E0642901D06929F6D12068B1
:1040F0001368050603F104012AD51B681160002B23
:1041000003DA2D225B4284F843206F480A2239E00B
:10411000732900F09D8008D86F2920D07029DDD147
:10412000236843F02003236003E0752917D0782922
:10413000D4D1782384F84530644855E01368191DBC
:104140001B68116004F1420584F8423001238CE0C1
:104150001B68116010F0400F18BF1BB2CFE7136847
:104160002568181D1060280601D51B6802E0680646
:10417000FBD51B8854486F2914BF0A22082200214E
:1041800084F843106568A560002DC0F29580216811
:1041900021F004012160002B3DD1002D40F08E80E4
:1041A0006546082A0BD12368DB0708D523696268B6
:1041B0009A42DEBF302305F8013C05F1FF35ACEB38
:1041C00005032361CDF800803B4603AA2146304613
:1041D000FFF7F6FE01304DD14FF0FF3005B0BDE8DE
:1041E000F083394884F84510136821681D1D1B6849
:1041F00015600A060BD5CA0744BF41F020012160B3
:104200001BB9226822F0200222601022B7E74D0677
:1042100048BF9BB2EFE76546B3FBF2F102FB1133F7
:10422000C35C05F8013D0B460029F5D1B9E71368D9
:1042300025686169181D106028061B6801D5196082
:1042400002E06A06FBD51980002323616546B9E7C1
:104250001368191D11601D68626800212846FCF76B
:104260009FF908B1401B606063682361002384F8F4
:104270004330A7E723692A4639463046C047013014
:10428000AAD023689B0713D4E068039B9842B8BF69
:104290001846A3E701234A4639463046C047013055
:1042A0009AD00135E368039A9B1AAB42F2DCEBE744
:1042B000002504F11909F5E7002BACD1037884F847
:1042C000423004F142056CE7554900086649000890
:1042D00010B5431E0A44914200D110BD11F8014BA4
:1042E00003F8014FF7E7884210B501EB020307D846
:1042F000421E99420AD011F8014B02F8014FF8E72B
:104300008342F5D98118D21AD34200D110BD13F8D7
:10431000014D01F8014DF7E7F8B5074614460E4682
:1043200021B91146BDE8F840FFF76CBC22B9FFF790
:104330001BFC25462846F8BD00F014F8A0420FD219
:1043400021463846FFF75EFC05460028F2D031468C
:104350002246FFF7BDFF31463846FFF705FCE9E787
:104360003546E7E751F8043C181F002BBCBF0B583B
:10437000C0187047F8B500BFF8BC08BC9E4670472F
:0C438000F8B500BFF8BC08BC9E467047B2
:10438C0002030405060708090A0B0C0D0E0F10108A
:10439C000102030405060708090A0B0C0D0E0F1089
:1043AC000000000000005C00000000000600060099
:1043BC000000287C287C28005C54FE5474004420A7
:1043CC00100844002854542050000600000000003F
:1043DC0038440000000044380000000002070200CE
:1043EC00000010107C101000C00000000000101025
:1043FC001010100040000000000060100C000000C5
:10440C007C64544C7C00487C400000006454545440
:10441C004800445454546C003C20702020005C54E0
:10442C00545424007C5454547400040464140C003C
:10443C007C5454547C005C5454547C004400000064
:10444C000000C400000000001028440000002828D0
:10445C0028282800442810000000080454080000F4
:10446C007C4454545C007C2424247C007C545454A0
:10447C006C007C44444444007C44444438007C54E8
:10448C00545444007C14141404007C4444547400AC
:10449C007C1010107C0044447C4444006040404438
:1044AC007C007C10102844007C40404040007C087C
:1044BC0010087C007C0810207C00384444443800F0
:1044CC007C14141408003C2464243C007C14141444
:1044DC0068005C545454740004047C0404007C4054
:1044EC0040407C000C3040300C003C4030403C00E4
:1044FC004428102844000C1060100C004464544CE8
:10450C0044007C44000000000C1060000000447C5F
:10451C00000000000001000100004040404040400D
:10452C000001000000007C2424247C007C545454A2
:10453C006C007C44444444007C44444438007C5427
:10454C00545444007C14141404007C4444547400EB
:10455C007C1010107C0044447C4444006040404477
:10456C007C007C10102844007C40404040007C08BB
:10457C0010087C007C0810207C003844444438002F
:10458C007C14141408003C2464243C007C14141483
:10459C0068005C545454740004047C0404007C4093
:1045AC0040407C000C3040300C003C4030403C0023
:1045BC004428102844000C1060100C004464544C27
:1045CC004400107C440000006C0000000000447C9F
:1045DC0010000000020102010000000000000000B9
:1045EC0032000000340000003500000037000000ED
:1045FC00380000003A0000003B0000003D000000C5
:10460C003E0000004000000041000000430000009C
:10461C004400000046000000470000004900000074
:10462C004A0000004B0000004D0000004E0000004E
:10463C004F00000051000000520000005300000029
:10464C005400000055000000560000005800000007
:10465C00590000005A0000005A0000005B000000E6
:10466C005C0000005D0000005E0000005F000000C8
:10467C005F000000600000006000000061000000AE
:10468C006200000062000000620000006300000095
:10469C006300000063000000640000006400000080
:1046AC00640000006400000064000000640000006E
:1046BC00640000006400000064000000630000005F
:1046CC006300000063000000620000006200000054
:1046DC00620000006100000060000000600000004B
:1046EC005F0000005F0000005E0000005D00000045
:1046FC005C0000005B0000005A0000005A00000043
:10470C005900000058000000560000005500000041
:10471C005400000053000000520000005100000043
:10472C004F0000004E0000004D0000004B00000048
:10473C004A0000004900000047000000460000004D
:10474C004400000043000000410000004000000055
:10475C003E0000003D0000003B0000003A0000005D
:10476C003800000037000000350000003400000065
:10477C0032000000300000002F0000002D0000006F
:10478C002C0000002A000000290000002700000077
:10479C00260000002400000023000000210000007F
:1047AC00200000001E0000001D0000001B00000087
:1047BC001A0000001900000017000000160000008D
:1047CC001500000013000000120000001100000092
:1047DC00100000000F0000000E0000000C00000094
:1047EC000B0000000A0000000A0000000900000095
:1047FC000800000007000000060000000500000093
:10480C00050000000400000004000000030000008C
:10481C000200000002000000020000000100000085
:10482C00010000000100000000000000000000007A
:10483C00000000000000000000000000000000006C
:10484C00000000000000000000000000010000005B
:10485C000100000001000000020000000200000046
:10486C00020000000300000004000000040000002F
:10487C000500000005000000060000000700000015
:10488C0008000000090000000A0000000A000000F7
:10489C000B0000000C0000000E0000000F000000D8
:1048AC0010000000110000001200000013000000B6
:1048BC001500000016000000170000001900000091
:1048CC001A0000001B0000001D0000001E0000006C
:1048DC002000000021000000230000002400000044
:1048EC002600000027000000290000002A0000001C
:1048FC002C0000002D0000002F00000030000000F4
:10490C000000000000000000010203040607080973
:10491C0000000000010203043025643A30256400D5
:10492C003025643A2564000025643A302564000083
:10493C0025643A2564000000232D302B2000686C80
:10494C004C006566674546470030313233343536A6
:10495C0037383941424344454600303132333435DF
:0C496C003637383961626364656600000C
:08497800B5010008A13A000896
:044980009101000899
:1049840001000000100000004001F00001000000E0
:1049940000127A001800002000000000000000004F
:1049A4000000000000000000000000000000000003
:1049B40000000000000000000000000000000000F3
:1049C40000000000000000000000000000000000E3
:1049D40000000000000000000000000000000000D3
:1049E40000000000000000000000000000000000C3
:0849F4000000000000000000BB
:0400000508003AB104
:00000001FF
