:020000040800F2
:1000000000A00020C13000088D2C00088F2C0008B3
:10001000912C0008932C0008952C0008000000008B
:10002000000000000000000000000000972C000805
:10003000992C0008000000009B2C00089D2C000853
:100040001131000811310008113100081131000888
:100050001131000811310008113100081131000878
:100060001131000811310008113100081131000868
:100070001131000811310008113100081131000858
:100080001131000811310008113100081131000848
:100090001131000811310008113100081131000838
:1000A0001131000811310008113100081131000828
:1000B000A52C0008B92C0008CD2C0008113100082F
:1000C0001131000811310008113100081131000808
:1000D00011310008113100081131000811310008F8
:1000E00011310008113100081131000811310008E8
:1000F00011310008113100081131000811310008D8
:1001000000000000000000000000000011310008A5
:10011000113100081131000811310008DD2C0008F0
:1001200011310008113100081131000811310008A7
:10013000113100081131000800000000000000002B
:1001400011310008113100081131000800000000D1
:10015000000000000000000000000000000000009F
:1001600000000000000000001131000811310008FB
:100170001131000800000000000000000000000035
:0801800000000000113100082D
:1001880010B5054C237833B9044B13B10448AFF3C9
:1001980000800123237010BD100000200000000023
:1001A8006C31000808B5034B1BB103490348AFF392
:1001B800008008BD00000000140000206C31000819
:1001C80081F0004102E000BF83F0004330B54FEA00
:1001D80041044FEA430594EA050F08BF90EA020F6D
:1001E8001FBF54EA000C55EA020C7FEA645C7FEA00
:1001F800655C00F0E2804FEA5454D4EB5555B8BF23
:100208006D420CDD2C4480EA020281EA030382EA93
:10021800000083EA010180EA020281EA0303362D25
:1002280088BF30BD11F0004F4FEA01314FF4801CF8
:100238004CEA113102D0404261EB410113F0004F0A
:100248004FEA03334CEA133302D0524263EB4303C1
:1002580094EA050F00F0A780A4F10104D5F1200E5F
:100268000DDB02FA0EFC22FA05F2801841F10001BA
:1002780003FA0EF2801843FA05F359410EE0A5F18E
:1002880020050EF1200E012A03FA0EFC28BF4CF0BF
:10029800020C43FA05F3C01851EBE37101F0004575
:1002A80007D54FF0000EDCF1000C7EEB00006EEB82
:1002B8000101B1F5801F1BD3B1F5001F0CD349080C
:1002C8005FEA30004FEA3C0C04F101044FEA445263
:1002D80012F5800F80F09A80BCF1004F08BF5FEAEA
:1002E800500C50F1000041EB045141EA050130BDCA
:1002F8005FEA4C0C404141EB010111F4801FA4F16D
:100308000104E9D191F0000F04BF01460020B1FAC1
:1003180081F308BF2033A3F10B03B3F120020CDAF9
:100328000C3208DD02F1140CC2F10C0201FA0CF0D7
:1003380021FA02F10CE002F11402D8BFC2F1200C3C
:1003480001FA02F120FA0CFCDCBF41EA0C019040F2
:10035800E41AA2BF01EB0451294330BD6FEA04043B
:100368001F3C1CDA0C340EDC04F11404C4F1200226
:1003780020FA04F001FA02F340EA030021FA04F338
:1003880045EA030130BDC4F10C04C4F1200220FA8F
:1003980002F001FA04F340EA0300294630BD21FACD
:1003A80004F0294630BD94F0000F83F4801306BF93
:1003B80081F480110134013D4EE77FEA645C18BF87
:1003C8007FEA655C29D094EA050F08BF90EA020F1E
:1003D80005D054EA000C04BF1946104630BD91EA16
:1003E800030F1EBF0021002030BD5FEA545C05D119
:1003F8004000494128BF41F0004130BD14F5800458
:100408003CBF01F5801130BD01F0004545F0FE41CB
:1004180041F470014FF0000030BD7FEA645C1ABF00
:10042800194610467FEA655C1CBF0B46024650EA37
:10043800013406BF52EA033591EA030F41F4002163
:1004480030BD00BF90F0000F04BF0021704730B5E9
:100458004FF4806404F132044FF000054FF00001BE
:1004680050E700BF90F0000F04BF0021704730B57F
:100478004FF4806404F1320410F0004548BF404254
:100488004FF000013EE700BF42004FEAE2014FEAA9
:1004980031014FEA02701FBF12F07F4393F07F4F84
:1004A80081F06051704732F07F4208BF704793F087
:1004B8007F4F04BF41F40021704730B54FF460749A
:1004C80001F0004521F000411CE700BF50EA01029D
:1004D80008BF704730B54FF000050AE050EA010246
:1004E80008BF704730B511F0004502D5404261EBB6
:1004F80041014FF4806404F132045FEA915C3FF4F7
:10050800D8AE4FF003025FEADC0C18BF03325FEA93
:10051800DC0C18BF033202EBDC02C2F1200300FA44
:1005280003FC20FA02F001FA03FE40EA0E0021FA69
:1005380002F11444BDE600BF4FEA410212F5001271
:1005480015D211D56FF47873B3EB625212D94FEA12
:10055800C12343F0004343EA505311F0004F23FAFC
:1005680002F018BF404270474FF00000704750EA51
:10057800013005D111F0004008BF6FF0004070470E
:100588004FF00000704700BF10B504460E4B1878B6
:100598004FF47A73B3FBF0F30C4A1068B0FBF3F036
:1005A80000F0A0F868B90F2C01D901200AE0002258
:1005B80021464FF0FF3000F055F8034B5C600020F7
:1005C80000E0012010BD00BF000000200C0000204A
:1005D80008B5074A136843F010031360032000F0BE
:1005E8002FF80020FFF7D0FF02F06EFA002008BDB8
:1005F80000200240034A1168034B1B780B44136028
:10060800704700BF8000002000000020014B1868E0
:10061800704700BF8000002038B50446FFF7F6FF9A
:100628000546B4F1FF3F02D0044B1B781C44FFF78A
:10063800EDFF401BA042FAD338BD00BF00000020E8
:10064800074AD36823F4E0631B041B0C000200F480
:10065800E060184340F0BF6040F40030D06070475D
:1006680000ED00E030B4174BDB68C3F30223C3F19D
:100678000704042C28BF04241D1D062D18D9033B8C
:100688004FF0FF3505FA04F421EA0401994005FA10
:1006980003F322EA0303194300280BDB0901C9B25B
:1006A80000F1604000F5614080F8001330BC7047ED
:1006B8000023E5E700F00F000901C9B2024B195405
:1006C800F4E700BF00ED00E014ED00E000F01F02C9
:1006D800400901239340024A42F82030704700BF86
:1006E80000E100E00138B0F1807F0AD2064B586083
:1006F800064AF02182F823100020986007221A6029
:1007080070470120704700BF10E000E000ED00E0F6
:10071800F0B482B0002336E0042400E00024B440A2
:100728003C4302355B4E46F825405B4C2568D44374
:1007380004EA05064F6817F4803F01D042EA05062F
:10074800554D2E606D6804EA05064F6817F4003FA2
:1007580001D042EA0506504D6E60AD6804EA050610
:100768004F6817F4801F01D042EA05064A4DAE6073
:10077800ED682C404E6816F4001F01D042EA0504CB
:10078800454AD46001330A6832FA03F47ED0012462
:100798009C402240F6D04D68022D01D0122D10D178
:1007A800DE08083650F826C003F00705AF000F250D
:1007B800BD402CEA050C0D69BD4045EA0C0540F822
:1007C800265006685F000325BD40ED4305EA060C88
:1007D8004E6806F00306BE4046EA0C0606604E6800
:1007E80006F1FF3CBCF1010F03D9112E01D0122EE6
:1007F80010D1866805EA060CCE68BE4046EA0C06AB
:100808008660466826EA04044E68C6F300169E40D1
:1008180026434660C46825408C68BC402C43C460AD
:100828004C6814F0805FADD01C4CA56945F00105FB
:10083800A561A46904F001040194019C9D08AE1C03
:10084800144C54F8267003F00304A6000F24B44097
:1008580027EA0407B0F1904F3FF460AF104CA04274
:100868000ED004F58064A0420CD004F58064A04248
:100878000AD004F58064A0423FF44EAF05244EE749
:1008880001244CE702244AE7032448E702B0F0BCFD
:10089800704700BF00000140000401400010024002
:1008A800000400480AB981627047816170470000FE
:1008B800002800F0F58270B582B00446036813F092
:1008C800010F3BD0B54B5B6803F00C03042B1ED023
:1008D800B24B5B6803F00C03082B13D06368B3F5C5
:1008E800803F68D0002B40F0928003F1804303F5ED
:1008F80004331A6822F480321A601A6822F48022BB
:100908001A605DE0A54B5B6813F4803FE6D04FF4B6
:10091800003393FAA3F3A14B19684FF4003393FA09
:10092800A3F3B3FA83F303F01F03012202FA03F3DC
:100938000B4203D06368002B00F0B482236813F0E5
:10094800020F00F0C680954B5B6813F00C0F00F0A7
:100958009C80924B5B6803F00C03082B00F08F809F
:100968002369002B00F0F380012292FAA2F3B3FA74
:1009780083F303F1845303F584139B001A60FFF794
:1009880045FE0546022393FAA3F3844B1968022314
:1009980093FAA3F3B3FA83F303F01F03012202FAD5
:1009A80003F30B4240F0C480FFF730FE401B0228DF
:1009B800E8D9032083E2794A136843F4803313604B
:1009C800764AD36A23F00F03A1680B43D3626368A6
:1009D800002B36D0FFF71AFE05464FF4003393FA82
:1009E800A3F36E4B19684FF4003393FAA3F3B3FAE9
:1009F80083F303F01F03012202FA03F30B429DD194
:100A0800FFF704FE401B6428E7D9032057E2B3F53B
:100A1800A02F09D0614B1A6822F480321A601A6834
:100A280022F480221A60CBE703F18043A3F53C331C
:100A38001A6842F480221A601A6842F480321A60F6
:100A4800BEE7FFF7E3FD05464FF4003393FAA3F33F
:100A5800524B19684FF4003393FAA3F3B3FA83F3B4
:100A680003F01F03012202FA03F30B423FF466AFBF
:100A7800FFF7CCFD401B6428E6D903201FE2474B53
:100A88005B6813F4803F7FF46BAF022393FAA3F300
:100A9800424B1968022393FAA3F3B3FA83F303F0E2
:100AA8001F03012202FA03F30B4204D02369934285
:100AB80001D0012003E23948036823F0F803616993
:100AC800F82292FAA2F2B2FA82F201FA02F213437F
:100AD8000360236813F0080F00F08C80A369002BD3
:100AE80060D0012191FAA1F2B2FA82F22C4B1344A0
:100AF8009B001960FFF78AFD0546022393FAA3F2CB
:100B080093FAA3F293FAA3F2244A516A93FAA3F34D
:100B1800B3FA83F303F01F03012202FA03F30B4233
:100B280068D1FFF773FD401B0228E6D90320C6E110
:100B38001A48036823F0F8036169F82292FAA2F2CE
:100B4800B2FA82F201FA02F213430360C1E7012309
:100B580093FAA3F3B3FA83F303F1845303F58413ED
:100B68009B0000221A60FFF751FD0546022393FA05
:100B7800A3F30A4B1968022393FAA3F3B3FA83F396
:100B880003F01F03012202FA03F30B42A1D0FFF77F
:100B98003DFD401B0228E9D9032090E100100240E6
:100BA80020819010012292FAA2F2B2FA82F2C04B8E
:100BB80013449B0000221A60FFF728FD0546022314
:100BC80093FAA3F293FAA3F293FAA3F2B94A516AF9
:100BD80093FAA3F3B3FA83F303F01F03012202FA93
:100BE80003F30B4206D0FFF711FD401B0228E6D99C
:100BF800032064E1236813F0040F00F0B380AD4BC9
:100C0800DB6913F0805F20D1AA4BDA6942F0805289
:100C1800DA61DB6903F080530193019B0125A64B40
:100C28001B6813F4807F12D0E368012B23D073BBB9
:100C380003F1804303F504331A6A22F001021A62B1
:100C48001A6A22F004021A621AE00025E7E79A4AB3
:100C5800136843F480731360FFF7D8FC0646964B7D
:100C68001B6813F4807FDFD1FFF7D0FC801B64285A
:100C7800F5D9032023E18F4A136A43F00103136275
:100C8800E368002B41D0FFF7C1FC06462BE0052B9B
:100C980009D0884B1A6A22F001021A621A6A22F0F5
:100CA80004021A62ECE7834B1A6A42F004021A62E1
:100CB8001A6A42F001021A62E2E77E4B196A0223BD
:100CC80093FAA3F3B3FA83F303F01F03012202FAA2
:100CD80003F3194245D1FFF799FC801B41F2883391
:100CE800984200F2E180022393FAA3F293FAA3F365
:100CF800B3FA83F35B0943F00203022BDDD002232E
:100D080093FAA3F36B4B596AD9E7FFF77FFC0646C2
:100D180015E0684B196A022393FAA3F3B3FA83F335
:100D280003F01F03012202FA03F3194219D0FFF757
:100D38006DFC801B41F28833984200F2B780022391
:100D480093FAA3F293FAA3F3B3FA83F35B0943F09C
:100D58000203022BDDD0022393FAA3F3554B596A01
:100D6800D9E7B5BBE369002B00F0A880514A526867
:100D780002F00C02082A00F0A480022B2FD04FF0BA
:100D8800807393FAA3F3B3FA83F303F1845303F55F
:100D980084139B0000221A60FFF738FC04464FF0CA
:100DA800007393FAA3F3434B19684FF0007393FA57
:100DB800A3F3B3FA83F303F01F03012202FA03F348
:100DC80019426BD0FFF722FC001B0228E7D9032049
:100DD80075E0384AD36923F08053D361C2E74FF0F6
:100DE800807393FAA3F3B3FA83F303F1845303F5FF
:100DF80084139B0000221A60FFF708FC05464FF099
:100E0800007393FAA3F32B4B19684FF0007393FA0E
:100E1800A3F3B3FA83F303F01F03012202FA03F3E7
:100E2800194206D0FFF7F2FB401B0228E7D903203E
:100E380045E020494B6823F47413626A206A024330
:100E480013434B604FF0807393FAA3F3B3FA83F321
:100E580003F1845303F584139B0001221A60FFF702
:100E6800D5FB04464FF0007393FAA3F3114B1968AE
:100E78004FF0007393FAA3F3B3FA83F303F01F035D
:100E8800012202FA03F3194206D1FFF7BFFB001B48
:100E98000228E7D9032012E0002010E000200EE02D
:100EA8000120704701200AE0032008E0032006E043
:100EB800208190100010024000700040002002B015
:100EC80070BD0120FBE700BF10B4174B5C6804F04D
:100ED8000C03082B26D104F470124FF4701393FA04
:100EE800A3F3B3FA83F322FA03F31049C85C0E4B59
:100EF800DB6A03F00F030F2292FAA2F2B2FA82F22F
:100F0800D3400B441A7C14F4803F05D1084B03FBF3
:100F180000F05DF8044B7047064BB3FBF2F300FB9F
:100F280003F0F6E70348F4E70010024084310008B4
:100F380000093D0000127A00002800F0C08070B55A
:100F48000446614B1B6803F007038B420CD25E4AD0
:100F5800136823F007030B431360136803F00703B8
:100F68008B4201D0012070BD236813F0020F06D018
:100F7800564A536823F0F003A068034353600D46B4
:100F8800236813F0010F5AD06368012B2DD0022B70
:100F980040D0022292FAA2F24C4A1068022292FA37
:100FA800A2F2B2FA82F202F01F02012101FA02F261
:100FB800104200F0868045494A6822F00302134334
:100FC8004B60FFF723FB0646404B5B6803F00C03BE
:100FD8006268B3EB820F32D0FFF718FB801B41F237
:100FE80088339842F0D90320BDE74FF4003292FAD3
:100FF800A2F2364A10684FF4003292FAA2F2B2FA1C
:1010080082F202F01F02012101FA02F20242D2D159
:101018000120A8E74FF0007292FAA2F22B4A10685A
:101028004FF0007292FAA2F2B2FA82F202F01F02B4
:10103800012101FA02F21042BDD1012093E7224BAF
:101048001B6803F00703AB420CD91F4A136823F04F
:1010580007032B431360136803F00703AB4201D067
:10106800012080E7236813F0040F06D0174A53685D
:1010780023F4E063E1680B435360236813F0080F1F
:1010880007D0124A536823F46053216943EAC10325
:101098005360FFF719FF0D4B5B6803F0F003F02274
:1010A80092FAA2F2B2FA82F2D340094AD35CD8404B
:1010B800084B18600020FFF767FA002053E701206B
:1010C800704701204FE700BF002002400010024097
:1010D800C43400080C000020F8B505460F46164633
:1010E8001C4639E02CB1FFF791FA069BC01AA042C2
:1010F80032D32A68536823F0E00353606B68B3F572
:10110800827F0BD0AB6AB3F5005F14D0012385F85A
:101118005D30002385F85C30032025E0AB68B3F52B
:10112800004F02D0B3F5806FECD12A68136823F022
:1011380040031360E6E72A68136823F4005313603A
:101148002A68136843F400531360DFE70123B342AE
:1011580009D0B4F1FF3FC5D12B689B6837EA030378
:10116800F4D00023F3E70020F8BDF0B583B00746BC
:101178000C4615461E4602E0B6F1FF3F10D13A680C
:1011880093682340AB423FD0B4F5C06FF4D1002D33
:10119800F2D1137BDBB28DF807309DF80730EBE70F
:1011A8002EB1FFF733FA089BC01AB042E7D33A686A
:1011B800536823F0E00353607B68B3F5827F0BD05C
:1011C800BB6AB3F5005F14D0012387F85D300023B4
:1011D80087F85C30032018E0BB68B3F5004F02D0F5
:1011E800B3F5806FECD13A68136823F040031360BD
:1011F800E6E73A68136823F4005313603A68136803
:1012080043F400531360DFE7002003B0F0BD70B56E
:1012180082B004460D46164600920B4600224FF453
:10122800C051FFF7A2FFB8B900962B4600228021D3
:101238002046FFF751FFB8B900962B4600224FF41D
:10124800C0612046FFF791FF034650B1236E43F07B
:1012580020032366032304E0236E43F02003236660
:101268000323184602B070BD236E43F020032366A3
:101278000323F6E770B582B004460D461646436868
:10128800B3F5827F0FD000962B460022802120469E
:10129800FFF722FF034698B96268B2F5827F15D03E
:1012A800184602B070BD8368B3F5004F02D0B3F59D
:1012B800806FE8D12268136823F040031360E2E7E7
:1012C800236E43F0200323660323E9E7A268B2F5FF
:1012D800004F02D0B2F5806FE2D100962B46002273
:1012E8004FF4C0612046FFF740FF03460028D7D0DF
:1012F800236E43F0200323660323D1E7002858D048
:1013080010B504460023836290F85D30002B45D069
:10131800022384F85D302268136823F040031360C9
:10132800E368B3F5E06F3ED90022B3F5706F04D0DF
:10133800B3F5E06F01D00021A162216B21B9B3F5AB
:10134800E06F33D9022323636368A1680B432169E3
:101358000B4361690B43A16901F400710B43E16917
:101368000B43216A0B43A06A216803430B60638B1C
:1013780003F00403616A0B43616B0B43E1680B43A1
:10138800216813434B602268D36923F40063D36157
:1013980000202066012384F85D3010BD80F85C30A1
:1013A80001F0AAFBB4E74FF48052BEE701232363A0
:1013B800CAE7012070472DE9F04182B01E4690F837
:1013C8005C30012B00F0D68004460D469046012380
:1013D80080F85C30FFF71AF9074694F85D30DBB205
:1013E800012B09D00220012384F85D30002384F802
:1013F8005C3002B0BDE8F081002D00F0B180B8F19A
:10140800000F00F0AF80032384F85D3000232366CB
:10141800A563A4F83C80A4F83E802364A4F8443073
:10142800A4F846302365E364A368B3F5004F1BD0E6
:1014380023681A6812F0400F03D11A6842F040027C
:101448001A60E368B3F5E06F31D963681BB1E38FC5
:101458009BB2012B13D1236835F8022BDA60E38F96
:10146800013B9BB2E3870AE02268136843F4804398
:101478001360DDE7002E77D0B6F1FF3F10D1E38F80
:101488009BB2002B57D023689A6812F0020FF1D054
:1014980035F8022BDA60E38F013B9BB2E387EEE776
:1014A800FFF7B4F8C01BB042E9D303209BE7636899
:1014B8001BB1E38F9BB2012B22D1E38F9BB2012B8F
:1014C80008D9236835F8022BDA60E38F023B9BB218
:1014D800E38715E023682A781A73E38F013B9BB2F0
:1014E800E38701350CE02A781A73E38F013B9BB23E
:1014F800E387013504E0002E38D0B6F1FF3F13D161
:10150800E38F9BB2BBB123689A6812F0020FF2D046
:10151800E28F92B2012AE6D935F8022BDA60E38F1E
:10152800023B9BB2E387EBE7FFF770F8C01BB042C2
:10153800E6D3032057E73A4631462046FFF767FED1
:1015480008B120232366A36833B901932368DA68B6
:1015580001929B680193019B236E4BB9002042E7DF
:10156800012040E701203EE703203CE703203AE75B
:10157800012038E702203CE72DE9F8439846089D0A
:1015880090F85C30012B00F04F8104460F46164658
:10159800012380F85C30FFF739F8814694F85D3014
:1015A800DBB26268012B13D0B2F5827F08D002202B
:1015B800012384F85D30002384F85C30BDE8F883AB
:1015C800A268002A40F02681042B01D00220EFE710
:1015D800002F00F02181002E00F02081B8F1000FCB
:1015E80000F01E8194F85D30DBB2042B02D0052395
:1015F80084F85D30002323662664A4F84680A4F8A6
:101608004480A763A4F83E80A4F83C80E364236583
:10161800E368B3F5E06F04D8B4F846309BB2012B09
:1016280022D92268536823F48053536023681A68C8
:1016380012F0400F03D11A6842F040021A60E368C2
:10164800B3F5E06F54D963681BB1E38F9BB2012BEC
:1016580007D1236837F8022BDA60E38F013B9BB28E
:10166800E3874FF001081CE02268536843F4805375
:101678005360DBE7B4F846309BB27BB123689A68C5
:1016880012F0010F0AD0DB6826F8023BB4F84630A6
:10169800013B9BB2A4F846304FF00108B5F1FF3F7B
:1016A8001ED1E38F9BB22BB9B4F846309BB2002B06
:1016B80000F0A480B8F1000FDCD0E38F9BB2002BC0
:1016C800D8D023689A6812F0020FD3D037F8022BCB
:1016D800DA60E38F013B9BB2E3874FF00008C9E76C
:1016E800FEF794FFA0EB0900A842DAD303205FE7D6
:1016F80063681BB1E38F9BB2012B0BD1E38F9BB2C5
:10170800012B0AD9236837F8022BDA60E38F023BF2
:101718009BB2E3874FF0010832E023683A781A73E6
:10172800E38F013B9BB2E3870137F3E73A781A73FB
:10173800E38F013B9BB2E38701374FF00008B4F811
:1017480046309BB2CBB123689A6812F0010F14D0CF
:10175800B4F8462092B2012A3CD9DB6826F8023B4D
:10176800B4F84630023B9BB2A4F84630B4F8463091
:101778009BB2012B26D94FF00108B5F1FF3F35D1B7
:10178800E38F9BB223B9B4F846309BB2002B35D017
:10179800B8F1000FD3D0E38F9BB2002BCFD02368D2
:1017A8009A6812F0020FCAD0E28F92B2012ABDD90C
:1017B80037F8022BDA60E38F023B9BB2E3874FF0E6
:1017C8000008BCE72268536843F4805353604FF025
:1017D8000108D2E71B7B3370B4F84630013B9BB25B
:1017E800A4F8463001364FF00108C6E7FEF70EFFB1
:1017F800A0EB0900A842C3D30320D9E64A462946EC
:101808002046FFF704FD08B120232366236E4BB959
:101818000020CDE60220CBE60120C9E60120C7E67C
:101828000120C5E60120C3E60220C7E62DE9F04104
:1018380082B004460D4617461E464368B3F5827FBC
:1018480019D094F85C30012B00F0B280012384F8A1
:101858005C30FEF7DBFE804694F85D30DBB2012B8E
:1018680015D00220012384F85D30002384F85C3011
:1018780002B0BDE8F0818368002BE2D1042380F830
:101888005D30009613460A46FFF776FEF0E7002D16
:1018980000F08480002F00F08380042384F85D30FA
:1018A800002323662564A4F84470A4F84670A36353
:1018B800A387E387E3642365E368B3F5E06F16D98C
:1018C8002268536823F480535360A368B3F5004F2C
:1018D80013D023681A6812F0400F03D11A6842F037
:1018E80040021A60E368B3F5E06F11D92FE022686F
:1018F800536843F480535360E7E72268136823F47E
:1019080080431360E5E7002E4CD0B6F1FF3F12D1BB
:10191800B4F846309BB2ABB323689A6812F0010F53
:10192800F1D01B7B05F8013BB4F84630013B9BB274
:10193800A4F84630ECE7FEF769FEA0EB0800B042D9
:10194800E6D303208EE77EB3B6F1FF3F12D1B4F899
:1019580046309BB2B3B123689A6812F0010FF2D0F7
:10196800DB6825F8023BB4F84630013B9BB2A4F88B
:101978004630ECE7FEF74AFEA0EB0800B042E6D39B
:1019880003206FE7424631462046FFF773FC08B153
:1019980020232366236E4BB9002063E7012061E70B
:1019A80001205FE703205DE703205BE7012059E79B
:1019B80002205DE790F85D00704710B4036A046A7E
:1019C80024F001040462846924F0F00444EA021259
:1019D80023F00A030B43826103625DF8044B7047EE
:1019E80010B4036A23F0100303628469036A24F4C1
:1019F800704444EA023223F0A00343EA01138261EF
:101A080003625DF8044B7047836823F0700341F06C
:101A180007011943816070470268D36843F00103E6
:101A2800D3600268136843F0010313600020704715
:101A380070477047704770477047704710B5044645
:101A480003681A6912F0020F11D0DA6812F0020F57
:101A58000DD06FF002021A610123037703689B69B6
:101A680013F0030F79D0FFF7E6FF002323772368ED
:101A78001A6912F0040F12D0DA6812F0040F0ED0AF
:101A88006FF004021A610223237723689B6913F419
:101A9800407F68D02046FFF7CEFF002323772368D6
:101AA8001A6912F0080F12D0DA6812F0080F0ED077
:101AB8006FF008021A61042323772368DB6913F0A7
:101AC800030F57D02046FFF7B6FF0023237723687C
:101AD8001A6912F0100F12D0DA6812F0100F0ED037
:101AE8006FF010021A61082323772368DB6913F467
:101AF800407F46D02046FFF79EFF002323772368C8
:101B08001A6912F0010F03D0DA6812F0010F3FD101
:101B180023681A6912F0800F03D0DA6812F0800F78
:101B28003DD123681A6912F4807F03D0DA6812F075
:101B3800800F3BD123681A6912F0400F03D0DA688E
:101B480012F0400F39D123681A6912F0200F03D020
:101B5800DA6812F0200F37D110BDFFF76BFF20466F
:101B6800FFF76AFF81E72046FFF764FF2046FFF78B
:101B780063FF92E72046FFF75DFF2046FFF75CFF13
:101B8800A3E72046FFF756FF2046FFF755FFB4E7C7
:101B98006FF001021A612046FFF74BFFB8E76FF0BC
:101BA80080021A61204600F0B6FBBAE76FF4807233
:101BB8001A61204600F0B0FBBCE76FF040021A61E2
:101BC8002046FFF73AFFBEE76FF020021A61204671
:101BD80000F0A0FBC0E7000003682C4A90420ED03A
:101BE800B0F1804F0BD0A2F59432904207D002F5A5
:101BF8008062904203D002F59632904203D123F0DE
:101C080070034A681343214A90421AD0B0F1804FBA
:101C180017D0A2F59432904213D002F58062904218
:101C28000FD002F5963290420BD002F540629042F6
:101C380007D002F58062904203D002F5806290429C
:101C480003D123F44073CA68134323F080034A691D
:101C5800134303608B68C3620B6883620B4B984223
:101C68000FD003F5006398420BD003F54063984208
:101C780007D003F58063984203D003F58063984248
:101C880001D10B690363012343617047002C0140B4
:101C9800A8B110B5044690F83D305BB1022384F832
:101CA8003D30211D2068FFF797FF012384F83D3060
:101CB800002010BD80F83C3000F052FFEEE7012014
:101CC8007047A8B110B5044690F83D305BB10223C7
:101CD80084F83D30211D2068FFF77EFF012384F83A
:101CE8003D30002010BD80F83C30FFF7A1FEEEE744
:101CF8000120704730B4036A23F001030362036ACA
:101D08004468826922F4803222F073020D682A4303
:101D180023F002038D682B431C4DA8420FD005F514
:101D28000065A8420BD005F54065A84207D005F527
:101D38008065A84203D005F58065A84205D123F047
:101D48000803CD682B4323F00403104DA8420FD09D
:101D580005F50065A8420BD005F54065A84207D0F7
:101D680005F58065A84203D005F58065A84205D130
:101D780024F440754C692C438D692C43446082617E
:101D88004A684263036230BC704700BF002C0140C0
:101D980030B4036A23F010030362036A446882695B
:101DA80022F0807222F4E6420D6842EA052223F00E
:101DB80020038D6843EA0513174DA84203D005F5A3
:101DC8000065A84206D123F08003CD6843EA0513D5
:101DD80023F04003104DA8420FD005F50065A84236
:101DE8000BD005F54065A84207D005F58065A842E7
:101DF80003D005F58065A84207D124F440644D69F5
:101E080044EA85048D6944EA8504446082614A682D
:101E18008263036230BC7047002C014030B4036A0F
:101E280023F480730362036A4468C26922F480322F
:101E380022F073020D682A4323F400738D6843EA85
:101E48000523184DA84203D005F50065A84206D120
:101E580023F40063CD6843EA052323F48063114D1E
:101E6800A8420FD005F50065A8420BD005F54065DE
:101E7800A84207D005F58065A84203D005F580651E
:101E8800A84207D124F440544D6944EA05148D69E9
:101E980044EA05144460C2614A68C263036230BC04
:101EA800704700BF002C014030B4036A23F480530C
:101EB8000362036A4468C26922F0807222F4E6422F
:101EC8000D6842EA052223F400538D6843EA05337E
:101ED8000F4DA8420FD005F50065A8420BD005F5B7
:101EE8004065A84207D005F58065A84203D005F5EE
:101EF8008065A84204D124F480444D6944EA8514DD
:101F08004460C2614A680264036230BC704700BF23
:101F1800002C014010B4846824F47F4442EA03236F
:101F28000B43234383605DF8044B704790F83C30C3
:101F3800012B00F0828010B50446012380F83C3064
:101F4800022380F83D30026890683D4B034093605F
:101F58000B68402B5DD010D9702B40D01FD8502B68
:101F68004DD0602B34D1CA6849682068FFF738FD26
:101F780060212068FFF748FD2AE0102B53D008D9CC
:101F8800202B55D0302B23D130212068FFF73CFD82
:101F98001EE0EBB900212068FFF736FD18E0B3F525
:101FA800805F0ED0B3F5005F12D1CB684A688968AC
:101FB8002068FFF7AFFF2268936843F4804393607B
:101FC80006E02268936823F4803323F007039360C4
:101FD800012384F83D30002084F83C0010BDCB6814
:101FE8004A6889682068FFF795FF2268936823F498
:101FF800803323F0770343F077039360E8E7CA68F8
:1020080049682068FFF7D9FC50212068FFF7FCFCDD
:10201800DEE7CA6849682068FFF7CFFC40212068DE
:10202800FFF7F2FCD4E710212068FFF7EDFCCFE7BB
:1020380020212068FFF7E8FCCAE70220704700BFAC
:102048008800FEFF10B4012303FA01F4036A23EAAF
:1020580004030362036A8A40134303625DF8044B76
:102068007047000010B5044601220068FFF7EAFF38
:1020780023680F4A93420FD002F5006293420BD0B7
:1020880002F54062934207D002F58062934203D082
:1020980002F58062934203D15A6C42F400425A64BA
:1020A8002268136843F001031360002010BD00BFCD
:1020B800002C014030B4036A23F480330362036ABE
:1020C8004468426D22F4803222F070020D682A437F
:1020D80023F400338D6843EA05430F4DA8420FD01F
:1020E80005F50065A8420BD005F54065A84207D064
:1020F80005F58065A84203D005F58065A84204D19E
:1021080024F480344D6944EA0524446042654A68F1
:102118008265036230BC7047002C014030B4036A0A
:1021280023F480130362036A4468426D22F08072CC
:1021380022F4E0420D6842EA052223F400138D6878
:1021480043EA05530F4DA8420FD005F50065A84294
:102158000BD005F54065A84207D005F58065A84273
:1021680003D005F58065A84204D124F480244D6984
:1021780044EA8524446042654A68C265036230BC0B
:10218800704700BF002C014038B590F83C30012B57
:1021980000F092800D460446012380F83C3002236B
:1021A80080F83D30142A1ED8DFE802F00B1D1D1DF3
:1021B800241D1D1D381D1D1D4B1D1D1D5F1D1D1DB5
:1021C80072000068FFF796FD2268936943F00803E0
:1021D80093612268936923F00403936122689369E9
:1021E80029690B439361012384F83D30002084F86A
:1021F8003C0038BD0068FFF7CBFD2268936943F4C3
:10220800006393612268936923F480639361226871
:102218009369296943EA01239361E4E70068FFF7BA
:10222800FDFD2268D36943F00803D3612268D369AE
:1022380023F00403D3612268D36929690B43D3616E
:10224800D1E70068FFF730FE2268D36943F40063E2
:10225800D3612268D36923F48063D3612268D36988
:10226800296943EA0123D361BDE70068FFF722FF2C
:102278002268536D43F0080353652268536D23F0B9
:10228800040353652268536D29690B435365AAE714
:102298000068FFF743FF2268536D43F400635365FA
:1022A8002268536D23F4806353652268536D29694E
:1022B80043EA0123536596E702209AE790F83C30F9
:1022C800012B22D030B4012380F83C3002685368D7
:1022D80095680F4CA24203D004F50064A24203D1D2
:1022E80023F470034C68234323F070030C682343E2
:1022F80025F08004896821435360036899600023AE
:1023080080F83C30184630BC70470220704700BF48
:10231800002C014070477047704710B403F0030465
:10232800D20002EB531304EB830400EB042001EB0F
:1023380000205DF8044B7047490901EBC000704765
:1023480000B589B000238DF804308DF805308DF87C
:1023580006308DF807308DF800308DF801308DF893
:1023680002308DF803308DF81C308DF81D308DF853
:102378001E308DF81F308DF8183008228DF819207E
:102388008DF81A308DF81B308DF814308DF8153013
:102398008DF816308DF817308DF810308DF8113013
:1023A8008DF812308DF813308DF80C308DF80D3013
:1023B8008DF80E308DF80F308DF808308DF8092023
:1023C8008DF80A308DF80B3000F0D8F8034618B9AC
:1023D800184609B05DF804FB00F038F903460028F8
:1023E800F6D001AA2321202000F05CF96A462721B3
:1023F800242000F057F907AA0321002000F052F921
:1024080006AA0721042000F04DF905AA0B2108208F
:1024180000F048F904AA1321102000F043F903AA98
:102428001721142000F03EF902AA1B21182000F001
:1024380039F90421602000F0EAF80121702000F049
:10244800E6F800212A2000F0E2F8D121292000F046
:10245800DEF88121282000F0DAF800F00FF90346B1
:102468000028B5D00123B3E730B585B0044600F0A5
:1024780037F910F0C0034BD00546C02B18BF402BCE
:102488002CD0802B30D005F01805102D32D0012328
:1024980023709DF801109DF80000FFF74DFF606064
:1024A8009DF8043023729DF8053063729DF806305C
:1024B800A3729DF80730E3729DF8083023739DF8E6
:1024C800093063739DF80A30A3739DF80B30E373EA
:1024D8009DF80C302374012005B030BD0D226946EB
:1024E800902000F07CF8CEE70D226946942000F099
:1024F80076F8C8E7022323709DF801309DF8002084
:102508009DF803109DF80200FFF707FF6060C7E71A
:102518000020E1E700B583B002A901F8010D0A2304
:1025280001220348FEF747FF03B05DF804FB00BF34
:102538008400002008B50A230A4601460148FEF730
:102548003AFF08BD8400002000B583B00A230122A9
:102558000DF107010348FFF769F99DF8070003B07B
:102568005DF804FB8400002008B50A230A460146EA
:102578000148FFF75BF908BD8400002010B501226F
:1025880010214FF09040FEF78DF90A240648FFF716
:1025980011FA012805D0631E13F0FF04F6D10020BC
:1025A80010BD0120FCE700BF8400002010B50446E0
:1025B800002210214FF09040FEF774F90320FFF736
:1025C800A9FF2046FFF7A6FFFFF7BEFF044601223A
:1025D80010214FF09040FEF765F9204610BD70B508
:1025E80006460C461546002210214FF09040FEF793
:1025F80059F93046FFF78EFF29462046FFF7B4FF0A
:10260800012210214FF09040FEF74CF970BD38B50B
:1026180005460C46002210214FF09040FEF742F983
:102628000120FDF7F9FF0220FFF774FF2846FFF7A6
:1026380071FF2046FFF76EFF0120FDF7EDFF012235
:1026480010214FF09040FEF72DF938BD10B58021CC
:102658000F20FFF7DCFF64240E20FFF7A7FF00F030
:10266800E000802808D00A20FDF7D6FF631E13F08B
:10267800FF04F1D1002000E0012010BD10B50021B9
:102688000F20FFF7C4FF0A240E20FFF78FFF10F07A
:10269800E00F05D0631E13F0FF04F5D1002010BD34
:1026A8000120FCE770B505460C46164600221021AD
:1026B8004FF09040FEF7F6F80220FFF72BFF284670
:1026C800FFF728FF611BC9B20131C9B23046FFF7D5
:1026D80031FF012210214FF09040FEF7E3F870BD62
:1026E80010B5002210214FF09040FEF7DBF8B02023
:1026F800FFF710FFFFF728FF0446012210214FF0D3
:102708009040FEF7CFF8204610BD0000024B002293
:102718001A605A60704700BF2C00002008B5034BB0
:1027280001221A60FFF7F2FF08BD00BF0800002071
:1027380008B5034B02221A60FFF7E8FF08BD00BF87
:10274800080000200F4B5B680F4A116893FBF1F2F9
:1027580001FB12323AB90B4A1268C82A07DD0B4A44
:102768001268322151630133064A536070470749A2
:102778000968074850F822004863013201490A6095
:10278800F1E700BF2C00002008000020E80000202E
:10279800A43100082DE9F0438BB000240594069479
:1027A8000794089409943C4B5A6942F400225A61F0
:1027B8005A6902F400220192019A5A6942F40032DD
:1027C8005A615A6902F400320292029A5A6942F432
:1027D80000125A615A6902F400120392039A5A6964
:1027E80042F480125A615B6903F480130493049BDA
:1027F8002A4E224623213046FEF754F822461A2153
:102808004FF09040FEF74EF8DFF894902246802172
:102818004846FEF747F8DFF88C802246FE214046FE
:10282800FEF740F8032705970125069507940894B5
:1028380005A93046FDF76CFF05950694079405A990
:102848004FF09040FDF764FF1A230593069507940F
:10285800089705A94FF09040FDF75AFF20230593EC
:1028680006950794089705A93046FDF751FF802380
:10287800059306950794089405A94846FDF748FF6F
:10288800FE23059306950794089405A94046FDF78D
:102898003FFF0BB0BDE8F08300100240000800487D
:1028A80000100048000C004808B50D480D4B0360A7
:1028B8004FF482734360002383604FF4E062C26088
:1028C800036143614FF400728261C3610362436232
:1028D80083620722C26203634363FEF70FFD08BDEC
:1028E800840000200030014030B589B000240494F1
:1028F8000594069407940194029403940E4D0F4B8B
:102908002B604FF448736B60AC601423EB602C6150
:10291800AC612846FFF7BCF94FF48053049304A92F
:102928002846FFF703FB0194039401A92846FFF703
:10293800C5FC09B030BD00BF2801002000040040DC
:1029480030B589B000240494059406940794019442
:10295800029403940E4D4FF080432B6050236B601C
:10296800AC600523EB602C61AC612846FFF790F959
:102978004FF48053049304A92846FFF7D7FA01942B
:10298800039401A92846FFF799FC09B030BD00BFA0
:102998006801002030B585B00025019502950395A2
:1029A8000A4C0B4B23604FF4FA536360A5604FF455
:1029B8007A73E360A5612046FFF76AF901950395EC
:1029C80001A92046FFF77AFC05B030BDA801002018
:1029D8000014004030B58FB000240A940B940C9476
:1029E8000D94079408940994009401940294039414
:1029F800049405940694164D164B2B6001236B60C6
:102A0800AC606423EB602C61AC612846FFF740F9A9
:102A18004FF480530A930AA92846FFF787FA2846F5
:102A2800FFF74FF90794099407A92846FFF746FCD2
:102A38006023009301940294049422466946284630
:102A4800FFF7A2FB284600F0F3F80FB030BD00BF37
:102A5800E80000200008004010B590B024220021B2
:102A680007A800F077FB00240194029403940494CF
:102A780005940223069301230A9310230B9306A8B7
:102A8800FDF716FF0F230193029403940494059411
:102A9800214601A8FEF750FA10B010BD08B5FDF7A1
:102AA80097FDFFF7D9FFFFF775FEFFF7FDFEFFF76C
:102AB8001BFFFFF78FFFFFF743FFFFF76BFF00F0E8
:102AC80045F900F047FAFCE782B00A4B9A6942F0F0
:102AD80001029A619A6902F001020092009ADA6989
:102AE80042F08052DA61DB6903F080530193019B65
:102AF80002B070470010024000B589B0002303936C
:102B080004930593069307930268144B9A4202D0E4
:102B180009B05DF804FB03F560439A6942F48052FA
:102B28009A619A6902F480520192019A5A6942F4B0
:102B380000325A615B6903F400330293029BE0237D
:102B4800039302230493032306930523079303A9FE
:102B58004FF09040FDF7DCFDDAE700BF00300140A0
:102B680000B585B00368B3F1804F0BD02C4A93426F
:102B78001CD02C4A93422CD02B4A93423CD005B00F
:102B88005DF804FB03F50433DA6942F00102DA6107
:102B9800DB6903F001030093009B002211461C200F
:102BA800FDF760FD1C20FDF791FDE8E71F4BDA6992
:102BB80042F00202DA61DB6903F002030193019B30
:102BC800002211461D20FDF74DFD1D20FDF77EFD5D
:102BD800D5E7164BDA6942F00402DA61DB6903F0E3
:102BE80004030293029B002211461E20FDF73AFDC2
:102BF8001E20FDF76BFDC2E70C4BDA6942F020029C
:102C0800DA61DB6903F020030393039B002211467A
:102C18003720FDF727FD3720FDF758FDAFE700BF48
:102C2800000400400008004000140040001002406A
:102C380000B587B00023019302930393049305938F
:102C480002680E4B9A4202D007B05DF804FB03F508
:102C580002335A6942F480125A615B6903F48013A3
:102C68000093009B4FF48053019302230293059332
:102C780001A90348FDF74CFDE6E700BF0008004046
:102C8800000C00487047FEE7FEE7FEE7FEE77047E6
:102C98007047704708B5FDF7ADFC08BD08B5034897
:102CA800FEF7CCFE00F070F808BD00BF68010020F8
:102CB80008B50348FEF7C2FE00F0EEF908BD00BFF4
:102CC8002801002008B50248FEF7B8FE08BD00BF7D
:102CD800E800002008B50248FEF7B0FE08BD00BFB6
:102CE800A80100201549D1F8883043F47003C1F8D1
:102CF8008830134B1A6842F001021A605868114A6A
:102D080002405A601A6822F0847222F480321A60F3
:102D18001A6822F480221A605A6822F4FE025A6065
:102D2800DA6A22F00F02DA62186B074A02401A6365
:102D380000229A604FF000638B60704700ED00E05E
:102D4800001002400CC07FF8CCFC00FF10B5FFF764
:102D5800F7FA0948FEF760FE0848FEF75DFE084CE2
:102D68002046FEF759FE0748FEF756FE002120468A
:102D7800FFF778F910BD00BF680100202801002086
:102D8800E8000020A801002008B5FFF7DBFC08BD1B
:102D980010B50446002380F83430002242620382D2
:102DA80082628360C360FDF731FCA0630123638204
:102DB8000223A3820423E38208232383102363834B
:102DC8002023A3834023E38380232384204610BD4C
:102DD800012800D070474FF6FF739942FAD110B519
:102DE800054C201DFFF7D4FFA37A84F84030E37A1E
:102DF80084F8413010BD00BF3400002010B586B003
:102E0800044601A8FFF730FBE8B9364B9A7A93F8E5
:102E180040309A4200D03BB13249C87A91F841100B
:102E2800884247D0002945D1FFF778FC2D4B9A7A84
:102E380083F84020DA7A83F8412094F834301E2B46
:102E480049D006B010BD01224FF480612648FDF735
:102E580029FD9DF8083084F834300A2B03D0142B50
:102E680001D01E2B1FD19DF80D3084F82C309DF811
:102E78000E3084F82D309DF80F3084F82E309DF8F0
:102E8800103084F82F309DF8113084F830309DF8D8
:102E9800123084F831309DF8133084F832309DF8C0
:102EA800143084F8333000224FF480610E48FDF767
:102EB800F9FCAAE79A4200D01BB98842BDD0002984
:102EC800BBD0FFF735FC074B9A7A83F84020DA7AB3
:102ED80083F84120B1E794F82C30A36094F82D30A2
:102EE800E360AEE7340000200010004890F82C2082
:102EF8000023072B05DC02F00101C15452080133FD
:102F0800F7E7704738B5054690F834301E2B01D0E6
:102F180000240CE0FFF7EAFFFAE704F1080305EBE9
:102F28004303002259880A48FDF7BCFC0134072CEA
:102F38000CDC2B5D002BF0D004F1080305EB4303F8
:102F4800012259880248FDF7ADFCEFE738BD00BF04
:102F5800000C004810B5044C2046FFF74FFF2046F0
:102F6800FFF7D0FF10BD00BF3800002030EE600A28
:102F780032EE612A20EE022A31EE601A82EE010A50
:102F880030EE210A7047000010B5044690F82C3046
:102F980000EE103ADFED090A9FED092AF0EE601AFB
:102FA8009FED081AB8EE400AFFF7E0FFBDEEC00A31
:102FB800B8EEC00A84ED0A0A10BD00BF0000000088
:102FC80000009B4300007A4338B5044690F834303B
:102FD8000A2B40D094ED0A7AD4ED097A77EE677A15
:102FE80017EE900AFDF750FA02460B46FDF7EEF889
:102FF800FDF7A2FA051E31DB012211462448FDF730
:1030080051FC002D42D007EE905AB8EEE77AF7EE61
:10301800006AC6EE877AFDEEE77A17EE903A4FF42B
:103028007A7202FB03F302331A4A516C91FBF3F2F2
:1030380003FB12130BBB012202211548FDF732FCDA
:10304800002D11DDD4ED097AB6EE007A77EE877A95
:10305800C4ED097A16E0FFF797FFBBE700220121CC
:103068000B48FDF71FFCCCE7D4ED097AB6EE007AE1
:1030780077EEC77AC4ED097A04E0002202210448F9
:10308800FDF710FC034A536C0133536438BD00BF8D
:10309800000800483400002008B50248FFF794FFF4
:1030A80008BD00BF3800002008B54FF6FF710120A9
:1030B800FFF78EFE08BD0000DFF834D0002103E0E2
:1030C8000C4B5B58435004310B480C4B42189A4246
:1030D800F6D30B4A02E0002342F8043B094B9A421C
:1030E800F9D3FFF7FFFD00F011F8FFF7D7FCFEE773
:1030F80000A00020E8340008000000201000002094
:1031080010000020E8010020FEE7000070B50D4E19
:103118000D4CA41BA4100025A54209D10B4E0C4C44
:1031280000F020F8A41BA4100025A54205D170BD0D
:1031380056F8253098470135EEE756F82530984778
:103148000135F2E7DC340008DC340008DC34000820
:10315800E434000802440346934200D1704703F860
:10316800011BF9E7F8B500BFF8BC08BC9E467047DC
:0C317800F8B500BFF8BC08BC9E467047CC
:1031840002030405060708090A0B0C0D0E0F1010A4
:103194000102030405060708090A0B0C0D0E0F10A3
:1031A4003200000034000000350000003700000049
:1031B400380000003A0000003B0000003D00000021
:1031C4003E000000400000004100000043000000F9
:1031D40044000000460000004700000049000000D1
:1031E4004A0000004B0000004D0000004E000000AB
:1031F4004F00000051000000520000005300000086
:103204005400000055000000560000005800000063
:10321400590000005A0000005A0000005B00000042
:103224005C0000005D0000005E0000005F00000024
:103234005F0000006000000060000000610000000A
:1032440062000000620000006200000063000000F1
:1032540063000000630000006400000064000000DC
:1032640064000000640000006400000064000000CA
:1032740064000000640000006400000063000000BB
:1032840063000000630000006200000062000000B0
:1032940062000000610000006000000060000000A7
:1032A4005F0000005F0000005E0000005D000000A1
:1032B4005C0000005B0000005A0000005A0000009F
:1032C400590000005800000056000000550000009E
:1032D40054000000530000005200000051000000A0
:1032E4004F0000004E0000004D0000004B000000A5
:1032F4004A000000490000004700000046000000AA
:1033040044000000430000004100000040000000B1
:103314003E0000003D0000003B0000003A000000B9
:1033240038000000370000003500000034000000C1
:1033340032000000300000002F0000002D000000CB
:103344002C0000002A0000002900000027000000D3
:1033540026000000240000002300000021000000DB
:10336400200000001E0000001D0000001B000000E3
:103374001A000000190000001700000016000000E9
:1033840015000000130000001200000011000000EE
:10339400100000000F0000000E0000000C000000F0
:1033A4000B0000000A0000000A00000009000000F1
:1033B40008000000070000000600000005000000EF
:1033C40005000000040000000400000003000000E9
:1033D40002000000020000000200000001000000E2
:1033E40001000000010000000000000000000000D7
:1033F40000000000000000000000000000000000C9
:1034040000000000000000000000000001000000B7
:1034140001000000010000000200000002000000A2
:10342400020000000300000004000000040000008B
:103434000500000005000000060000000700000071
:1034440008000000090000000A0000000A00000053
:103454000B0000000C0000000E0000000F00000034
:103464001000000011000000120000001300000012
:1034740015000000160000001700000019000000ED
:103484001A0000001B0000001D0000001E000000C8
:1034940020000000210000002300000024000000A0
:1034A4002600000027000000290000002A00000078
:1034B4002C0000002D0000002F0000003000000050
:1034C40000000000000000000102030406070809D0
:0834D4000000000001020304E6
:0834DC00AD010008B130000849
:0434E4008901000852
:1034E80001000000100000000100000000127A0036
:04000005080030C1FE
:00000001FF
