:020000040800F2
:1000000000A000208D0E00080D0E00080F0E000845
:10001000110E0008130E0008150E00080000000065
:10002000000000000000000000000000170E0008A3
:10003000190E0008000000001B0E00081D0E00082D
:10004000DD0E0008DD0E0008DD0E0008DD0E0008E4
:10005000DD0E0008DD0E0008DD0E0008DD0E0008D4
:10006000DD0E0008DD0E0008DD0E0008DD0E0008C4
:10007000DD0E0008DD0E0008DD0E0008DD0E0008B4
:10008000DD0E0008DD0E0008DD0E0008DD0E0008A4
:10009000DD0E0008DD0E0008DD0E0008DD0E000894
:1000A000DD0E0008DD0E0008DD0E0008DD0E000884
:1000B000DD0E0008DD0E0008DD0E0008DD0E000874
:1000C000DD0E0008DD0E0008DD0E0008DD0E000864
:1000D000DD0E0008DD0E0008DD0E0008DD0E000854
:1000E000DD0E0008DD0E0008DD0E0008DD0E000844
:1000F000DD0E0008DD0E0008DD0E0008DD0E000834
:10010000000000000000000000000000DD0E0008FC
:10011000DD0E0008DD0E0008DD0E0008DD0E000813
:10012000DD0E0008DD0E0008DD0E0008DD0E000803
:10013000DD0E0008DD0E00080000000000000000D9
:10014000DD0E0008DD0E0008DD0E000800000000D6
:10015000000000000000000000000000000000009F
:100160000000000000000000DD0E0008DD0E0008A9
:10017000DD0E00080000000000000000000000008C
:0801800000000000DD0E000884
:1001880010B5054C237833B9044B13B10448AFF3C9
:1001980000800123237010BD0C0000200000000027
:1001A800380F000808B5034B1BB103490348AFF3E8
:1001B800008008BD0000000010000020380F000873
:1001C80010B504460E4B18784FF47A73B3FBF0F36E
:1001D8000C4A1068B0FBF3F000F080F868B90F2CF7
:1001E80001D901200AE0002221464FF0FF3000F03B
:1001F80041F8034B5C60002000E0012010BD00BF07
:10020800000000200800002008B5074A136843F0E2
:1002180010031360032000F01BF80020FFF7D0FF45
:1002280000F0D8FD002008BD00200240034A1168F4
:10023800034B1B780B441360704700BF2800002055
:1002480000000020014B1868704700BF28000020FC
:10025800074AD36823F4E0631B041B0C000200F474
:10026800E060184340F0BF6040F40030D060704751
:1002780000ED00E030B4174BDB68C3F30223C3F191
:100288000704042C28BF04241D1D062D18D9033B80
:100298004FF0FF3505FA04F421EA0401994005FA04
:1002A80003F322EA0303194300280BDB0901C9B24F
:1002B80000F1604000F5614080F8001330BC7047E1
:1002C8000023E5E700F00F000901C9B2024B1954F9
:1002D800F4E700BF00ED00E014ED00E00138B0F1F4
:1002E800807F0AD2064B5860064AF02182F8231014
:1002F8000020986007221A6070470120704700BFED
:1003080010E000E000ED00E0F0B482B0002336E039
:10031800042400E00024B4403C4302355B4E46F818
:1003280025405B4C2568D44304EA05064F6817F45A
:10033800803F01D042EA0506554D2E606D6804EAFB
:1003480005064F6817F4003F01D042EA0506504DF4
:100358006E60AD6804EA05064F6817F4801F01D087
:1003680042EA05064A4DAE60ED682C404E6816F428
:10037800001F01D042EA0504454AD46001330A68E7
:1003880032FA03F47ED001249C402240F6D04D6816
:10039800022D01D0122D10D1DE08083650F826C0E3
:1003A80003F00705AF000F25BD402CEA050C0D69C9
:1003B800BD4045EA0C0540F8265006685F00032555
:1003C800BD40ED4305EA060C4E6806F00306BE4044
:1003D80046EA0C0606604E6806F1FF3CBCF1010FC8
:1003E80003D9112E01D0122E10D1866805EA060C09
:1003F800CE68BE4046EA0C068660466826EA0404D3
:100408004E68C6F300169E4026434660C4682540E1
:100418008C68BC402C43C4604C6814F0805FADD03D
:100428001C4CA56945F00105A561A46904F0010407
:100438000194019C9D08AE1C144C54F8267003F0DE
:100448000304A6000F24B44027EA0407B0F1904F34
:100458003FF460AF104CA0420ED004F58064A04277
:100468000CD004F58064A0420AD004F58064A04250
:100478003FF44EAF05244EE701244CE702244AE737
:10048800032448E702B0F0BC704700BF00000140F9
:1004980000040140001002400004004803691942AA
:1004A80001D100207047012070470AB98162704766
:1004B80081617047002800F0F58270B582B004466B
:1004C800036813F0010F3BD0B54B5B6803F00C03D6
:1004D800042B1ED0B24B5B6803F00C03082B13D01F
:1004E8006368B3F5803F68D0002B40F0928003F139
:1004F800804303F504331A6822F480321A601A68BC
:1005080022F480221A605DE0A54B5B6813F4803FFB
:10051800E6D04FF4003393FAA3F3A14B19684FF4D4
:10052800003393FAA3F3B3FA83F303F01F03012212
:1005380002FA03F30B4203D06368002B00F0B48285
:10054800236813F0020F00F0C680954B5B6813F028
:100558000C0F00F09C80924B5B6803F00C03082B97
:1005680000F08F802369002B00F0F380012292FABB
:10057800A2F3B3FA83F303F1845303F584139B00C6
:100588001A60FFF75FFE0546022393FAA3F3844B34
:100598001968022393FAA3F3B3FA83F303F01F0352
:1005A800012202FA03F30B4240F0C480FFF74AFE2F
:1005B800401B0228E8D9032083E2794A136843F4F0
:1005C80080331360764AD36A23F00F03A1680B4384
:1005D800D3626368002B36D0FFF734FE05464FF42C
:1005E800003393FAA3F36E4B19684FF4003393FA70
:1005F800A3F3B3FA83F303F01F03012202FA03F310
:100608000B429DD1FFF71EFE401B6428E7D903204B
:1006180057E2B3F5A02F09D0614B1A6822F4803253
:100628001A601A6822F480221A60CBE703F180432B
:10063800A3F53C331A6842F480221A601A6842F41F
:1006480080321A60BEE7FFF7FDFD05464FF4003320
:1006580093FAA3F3524B19684FF4003393FAA3F3B8
:10066800B3FA83F303F01F03012202FA03F30B42E8
:100678003FF466AFFFF7E6FD401B6428E6D9032088
:100688001FE2474B5B6813F4803F7FF46BAF022394
:1006980093FAA3F3424B1968022393FAA3F3B3FA2C
:1006A80083F303F01F03012202FA03F30B4204D081
:1006B8002369934201D0012003E23948036823F0FB
:1006C800F8036169F82292FAA2F2B2FA82F201FA08
:1006D80002F213430360236813F0080F00F08C80C4
:1006E800A369002B60D0012191FAA1F2B2FA82F23B
:1006F8002C4B13449B001960FFF7A4FD0546022309
:1007080093FAA3F293FAA3F293FAA3F2244A516A52
:1007180093FAA3F3B3FA83F303F01F03012202FA57
:1007280003F30B4268D1FFF78DFD401B0228E6D981
:100738000320C6E11A48036823F0F8036169F82228
:1007480092FAA2F2B2FA82F201FA02F213430360B9
:10075800C1E7012393FAA3F3B3FA83F303F18453B4
:1007680003F584139B0000221A60FFF76BFD054612
:10077800022393FAA3F30A4B1968022393FAA3F30B
:10078800B3FA83F303F01F03012202FA03F30B42C7
:10079800A1D0FFF757FD401B0228E9D9032090E1BB
:1007A8000010024020819010012292FAA2F2B2FABF
:1007B80082F2C04B13449B0000221A60FFF742FDEF
:1007C8000546022393FAA3F293FAA3F293FAA3F24B
:1007D800B94A516A93FAA3F3B3FA83F303F01F03F8
:1007E800012202FA03F30B4206D0FFF72BFD401B50
:1007F8000228E6D9032064E1236813F0040F00F00F
:10080800B380AD4BDB6913F0805F20D1AA4BDA6966
:1008180042F08052DA61DB6903F080530193019B57
:100828000125A64B1B6813F4807F12D0E368012BC7
:1008380023D073BB03F1804303F504331A6A22F013
:1008480001021A621A6A22F004021A621AE00025EA
:10085800E7E79A4A136843F480731360FFF7F2FCE2
:100868000646964B1B6813F4807FDFD1FFF7EAFC3E
:10087800801B6428F5D9032023E18F4A136A43F0CB
:1008880001031362E368002B41D0FFF7DBFC064647
:100898002BE0052B09D0884B1A6A22F001021A6254
:1008A8001A6A22F004021A62ECE7834B1A6A42F0D1
:1008B80004021A621A6A42F001021A62E2E77E4BE7
:1008C800196A022393FAA3F3B3FA83F303F01F031D
:1008D800012202FA03F3194245D1FFF7B3FC801B4A
:1008E80041F28833984200F2E180022393FAA3F29E
:1008F80093FAA3F3B3FA83F35B0943F00203022BE1
:10090800DDD0022393FAA3F36B4B596AD9E7FFF7BB
:1009180099FC064615E0684B196A022393FAA3F37B
:10092800B3FA83F303F01F03012202FA03F3194217
:1009380019D0FFF787FC801B41F28833984200F2F8
:10094800B780022393FAA3F293FAA3F3B3FA83F3DB
:100958005B0943F00203022BDDD0022393FAA3F3D1
:10096800554B596AD9E7B5BBE369002B00F0A8805D
:10097800514A526802F00C02082A00F0A480022BA7
:100988002FD04FF0807393FAA3F3B3FA83F303F1F4
:10099800845303F584139B0000221A60FFF752FC6E
:1009A80004464FF0007393FAA3F3434B19684FF0D2
:1009B800007393FAA3F3B3FA83F303F01F0301223E
:1009C80002FA03F319426BD0FFF73CFC001B022824
:1009D800E7D9032075E0384AD36923F08053D361FF
:1009E800C2E74FF0807393FAA3F3B3FA83F303F1EA
:1009F800845303F584139B0000221A60FFF722FC3E
:100A080005464FF0007393FAA3F32B4B19684FF088
:100A1800007393FAA3F3B3FA83F303F01F030122DD
:100A280002FA03F3194206D0FFF70CFC401B022818
:100A3800E7D9032045E020494B6823F47413626A20
:100A4800206A024313434B604FF0807393FAA3F379
:100A5800B3FA83F303F1845303F584139B00012253
:100A68001A60FFF7EFFB04464FF0007393FAA3F305
:100A7800114B19684FF0007393FAA3F3B3FA83F399
:100A880003F01F03012202FA03F3194206D1FFF70C
:100A9800D9FB001B0228E7D9032012E0002010E050
:100AA80000200EE00120704701200AE0032008E042
:100AB800032006E0208190100010024000700040E2
:100AC800002002B070BD0120FBE700BF10B4174B37
:100AD8005C6804F00C03082B26D104F470124FF460
:100AE800701393FAA3F3B3FA83F322FA03F31049CA
:100AF800C85C0E4BDB6A03F00F030F2292FAA2F2D6
:100B0800B2FA82F2D3400B441A7C14F4803F05D128
:100B1800084B03FB00F05DF8044B7047064BB3FB32
:100B2800F2F300FB03F0F6E70348F4E70010024095
:100B3800500F000800093D0000127A00002800F05C
:100B4800C08070B50446614B1B6803F007038B42F5
:100B58000CD25E4A136823F007030B431360136833
:100B680003F007038B4201D0012070BD236813F006
:100B7800020F06D0564A536823F0F003A0680343D7
:100B880053600D46236813F0010F5AD06368012B98
:100B98002DD0022B40D0022292FAA2F24C4A1068C1
:100BA800022292FAA2F2B2FA82F202F01F020121A4
:100BB80001FA02F2104200F0868045494A6822F0A4
:100BC800030213434B60FFF73DFB0646404B5B684F
:100BD80003F00C036268B3EB820F32D0FFF732FBED
:100BE800801B41F288339842F0D90320BDE74FF4C7
:100BF800003292FAA2F2364A10684FF4003292FAA2
:100C0800A2F2B2FA82F202F01F02012101FA02F204
:100C18000242D2D10120A8E74FF0007292FAA2F264
:100C28002B4A10684FF0007292FAA2F2B2FA82F2DE
:100C380002F01F02012101FA02F21042BDD1012087
:100C480093E7224B1B6803F00703AB420CD91F4AFA
:100C5800136823F007032B431360136803F007039B
:100C6800AB4201D0012080E7236813F0040F06D0BF
:100C7800174A536823F4E063E1680B435360236821
:100C880013F0080F07D0124A536823F46053216900
:100C980043EAC1035360FFF719FF0D4B5B6803F08C
:100CA800F003F02292FAA2F2B2FA82F2D340094A91
:100CB800D35CD840084B18600020FFF781FA002069
:100CC80053E70120704701204FE700BF0020024092
:100CD80000100240700F00080800002070B588B0AE
:100CE800002403940494059406940794174B5A69B6
:100CF80042F400325A615A6902F400320192019AB0
:100D08005A6942F400125A615B6903F400130293B2
:100D1800029B0F4D22464FF47F412846FFF7C5FB43
:100D2800012603960494059403A94FF09040FFF719
:100D3800EBFA4FF47F43039304960594069403A9B2
:100D48002846FFF7E1FA08B070BD00BF0010024066
:100D58000010004810B590B02422002107A800F028
:100D6800DFF8002401940294039404940594022368
:100D7800069301230A9310230B9306A8FFF79AFB07
:100D88000F2301930294039404940594214601A827
:100D9800FFF7D4FE10B010BD08B5FFF735FAFFF71E
:100DA800D9FFFFF79BFF05E000224FF400710848C8
:100DB800FFF77BFB01214FF09040FFF76FFB002806
:100DC800F2D101224FF400710148FFF76EFBF1E701
:100DD8000010004882B00A4B9A6942F001029A61F9
:100DE8009A6902F001020092009ADA6942F0805290
:100DF800DA61DB6903F080530193019B02B070470D
:100E0800001002407047FEE7FEE7FEE7FEE7704786
:100E18007047704708B5FFF709FA08BD1549D1F8BA
:100E2800883043F47003C1F88830134B1A6842F0D5
:100E380001021A605868114A02405A601A6822F082
:100E4800847222F480321A601A6822F480221A60AE
:100E58005A6822F4FE025A60DA6A22F00F02DA6255
:100E6800186B074A02401A6300229A604FF0006329
:100E78008B60704700ED00E0001002400CC07FF866
:100E8800CCFC00FFDFF834D0002103E00C4B5B58AA
:100E9800435004310B480C4B42189A42F6D30B4A84
:100EA80002E0002342F8043B094B9A42F9D3FFF7CA
:100EB800B5FF00F011F8FFF76FFFFEE700A0002074
:100EC800900F0008000000200C0000200C000020FB
:100ED8002C000020FEE7000070B50D4E0D4CA41B41
:100EE800A4100025A54209D10B4E0C4C00F020F8A7
:100EF800A41BA4100025A54205D170BD56F82530C5
:100F080098470135EEE756F8253098470135F2E75E
:100F1800880F0008880F0008880F00088C0F000849
:100F280002440346934200D1704703F8011BF9E7D6
:100F3800F8B500BFF8BC08BC9E467047F8B500BFBE
:080F4800F8BC08BC9E4670478E
:100F500002030405060708090A0B0C0D0E0F1010FA
:100F60000102030405060708090A0B0C0D0E0F10F9
:100F70000000000000000000010203040607080949
:080F800000000000010203045F
:040F8800AD010008AF
:040F8C0089010008CF
:0C0F9000010000001000000000127A00B8
:0400000508000E8D54
:00000001FF
